{
	"contracts/12.sol": {
		"Q12": {
			"abi": [
				{
					"inputs": [
						{
							"internalType": "address",
							"name": "_address",
							"type": "address"
						}
					],
					"name": "giveData",
					"outputs": [
						{
							"internalType": "uint256",
							"name": "",
							"type": "uint256"
						},
						{
							"internalType": "string",
							"name": "",
							"type": "string"
						},
						{
							"internalType": "uint256",
							"name": "",
							"type": "uint256"
						}
					],
					"stateMutability": "view",
					"type": "function"
				},
				{
					"inputs": [
						{
							"internalType": "address",
							"name": "_address",
							"type": "address"
						},
						{
							"internalType": "uint256",
							"name": "_roll",
							"type": "uint256"
						},
						{
							"internalType": "string",
							"name": "_name",
							"type": "string"
						},
						{
							"internalType": "uint256",
							"name": "_age",
							"type": "uint256"
						}
					],
					"name": "insert",
					"outputs": [],
					"stateMutability": "nonpayable",
					"type": "function"
				},
				{
					"inputs": [
						{
							"internalType": "address",
							"name": "",
							"type": "address"
						}
					],
					"name": "record",
					"outputs": [
						{
							"internalType": "uint256",
							"name": "roll",
							"type": "uint256"
						},
						{
							"internalType": "string",
							"name": "name",
							"type": "string"
						},
						{
							"internalType": "uint256",
							"name": "age",
							"type": "uint256"
						}
					],
					"stateMutability": "view",
					"type": "function"
				}
			],
			"devdoc": {
				"kind": "dev",
				"methods": {},
				"version": 1
			},
			"evm": {
				"assembly": "    /* \"contracts/12.sol\":124:700  contract Q12{\r... */\n  mstore(0x40, 0x80)\n  callvalue\n  dup1\n  iszero\n  tag_1\n  jumpi\n  0x00\n  dup1\n  revert\ntag_1:\n  pop\n  dataSize(sub_0)\n  dup1\n  dataOffset(sub_0)\n  0x00\n  codecopy\n  0x00\n  return\nstop\n\nsub_0: assembly {\n        /* \"contracts/12.sol\":124:700  contract Q12{\r... */\n      mstore(0x40, 0x80)\n      callvalue\n      dup1\n      iszero\n      tag_1\n      jumpi\n      0x00\n      dup1\n      revert\n    tag_1:\n      pop\n      jumpi(tag_2, lt(calldatasize, 0x04))\n      shr(0xe0, calldataload(0x00))\n      dup1\n      0x3465d6d5\n      eq\n      tag_3\n      jumpi\n      dup1\n      0x6c5cf048\n      eq\n      tag_4\n      jumpi\n      dup1\n      0xdad091df\n      eq\n      tag_5\n      jumpi\n    tag_2:\n      0x00\n      dup1\n      revert\n        /* \"contracts/12.sol\":266:306  mapping(address => student)public record */\n    tag_3:\n      tag_6\n      0x04\n      dup1\n      calldatasize\n      sub\n      dup2\n      add\n      swap1\n      tag_7\n      swap2\n      swap1\n      tag_8\n      jump\t// in\n    tag_7:\n      tag_9\n      jump\t// in\n    tag_6:\n      mload(0x40)\n      tag_10\n      swap4\n      swap3\n      swap2\n      swap1\n      tag_11\n      jump\t// in\n    tag_10:\n      mload(0x40)\n      dup1\n      swap2\n      sub\n      swap1\n      return\n        /* \"contracts/12.sol\":495:695  function giveData(address _address)public view returns(uint, string memory, uint){\r... */\n    tag_4:\n      tag_12\n      0x04\n      dup1\n      calldatasize\n      sub\n      dup2\n      add\n      swap1\n      tag_13\n      swap2\n      swap1\n      tag_8\n      jump\t// in\n    tag_13:\n      tag_14\n      jump\t// in\n    tag_12:\n      mload(0x40)\n      tag_15\n      swap4\n      swap3\n      swap2\n      swap1\n      tag_11\n      jump\t// in\n    tag_15:\n      mload(0x40)\n      dup1\n      swap2\n      sub\n      swap1\n      return\n        /* \"contracts/12.sol\":338:487  function insert(address _address, uint _roll, string memory _name, uint _age) public{\r... */\n    tag_5:\n      tag_16\n      0x04\n      dup1\n      calldatasize\n      sub\n      dup2\n      add\n      swap1\n      tag_17\n      swap2\n      swap1\n      tag_18\n      jump\t// in\n    tag_17:\n      tag_19\n      jump\t// in\n    tag_16:\n      stop\n        /* \"contracts/12.sol\":266:306  mapping(address => student)public record */\n    tag_9:\n      mstore(0x20, 0x00)\n      dup1\n      0x00\n      mstore\n      keccak256(0x00, 0x40)\n      0x00\n      swap2\n      pop\n      swap1\n      pop\n      dup1\n      0x00\n      add\n      sload\n      swap1\n      dup1\n      0x01\n      add\n      dup1\n      sload\n      tag_20\n      swap1\n      tag_21\n      jump\t// in\n    tag_20:\n      dup1\n      0x1f\n      add\n      0x20\n      dup1\n      swap2\n      div\n      mul\n      0x20\n      add\n      mload(0x40)\n      swap1\n      dup2\n      add\n      0x40\n      mstore\n      dup1\n      swap3\n      swap2\n      swap1\n      dup2\n      dup2\n      mstore\n      0x20\n      add\n      dup3\n      dup1\n      sload\n      tag_22\n      swap1\n      tag_21\n      jump\t// in\n    tag_22:\n      dup1\n      iszero\n      tag_23\n      jumpi\n      dup1\n      0x1f\n      lt\n      tag_24\n      jumpi\n      0x0100\n      dup1\n      dup4\n      sload\n      div\n      mul\n      dup4\n      mstore\n      swap2\n      0x20\n      add\n      swap2\n      jump(tag_23)\n    tag_24:\n      dup3\n      add\n      swap2\n      swap1\n      0x00\n      mstore\n      keccak256(0x00, 0x20)\n      swap1\n    tag_25:\n      dup2\n      sload\n      dup2\n      mstore\n      swap1\n      0x01\n      add\n      swap1\n      0x20\n      add\n      dup1\n      dup4\n      gt\n      tag_25\n      jumpi\n      dup3\n      swap1\n      sub\n      0x1f\n      and\n      dup3\n      add\n      swap2\n    tag_23:\n      pop\n      pop\n      pop\n      pop\n      pop\n      swap1\n      dup1\n      0x02\n      add\n      sload\n      swap1\n      pop\n      dup4\n      jump\t// out\n        /* \"contracts/12.sol\":495:695  function giveData(address _address)public view returns(uint, string memory, uint){\r... */\n    tag_14:\n        /* \"contracts/12.sol\":550:554  uint */\n      0x00\n        /* \"contracts/12.sol\":556:569  string memory */\n      0x60\n        /* \"contracts/12.sol\":571:575  uint */\n      0x00\n        /* \"contracts/12.sol\":587:609  student memory records */\n      dup1\n        /* \"contracts/12.sol\":612:618  record */\n      0x00\n        /* \"contracts/12.sol\":612:628  record[_address] */\n      dup1\n        /* \"contracts/12.sol\":619:627  _address */\n      dup7\n        /* \"contracts/12.sol\":612:628  record[_address] */\n      0xffffffffffffffffffffffffffffffffffffffff\n      and\n      0xffffffffffffffffffffffffffffffffffffffff\n      and\n      dup2\n      mstore\n      0x20\n      add\n      swap1\n      dup2\n      mstore\n      0x20\n      add\n      0x00\n      keccak256\n        /* \"contracts/12.sol\":587:628  student memory records = record[_address] */\n      mload(0x40)\n      dup1\n      0x60\n      add\n      0x40\n      mstore\n      swap1\n      dup2\n      0x00\n      dup3\n      add\n      sload\n      dup2\n      mstore\n      0x20\n      add\n      0x01\n      dup3\n      add\n      dup1\n      sload\n      tag_27\n      swap1\n      tag_21\n      jump\t// in\n    tag_27:\n      dup1\n      0x1f\n      add\n      0x20\n      dup1\n      swap2\n      div\n      mul\n      0x20\n      add\n      mload(0x40)\n      swap1\n      dup2\n      add\n      0x40\n      mstore\n      dup1\n      swap3\n      swap2\n      swap1\n      dup2\n      dup2\n      mstore\n      0x20\n      add\n      dup3\n      dup1\n      sload\n      tag_28\n      swap1\n      tag_21\n      jump\t// in\n    tag_28:\n      dup1\n      iszero\n      tag_29\n      jumpi\n      dup1\n      0x1f\n      lt\n      tag_30\n      jumpi\n      0x0100\n      dup1\n      dup4\n      sload\n      div\n      mul\n      dup4\n      mstore\n      swap2\n      0x20\n      add\n      swap2\n      jump(tag_29)\n    tag_30:\n      dup3\n      add\n      swap2\n      swap1\n      0x00\n      mstore\n      keccak256(0x00, 0x20)\n      swap1\n    tag_31:\n      dup2\n      sload\n      dup2\n      mstore\n      swap1\n      0x01\n      add\n      swap1\n      0x20\n      add\n      dup1\n      dup4\n      gt\n      tag_31\n      jumpi\n      dup3\n      swap1\n      sub\n      0x1f\n      and\n      dup3\n      add\n      swap2\n    tag_29:\n      pop\n      pop\n      pop\n      pop\n      pop\n      dup2\n      mstore\n      0x20\n      add\n      0x02\n      dup3\n      add\n      sload\n      dup2\n      mstore\n      pop\n      pop\n      swap1\n      pop\n        /* \"contracts/12.sol\":647:654  records */\n      dup1\n        /* \"contracts/12.sol\":647:659  records.roll */\n      0x00\n      add\n      mload\n        /* \"contracts/12.sol\":661:668  records */\n      dup2\n        /* \"contracts/12.sol\":661:673  records.name */\n      0x20\n      add\n      mload\n        /* \"contracts/12.sol\":675:682  records */\n      dup3\n        /* \"contracts/12.sol\":675:686  records.age */\n      0x40\n      add\n      mload\n        /* \"contracts/12.sol\":639:687  return (records.roll, records.name, records.age) */\n      swap4\n      pop\n      swap4\n      pop\n      swap4\n      pop\n      pop\n        /* \"contracts/12.sol\":495:695  function giveData(address _address)public view returns(uint, string memory, uint){\r... */\n      swap2\n      swap4\n      swap1\n      swap3\n      pop\n      jump\t// out\n        /* \"contracts/12.sol\":338:487  function insert(address _address, uint _roll, string memory _name, uint _age) public{\r... */\n    tag_19:\n        /* \"contracts/12.sol\":452:479  student(_roll, _name, _age) */\n      mload(0x40)\n      dup1\n      0x60\n      add\n      0x40\n      mstore\n      dup1\n        /* \"contracts/12.sol\":460:465  _roll */\n      dup5\n        /* \"contracts/12.sol\":452:479  student(_roll, _name, _age) */\n      dup2\n      mstore\n      0x20\n      add\n        /* \"contracts/12.sol\":467:472  _name */\n      dup4\n        /* \"contracts/12.sol\":452:479  student(_roll, _name, _age) */\n      dup2\n      mstore\n      0x20\n      add\n        /* \"contracts/12.sol\":474:478  _age */\n      dup3\n        /* \"contracts/12.sol\":452:479  student(_roll, _name, _age) */\n      dup2\n      mstore\n      pop\n        /* \"contracts/12.sol\":433:439  record */\n      0x00\n        /* \"contracts/12.sol\":433:449  record[_address] */\n      dup1\n        /* \"contracts/12.sol\":440:448  _address */\n      dup7\n        /* \"contracts/12.sol\":433:449  record[_address] */\n      0xffffffffffffffffffffffffffffffffffffffff\n      and\n      0xffffffffffffffffffffffffffffffffffffffff\n      and\n      dup2\n      mstore\n      0x20\n      add\n      swap1\n      dup2\n      mstore\n      0x20\n      add\n      0x00\n      keccak256\n        /* \"contracts/12.sol\":433:479  record[_address] = student(_roll, _name, _age) */\n      0x00\n      dup3\n      add\n      mload\n      dup2\n      0x00\n      add\n      sstore\n      0x20\n      dup3\n      add\n      mload\n      dup2\n      0x01\n      add\n      swap1\n      dup1\n      mload\n      swap1\n      0x20\n      add\n      swap1\n      tag_33\n      swap3\n      swap2\n      swap1\n      tag_34\n      jump\t// in\n    tag_33:\n      pop\n      0x40\n      dup3\n      add\n      mload\n      dup2\n      0x02\n      add\n      sstore\n      swap1\n      pop\n      pop\n        /* \"contracts/12.sol\":338:487  function insert(address _address, uint _roll, string memory _name, uint _age) public{\r... */\n      pop\n      pop\n      pop\n      pop\n      jump\t// out\n    tag_34:\n      dup3\n      dup1\n      sload\n      tag_35\n      swap1\n      tag_21\n      jump\t// in\n    tag_35:\n      swap1\n      0x00\n      mstore\n      keccak256(0x00, 0x20)\n      swap1\n      0x1f\n      add\n      0x20\n      swap1\n      div\n      dup2\n      add\n      swap3\n      dup3\n      tag_37\n      jumpi\n      0x00\n      dup6\n      sstore\n      jump(tag_36)\n    tag_37:\n      dup3\n      0x1f\n      lt\n      tag_38\n      jumpi\n      dup1\n      mload\n      not(0xff)\n      and\n      dup4\n      dup1\n      add\n      or\n      dup6\n      sstore\n      jump(tag_36)\n    tag_38:\n      dup3\n      dup1\n      add\n      0x01\n      add\n      dup6\n      sstore\n      dup3\n      iszero\n      tag_36\n      jumpi\n      swap2\n      dup3\n      add\n    tag_39:\n      dup3\n      dup2\n      gt\n      iszero\n      tag_40\n      jumpi\n      dup3\n      mload\n      dup3\n      sstore\n      swap2\n      0x20\n      add\n      swap2\n      swap1\n      0x01\n      add\n      swap1\n      jump(tag_39)\n    tag_40:\n    tag_36:\n      pop\n      swap1\n      pop\n      tag_41\n      swap2\n      swap1\n      tag_42\n      jump\t// in\n    tag_41:\n      pop\n      swap1\n      jump\t// out\n    tag_42:\n    tag_43:\n      dup1\n      dup3\n      gt\n      iszero\n      tag_44\n      jumpi\n      0x00\n      dup2\n      0x00\n      swap1\n      sstore\n      pop\n      0x01\n      add\n      jump(tag_43)\n    tag_44:\n      pop\n      swap1\n      jump\t// out\n        /* \"#utility.yul\":7:419   */\n    tag_46:\n        /* \"#utility.yul\":85:90   */\n      0x00\n        /* \"#utility.yul\":110:176   */\n      tag_48\n        /* \"#utility.yul\":126:175   */\n      tag_49\n        /* \"#utility.yul\":168:174   */\n      dup5\n        /* \"#utility.yul\":126:175   */\n      tag_50\n      jump\t// in\n    tag_49:\n        /* \"#utility.yul\":110:176   */\n      tag_51\n      jump\t// in\n    tag_48:\n        /* \"#utility.yul\":101:176   */\n      swap1\n      pop\n        /* \"#utility.yul\":199:205   */\n      dup3\n        /* \"#utility.yul\":192:197   */\n      dup2\n        /* \"#utility.yul\":185:206   */\n      mstore\n        /* \"#utility.yul\":237:241   */\n      0x20\n        /* \"#utility.yul\":230:235   */\n      dup2\n        /* \"#utility.yul\":226:242   */\n      add\n        /* \"#utility.yul\":275:278   */\n      dup5\n        /* \"#utility.yul\":266:272   */\n      dup5\n        /* \"#utility.yul\":261:264   */\n      dup5\n        /* \"#utility.yul\":257:273   */\n      add\n        /* \"#utility.yul\":254:279   */\n      gt\n        /* \"#utility.yul\":251:363   */\n      iszero\n      tag_52\n      jumpi\n        /* \"#utility.yul\":282:361   */\n      tag_53\n      tag_54\n      jump\t// in\n    tag_53:\n        /* \"#utility.yul\":251:363   */\n    tag_52:\n        /* \"#utility.yul\":372:413   */\n      tag_55\n        /* \"#utility.yul\":406:412   */\n      dup5\n        /* \"#utility.yul\":401:404   */\n      dup3\n        /* \"#utility.yul\":396:399   */\n      dup6\n        /* \"#utility.yul\":372:413   */\n      tag_56\n      jump\t// in\n    tag_55:\n        /* \"#utility.yul\":91:419   */\n      pop\n        /* \"#utility.yul\":7:419   */\n      swap4\n      swap3\n      pop\n      pop\n      pop\n      jump\t// out\n        /* \"#utility.yul\":425:564   */\n    tag_57:\n        /* \"#utility.yul\":471:476   */\n      0x00\n        /* \"#utility.yul\":509:515   */\n      dup2\n        /* \"#utility.yul\":496:516   */\n      calldataload\n        /* \"#utility.yul\":487:516   */\n      swap1\n      pop\n        /* \"#utility.yul\":525:558   */\n      tag_59\n        /* \"#utility.yul\":552:557   */\n      dup2\n        /* \"#utility.yul\":525:558   */\n      tag_60\n      jump\t// in\n    tag_59:\n        /* \"#utility.yul\":425:564   */\n      swap3\n      swap2\n      pop\n      pop\n      jump\t// out\n        /* \"#utility.yul\":584:924   */\n    tag_61:\n        /* \"#utility.yul\":640:645   */\n      0x00\n        /* \"#utility.yul\":689:692   */\n      dup3\n        /* \"#utility.yul\":682:686   */\n      0x1f\n        /* \"#utility.yul\":674:680   */\n      dup4\n        /* \"#utility.yul\":670:687   */\n      add\n        /* \"#utility.yul\":666:693   */\n      slt\n        /* \"#utility.yul\":656:778   */\n      tag_63\n      jumpi\n        /* \"#utility.yul\":697:776   */\n      tag_64\n      tag_65\n      jump\t// in\n    tag_64:\n        /* \"#utility.yul\":656:778   */\n    tag_63:\n        /* \"#utility.yul\":814:820   */\n      dup2\n        /* \"#utility.yul\":801:821   */\n      calldataload\n        /* \"#utility.yul\":839:918   */\n      tag_66\n        /* \"#utility.yul\":914:917   */\n      dup5\n        /* \"#utility.yul\":906:912   */\n      dup3\n        /* \"#utility.yul\":899:903   */\n      0x20\n        /* \"#utility.yul\":891:897   */\n      dup7\n        /* \"#utility.yul\":887:904   */\n      add\n        /* \"#utility.yul\":839:918   */\n      tag_46\n      jump\t// in\n    tag_66:\n        /* \"#utility.yul\":830:918   */\n      swap2\n      pop\n        /* \"#utility.yul\":646:924   */\n      pop\n        /* \"#utility.yul\":584:924   */\n      swap3\n      swap2\n      pop\n      pop\n      jump\t// out\n        /* \"#utility.yul\":930:1069   */\n    tag_67:\n        /* \"#utility.yul\":976:981   */\n      0x00\n        /* \"#utility.yul\":1014:1020   */\n      dup2\n        /* \"#utility.yul\":1001:1021   */\n      calldataload\n        /* \"#utility.yul\":992:1021   */\n      swap1\n      pop\n        /* \"#utility.yul\":1030:1063   */\n      tag_69\n        /* \"#utility.yul\":1057:1062   */\n      dup2\n        /* \"#utility.yul\":1030:1063   */\n      tag_70\n      jump\t// in\n    tag_69:\n        /* \"#utility.yul\":930:1069   */\n      swap3\n      swap2\n      pop\n      pop\n      jump\t// out\n        /* \"#utility.yul\":1075:1404   */\n    tag_8:\n        /* \"#utility.yul\":1134:1140   */\n      0x00\n        /* \"#utility.yul\":1183:1185   */\n      0x20\n        /* \"#utility.yul\":1171:1180   */\n      dup3\n        /* \"#utility.yul\":1162:1169   */\n      dup5\n        /* \"#utility.yul\":1158:1181   */\n      sub\n        /* \"#utility.yul\":1154:1186   */\n      slt\n        /* \"#utility.yul\":1151:1270   */\n      iszero\n      tag_72\n      jumpi\n        /* \"#utility.yul\":1189:1268   */\n      tag_73\n      tag_74\n      jump\t// in\n    tag_73:\n        /* \"#utility.yul\":1151:1270   */\n    tag_72:\n        /* \"#utility.yul\":1309:1310   */\n      0x00\n        /* \"#utility.yul\":1334:1387   */\n      tag_75\n        /* \"#utility.yul\":1379:1386   */\n      dup5\n        /* \"#utility.yul\":1370:1376   */\n      dup3\n        /* \"#utility.yul\":1359:1368   */\n      dup6\n        /* \"#utility.yul\":1355:1377   */\n      add\n        /* \"#utility.yul\":1334:1387   */\n      tag_57\n      jump\t// in\n    tag_75:\n        /* \"#utility.yul\":1324:1387   */\n      swap2\n      pop\n        /* \"#utility.yul\":1280:1397   */\n      pop\n        /* \"#utility.yul\":1075:1404   */\n      swap3\n      swap2\n      pop\n      pop\n      jump\t// out\n        /* \"#utility.yul\":1410:2355   */\n    tag_18:\n        /* \"#utility.yul\":1506:1512   */\n      0x00\n        /* \"#utility.yul\":1514:1520   */\n      dup1\n        /* \"#utility.yul\":1522:1528   */\n      0x00\n        /* \"#utility.yul\":1530:1536   */\n      dup1\n        /* \"#utility.yul\":1579:1582   */\n      0x80\n        /* \"#utility.yul\":1567:1576   */\n      dup6\n        /* \"#utility.yul\":1558:1565   */\n      dup8\n        /* \"#utility.yul\":1554:1577   */\n      sub\n        /* \"#utility.yul\":1550:1583   */\n      slt\n        /* \"#utility.yul\":1547:1667   */\n      iszero\n      tag_77\n      jumpi\n        /* \"#utility.yul\":1586:1665   */\n      tag_78\n      tag_74\n      jump\t// in\n    tag_78:\n        /* \"#utility.yul\":1547:1667   */\n    tag_77:\n        /* \"#utility.yul\":1706:1707   */\n      0x00\n        /* \"#utility.yul\":1731:1784   */\n      tag_79\n        /* \"#utility.yul\":1776:1783   */\n      dup8\n        /* \"#utility.yul\":1767:1773   */\n      dup3\n        /* \"#utility.yul\":1756:1765   */\n      dup9\n        /* \"#utility.yul\":1752:1774   */\n      add\n        /* \"#utility.yul\":1731:1784   */\n      tag_57\n      jump\t// in\n    tag_79:\n        /* \"#utility.yul\":1721:1784   */\n      swap5\n      pop\n        /* \"#utility.yul\":1677:1794   */\n      pop\n        /* \"#utility.yul\":1833:1835   */\n      0x20\n        /* \"#utility.yul\":1859:1912   */\n      tag_80\n        /* \"#utility.yul\":1904:1911   */\n      dup8\n        /* \"#utility.yul\":1895:1901   */\n      dup3\n        /* \"#utility.yul\":1884:1893   */\n      dup9\n        /* \"#utility.yul\":1880:1902   */\n      add\n        /* \"#utility.yul\":1859:1912   */\n      tag_67\n      jump\t// in\n    tag_80:\n        /* \"#utility.yul\":1849:1912   */\n      swap4\n      pop\n        /* \"#utility.yul\":1804:1922   */\n      pop\n        /* \"#utility.yul\":1989:1991   */\n      0x40\n        /* \"#utility.yul\":1978:1987   */\n      dup6\n        /* \"#utility.yul\":1974:1992   */\n      add\n        /* \"#utility.yul\":1961:1993   */\n      calldataload\n        /* \"#utility.yul\":2020:2038   */\n      0xffffffffffffffff\n        /* \"#utility.yul\":2012:2018   */\n      dup2\n        /* \"#utility.yul\":2009:2039   */\n      gt\n        /* \"#utility.yul\":2006:2123   */\n      iszero\n      tag_81\n      jumpi\n        /* \"#utility.yul\":2042:2121   */\n      tag_82\n      tag_83\n      jump\t// in\n    tag_82:\n        /* \"#utility.yul\":2006:2123   */\n    tag_81:\n        /* \"#utility.yul\":2147:2210   */\n      tag_84\n        /* \"#utility.yul\":2202:2209   */\n      dup8\n        /* \"#utility.yul\":2193:2199   */\n      dup3\n        /* \"#utility.yul\":2182:2191   */\n      dup9\n        /* \"#utility.yul\":2178:2200   */\n      add\n        /* \"#utility.yul\":2147:2210   */\n      tag_61\n      jump\t// in\n    tag_84:\n        /* \"#utility.yul\":2137:2210   */\n      swap3\n      pop\n        /* \"#utility.yul\":1932:2220   */\n      pop\n        /* \"#utility.yul\":2259:2261   */\n      0x60\n        /* \"#utility.yul\":2285:2338   */\n      tag_85\n        /* \"#utility.yul\":2330:2337   */\n      dup8\n        /* \"#utility.yul\":2321:2327   */\n      dup3\n        /* \"#utility.yul\":2310:2319   */\n      dup9\n        /* \"#utility.yul\":2306:2328   */\n      add\n        /* \"#utility.yul\":2285:2338   */\n      tag_67\n      jump\t// in\n    tag_85:\n        /* \"#utility.yul\":2275:2338   */\n      swap2\n      pop\n        /* \"#utility.yul\":2230:2348   */\n      pop\n        /* \"#utility.yul\":1410:2355   */\n      swap3\n      swap6\n      swap2\n      swap5\n      pop\n      swap3\n      pop\n      jump\t// out\n        /* \"#utility.yul\":2361:2725   */\n    tag_86:\n        /* \"#utility.yul\":2449:2452   */\n      0x00\n        /* \"#utility.yul\":2477:2516   */\n      tag_88\n        /* \"#utility.yul\":2510:2515   */\n      dup3\n        /* \"#utility.yul\":2477:2516   */\n      tag_89\n      jump\t// in\n    tag_88:\n        /* \"#utility.yul\":2532:2603   */\n      tag_90\n        /* \"#utility.yul\":2596:2602   */\n      dup2\n        /* \"#utility.yul\":2591:2594   */\n      dup6\n        /* \"#utility.yul\":2532:2603   */\n      tag_91\n      jump\t// in\n    tag_90:\n        /* \"#utility.yul\":2525:2603   */\n      swap4\n      pop\n        /* \"#utility.yul\":2612:2664   */\n      tag_92\n        /* \"#utility.yul\":2657:2663   */\n      dup2\n        /* \"#utility.yul\":2652:2655   */\n      dup6\n        /* \"#utility.yul\":2645:2649   */\n      0x20\n        /* \"#utility.yul\":2638:2643   */\n      dup7\n        /* \"#utility.yul\":2634:2650   */\n      add\n        /* \"#utility.yul\":2612:2664   */\n      tag_93\n      jump\t// in\n    tag_92:\n        /* \"#utility.yul\":2689:2718   */\n      tag_94\n        /* \"#utility.yul\":2711:2717   */\n      dup2\n        /* \"#utility.yul\":2689:2718   */\n      tag_95\n      jump\t// in\n    tag_94:\n        /* \"#utility.yul\":2684:2687   */\n      dup5\n        /* \"#utility.yul\":2680:2719   */\n      add\n        /* \"#utility.yul\":2673:2719   */\n      swap2\n      pop\n        /* \"#utility.yul\":2453:2725   */\n      pop\n        /* \"#utility.yul\":2361:2725   */\n      swap3\n      swap2\n      pop\n      pop\n      jump\t// out\n        /* \"#utility.yul\":2731:2849   */\n    tag_96:\n        /* \"#utility.yul\":2818:2842   */\n      tag_98\n        /* \"#utility.yul\":2836:2841   */\n      dup2\n        /* \"#utility.yul\":2818:2842   */\n      tag_99\n      jump\t// in\n    tag_98:\n        /* \"#utility.yul\":2813:2816   */\n      dup3\n        /* \"#utility.yul\":2806:2843   */\n      mstore\n        /* \"#utility.yul\":2731:2849   */\n      pop\n      pop\n      jump\t// out\n        /* \"#utility.yul\":2855:3388   */\n    tag_11:\n        /* \"#utility.yul\":3024:3028   */\n      0x00\n        /* \"#utility.yul\":3062:3064   */\n      0x60\n        /* \"#utility.yul\":3051:3060   */\n      dup3\n        /* \"#utility.yul\":3047:3065   */\n      add\n        /* \"#utility.yul\":3039:3065   */\n      swap1\n      pop\n        /* \"#utility.yul\":3075:3146   */\n      tag_101\n        /* \"#utility.yul\":3143:3144   */\n      0x00\n        /* \"#utility.yul\":3132:3141   */\n      dup4\n        /* \"#utility.yul\":3128:3145   */\n      add\n        /* \"#utility.yul\":3119:3125   */\n      dup7\n        /* \"#utility.yul\":3075:3146   */\n      tag_96\n      jump\t// in\n    tag_101:\n        /* \"#utility.yul\":3193:3202   */\n      dup2\n        /* \"#utility.yul\":3187:3191   */\n      dup2\n        /* \"#utility.yul\":3183:3203   */\n      sub\n        /* \"#utility.yul\":3178:3180   */\n      0x20\n        /* \"#utility.yul\":3167:3176   */\n      dup4\n        /* \"#utility.yul\":3163:3181   */\n      add\n        /* \"#utility.yul\":3156:3204   */\n      mstore\n        /* \"#utility.yul\":3221:3299   */\n      tag_102\n        /* \"#utility.yul\":3294:3298   */\n      dup2\n        /* \"#utility.yul\":3285:3291   */\n      dup6\n        /* \"#utility.yul\":3221:3299   */\n      tag_86\n      jump\t// in\n    tag_102:\n        /* \"#utility.yul\":3213:3299   */\n      swap1\n      pop\n        /* \"#utility.yul\":3309:3381   */\n      tag_103\n        /* \"#utility.yul\":3377:3379   */\n      0x40\n        /* \"#utility.yul\":3366:3375   */\n      dup4\n        /* \"#utility.yul\":3362:3380   */\n      add\n        /* \"#utility.yul\":3353:3359   */\n      dup5\n        /* \"#utility.yul\":3309:3381   */\n      tag_96\n      jump\t// in\n    tag_103:\n        /* \"#utility.yul\":2855:3388   */\n      swap5\n      swap4\n      pop\n      pop\n      pop\n      pop\n      jump\t// out\n        /* \"#utility.yul\":3394:3523   */\n    tag_51:\n        /* \"#utility.yul\":3428:3434   */\n      0x00\n        /* \"#utility.yul\":3455:3475   */\n      tag_105\n      tag_106\n      jump\t// in\n    tag_105:\n        /* \"#utility.yul\":3445:3475   */\n      swap1\n      pop\n        /* \"#utility.yul\":3484:3517   */\n      tag_107\n        /* \"#utility.yul\":3512:3516   */\n      dup3\n        /* \"#utility.yul\":3504:3510   */\n      dup3\n        /* \"#utility.yul\":3484:3517   */\n      tag_108\n      jump\t// in\n    tag_107:\n        /* \"#utility.yul\":3394:3523   */\n      swap2\n      swap1\n      pop\n      jump\t// out\n        /* \"#utility.yul\":3529:3604   */\n    tag_106:\n        /* \"#utility.yul\":3562:3568   */\n      0x00\n        /* \"#utility.yul\":3595:3597   */\n      0x40\n        /* \"#utility.yul\":3589:3598   */\n      mload\n        /* \"#utility.yul\":3579:3598   */\n      swap1\n      pop\n        /* \"#utility.yul\":3529:3604   */\n      swap1\n      jump\t// out\n        /* \"#utility.yul\":3610:3918   */\n    tag_50:\n        /* \"#utility.yul\":3672:3676   */\n      0x00\n        /* \"#utility.yul\":3762:3780   */\n      0xffffffffffffffff\n        /* \"#utility.yul\":3754:3760   */\n      dup3\n        /* \"#utility.yul\":3751:3781   */\n      gt\n        /* \"#utility.yul\":3748:3804   */\n      iszero\n      tag_111\n      jumpi\n        /* \"#utility.yul\":3784:3802   */\n      tag_112\n      tag_113\n      jump\t// in\n    tag_112:\n        /* \"#utility.yul\":3748:3804   */\n    tag_111:\n        /* \"#utility.yul\":3822:3851   */\n      tag_114\n        /* \"#utility.yul\":3844:3850   */\n      dup3\n        /* \"#utility.yul\":3822:3851   */\n      tag_95\n      jump\t// in\n    tag_114:\n        /* \"#utility.yul\":3814:3851   */\n      swap1\n      pop\n        /* \"#utility.yul\":3906:3910   */\n      0x20\n        /* \"#utility.yul\":3900:3904   */\n      dup2\n        /* \"#utility.yul\":3896:3911   */\n      add\n        /* \"#utility.yul\":3888:3911   */\n      swap1\n      pop\n        /* \"#utility.yul\":3610:3918   */\n      swap2\n      swap1\n      pop\n      jump\t// out\n        /* \"#utility.yul\":3924:4023   */\n    tag_89:\n        /* \"#utility.yul\":3976:3982   */\n      0x00\n        /* \"#utility.yul\":4010:4015   */\n      dup2\n        /* \"#utility.yul\":4004:4016   */\n      mload\n        /* \"#utility.yul\":3994:4016   */\n      swap1\n      pop\n        /* \"#utility.yul\":3924:4023   */\n      swap2\n      swap1\n      pop\n      jump\t// out\n        /* \"#utility.yul\":4029:4198   */\n    tag_91:\n        /* \"#utility.yul\":4113:4124   */\n      0x00\n        /* \"#utility.yul\":4147:4153   */\n      dup3\n        /* \"#utility.yul\":4142:4145   */\n      dup3\n        /* \"#utility.yul\":4135:4154   */\n      mstore\n        /* \"#utility.yul\":4187:4191   */\n      0x20\n        /* \"#utility.yul\":4182:4185   */\n      dup3\n        /* \"#utility.yul\":4178:4192   */\n      add\n        /* \"#utility.yul\":4163:4192   */\n      swap1\n      pop\n        /* \"#utility.yul\":4029:4198   */\n      swap3\n      swap2\n      pop\n      pop\n      jump\t// out\n        /* \"#utility.yul\":4204:4300   */\n    tag_117:\n        /* \"#utility.yul\":4241:4248   */\n      0x00\n        /* \"#utility.yul\":4270:4294   */\n      tag_119\n        /* \"#utility.yul\":4288:4293   */\n      dup3\n        /* \"#utility.yul\":4270:4294   */\n      tag_120\n      jump\t// in\n    tag_119:\n        /* \"#utility.yul\":4259:4294   */\n      swap1\n      pop\n        /* \"#utility.yul\":4204:4300   */\n      swap2\n      swap1\n      pop\n      jump\t// out\n        /* \"#utility.yul\":4306:4432   */\n    tag_120:\n        /* \"#utility.yul\":4343:4350   */\n      0x00\n        /* \"#utility.yul\":4383:4425   */\n      0xffffffffffffffffffffffffffffffffffffffff\n        /* \"#utility.yul\":4376:4381   */\n      dup3\n        /* \"#utility.yul\":4372:4426   */\n      and\n        /* \"#utility.yul\":4361:4426   */\n      swap1\n      pop\n        /* \"#utility.yul\":4306:4432   */\n      swap2\n      swap1\n      pop\n      jump\t// out\n        /* \"#utility.yul\":4438:4515   */\n    tag_99:\n        /* \"#utility.yul\":4475:4482   */\n      0x00\n        /* \"#utility.yul\":4504:4509   */\n      dup2\n        /* \"#utility.yul\":4493:4509   */\n      swap1\n      pop\n        /* \"#utility.yul\":4438:4515   */\n      swap2\n      swap1\n      pop\n      jump\t// out\n        /* \"#utility.yul\":4521:4675   */\n    tag_56:\n        /* \"#utility.yul\":4605:4611   */\n      dup3\n        /* \"#utility.yul\":4600:4603   */\n      dup2\n        /* \"#utility.yul\":4595:4598   */\n      dup4\n        /* \"#utility.yul\":4582:4612   */\n      calldatacopy\n        /* \"#utility.yul\":4667:4668   */\n      0x00\n        /* \"#utility.yul\":4658:4664   */\n      dup4\n        /* \"#utility.yul\":4653:4656   */\n      dup4\n        /* \"#utility.yul\":4649:4665   */\n      add\n        /* \"#utility.yul\":4642:4669   */\n      mstore\n        /* \"#utility.yul\":4521:4675   */\n      pop\n      pop\n      pop\n      jump\t// out\n        /* \"#utility.yul\":4681:4988   */\n    tag_93:\n        /* \"#utility.yul\":4749:4750   */\n      0x00\n        /* \"#utility.yul\":4759:4872   */\n    tag_125:\n        /* \"#utility.yul\":4773:4779   */\n      dup4\n        /* \"#utility.yul\":4770:4771   */\n      dup2\n        /* \"#utility.yul\":4767:4780   */\n      lt\n        /* \"#utility.yul\":4759:4872   */\n      iszero\n      tag_127\n      jumpi\n        /* \"#utility.yul\":4858:4859   */\n      dup1\n        /* \"#utility.yul\":4853:4856   */\n      dup3\n        /* \"#utility.yul\":4849:4860   */\n      add\n        /* \"#utility.yul\":4843:4861   */\n      mload\n        /* \"#utility.yul\":4839:4840   */\n      dup2\n        /* \"#utility.yul\":4834:4837   */\n      dup5\n        /* \"#utility.yul\":4830:4841   */\n      add\n        /* \"#utility.yul\":4823:4862   */\n      mstore\n        /* \"#utility.yul\":4795:4797   */\n      0x20\n        /* \"#utility.yul\":4792:4793   */\n      dup2\n        /* \"#utility.yul\":4788:4798   */\n      add\n        /* \"#utility.yul\":4783:4798   */\n      swap1\n      pop\n        /* \"#utility.yul\":4759:4872   */\n      jump(tag_125)\n    tag_127:\n        /* \"#utility.yul\":4890:4896   */\n      dup4\n        /* \"#utility.yul\":4887:4888   */\n      dup2\n        /* \"#utility.yul\":4884:4897   */\n      gt\n        /* \"#utility.yul\":4881:4982   */\n      iszero\n      tag_128\n      jumpi\n        /* \"#utility.yul\":4970:4971   */\n      0x00\n        /* \"#utility.yul\":4961:4967   */\n      dup5\n        /* \"#utility.yul\":4956:4959   */\n      dup5\n        /* \"#utility.yul\":4952:4968   */\n      add\n        /* \"#utility.yul\":4945:4972   */\n      mstore\n        /* \"#utility.yul\":4881:4982   */\n    tag_128:\n        /* \"#utility.yul\":4730:4988   */\n      pop\n        /* \"#utility.yul\":4681:4988   */\n      pop\n      pop\n      pop\n      jump\t// out\n        /* \"#utility.yul\":4994:5314   */\n    tag_21:\n        /* \"#utility.yul\":5038:5044   */\n      0x00\n        /* \"#utility.yul\":5075:5076   */\n      0x02\n        /* \"#utility.yul\":5069:5073   */\n      dup3\n        /* \"#utility.yul\":5065:5077   */\n      div\n        /* \"#utility.yul\":5055:5077   */\n      swap1\n      pop\n        /* \"#utility.yul\":5122:5123   */\n      0x01\n        /* \"#utility.yul\":5116:5120   */\n      dup3\n        /* \"#utility.yul\":5112:5124   */\n      and\n        /* \"#utility.yul\":5143:5161   */\n      dup1\n        /* \"#utility.yul\":5133:5214   */\n      tag_130\n      jumpi\n        /* \"#utility.yul\":5199:5203   */\n      0x7f\n        /* \"#utility.yul\":5191:5197   */\n      dup3\n        /* \"#utility.yul\":5187:5204   */\n      and\n        /* \"#utility.yul\":5177:5204   */\n      swap2\n      pop\n        /* \"#utility.yul\":5133:5214   */\n    tag_130:\n        /* \"#utility.yul\":5261:5263   */\n      0x20\n        /* \"#utility.yul\":5253:5259   */\n      dup3\n        /* \"#utility.yul\":5250:5264   */\n      lt\n        /* \"#utility.yul\":5230:5248   */\n      dup2\n        /* \"#utility.yul\":5227:5265   */\n      eq\n        /* \"#utility.yul\":5224:5308   */\n      iszero\n      tag_131\n      jumpi\n        /* \"#utility.yul\":5280:5298   */\n      tag_132\n      tag_133\n      jump\t// in\n    tag_132:\n        /* \"#utility.yul\":5224:5308   */\n    tag_131:\n        /* \"#utility.yul\":5045:5314   */\n      pop\n        /* \"#utility.yul\":4994:5314   */\n      swap2\n      swap1\n      pop\n      jump\t// out\n        /* \"#utility.yul\":5320:5601   */\n    tag_108:\n        /* \"#utility.yul\":5403:5430   */\n      tag_135\n        /* \"#utility.yul\":5425:5429   */\n      dup3\n        /* \"#utility.yul\":5403:5430   */\n      tag_95\n      jump\t// in\n    tag_135:\n        /* \"#utility.yul\":5395:5401   */\n      dup2\n        /* \"#utility.yul\":5391:5431   */\n      add\n        /* \"#utility.yul\":5533:5539   */\n      dup2\n        /* \"#utility.yul\":5521:5531   */\n      dup2\n        /* \"#utility.yul\":5518:5540   */\n      lt\n        /* \"#utility.yul\":5497:5515   */\n      0xffffffffffffffff\n        /* \"#utility.yul\":5485:5495   */\n      dup3\n        /* \"#utility.yul\":5482:5516   */\n      gt\n        /* \"#utility.yul\":5479:5541   */\n      or\n        /* \"#utility.yul\":5476:5564   */\n      iszero\n      tag_136\n      jumpi\n        /* \"#utility.yul\":5544:5562   */\n      tag_137\n      tag_113\n      jump\t// in\n    tag_137:\n        /* \"#utility.yul\":5476:5564   */\n    tag_136:\n        /* \"#utility.yul\":5584:5594   */\n      dup1\n        /* \"#utility.yul\":5580:5582   */\n      0x40\n        /* \"#utility.yul\":5573:5595   */\n      mstore\n        /* \"#utility.yul\":5363:5601   */\n      pop\n        /* \"#utility.yul\":5320:5601   */\n      pop\n      pop\n      jump\t// out\n        /* \"#utility.yul\":5607:5787   */\n    tag_133:\n        /* \"#utility.yul\":5655:5732   */\n      0x4e487b7100000000000000000000000000000000000000000000000000000000\n        /* \"#utility.yul\":5652:5653   */\n      0x00\n        /* \"#utility.yul\":5645:5733   */\n      mstore\n        /* \"#utility.yul\":5752:5756   */\n      0x22\n        /* \"#utility.yul\":5749:5750   */\n      0x04\n        /* \"#utility.yul\":5742:5757   */\n      mstore\n        /* \"#utility.yul\":5776:5780   */\n      0x24\n        /* \"#utility.yul\":5773:5774   */\n      0x00\n        /* \"#utility.yul\":5766:5781   */\n      revert\n        /* \"#utility.yul\":5793:5973   */\n    tag_113:\n        /* \"#utility.yul\":5841:5918   */\n      0x4e487b7100000000000000000000000000000000000000000000000000000000\n        /* \"#utility.yul\":5838:5839   */\n      0x00\n        /* \"#utility.yul\":5831:5919   */\n      mstore\n        /* \"#utility.yul\":5938:5942   */\n      0x41\n        /* \"#utility.yul\":5935:5936   */\n      0x04\n        /* \"#utility.yul\":5928:5943   */\n      mstore\n        /* \"#utility.yul\":5962:5966   */\n      0x24\n        /* \"#utility.yul\":5959:5960   */\n      0x00\n        /* \"#utility.yul\":5952:5967   */\n      revert\n        /* \"#utility.yul\":5979:6096   */\n    tag_65:\n        /* \"#utility.yul\":6088:6089   */\n      0x00\n        /* \"#utility.yul\":6085:6086   */\n      dup1\n        /* \"#utility.yul\":6078:6090   */\n      revert\n        /* \"#utility.yul\":6102:6219   */\n    tag_54:\n        /* \"#utility.yul\":6211:6212   */\n      0x00\n        /* \"#utility.yul\":6208:6209   */\n      dup1\n        /* \"#utility.yul\":6201:6213   */\n      revert\n        /* \"#utility.yul\":6225:6342   */\n    tag_83:\n        /* \"#utility.yul\":6334:6335   */\n      0x00\n        /* \"#utility.yul\":6331:6332   */\n      dup1\n        /* \"#utility.yul\":6324:6336   */\n      revert\n        /* \"#utility.yul\":6348:6465   */\n    tag_74:\n        /* \"#utility.yul\":6457:6458   */\n      0x00\n        /* \"#utility.yul\":6454:6455   */\n      dup1\n        /* \"#utility.yul\":6447:6459   */\n      revert\n        /* \"#utility.yul\":6471:6573   */\n    tag_95:\n        /* \"#utility.yul\":6512:6518   */\n      0x00\n        /* \"#utility.yul\":6563:6565   */\n      0x1f\n        /* \"#utility.yul\":6559:6566   */\n      not\n        /* \"#utility.yul\":6554:6556   */\n      0x1f\n        /* \"#utility.yul\":6547:6552   */\n      dup4\n        /* \"#utility.yul\":6543:6557   */\n      add\n        /* \"#utility.yul\":6539:6567   */\n      and\n        /* \"#utility.yul\":6529:6567   */\n      swap1\n      pop\n        /* \"#utility.yul\":6471:6573   */\n      swap2\n      swap1\n      pop\n      jump\t// out\n        /* \"#utility.yul\":6579:6701   */\n    tag_60:\n        /* \"#utility.yul\":6652:6676   */\n      tag_146\n        /* \"#utility.yul\":6670:6675   */\n      dup2\n        /* \"#utility.yul\":6652:6676   */\n      tag_117\n      jump\t// in\n    tag_146:\n        /* \"#utility.yul\":6645:6650   */\n      dup2\n        /* \"#utility.yul\":6642:6677   */\n      eq\n        /* \"#utility.yul\":6632:6695   */\n      tag_147\n      jumpi\n        /* \"#utility.yul\":6691:6692   */\n      0x00\n        /* \"#utility.yul\":6688:6689   */\n      dup1\n        /* \"#utility.yul\":6681:6693   */\n      revert\n        /* \"#utility.yul\":6632:6695   */\n    tag_147:\n        /* \"#utility.yul\":6579:6701   */\n      pop\n      jump\t// out\n        /* \"#utility.yul\":6707:6829   */\n    tag_70:\n        /* \"#utility.yul\":6780:6804   */\n      tag_149\n        /* \"#utility.yul\":6798:6803   */\n      dup2\n        /* \"#utility.yul\":6780:6804   */\n      tag_99\n      jump\t// in\n    tag_149:\n        /* \"#utility.yul\":6773:6778   */\n      dup2\n        /* \"#utility.yul\":6770:6805   */\n      eq\n        /* \"#utility.yul\":6760:6823   */\n      tag_150\n      jumpi\n        /* \"#utility.yul\":6819:6820   */\n      0x00\n        /* \"#utility.yul\":6816:6817   */\n      dup1\n        /* \"#utility.yul\":6809:6821   */\n      revert\n        /* \"#utility.yul\":6760:6823   */\n    tag_150:\n        /* \"#utility.yul\":6707:6829   */\n      pop\n      jump\t// out\n\n    auxdata: 0xa2646970667358221220b029cc92fcbcffe3644b642fea59aba269cfd8cccda114b5fd9a85ee5d6b9ef564736f6c63430008070033\n}\n",
				"bytecode": {
					"linkReferences": {},
					"object": "608060405234801561001057600080fd5b506107cd806100206000396000f3fe608060405234801561001057600080fd5b50600436106100415760003560e01c80633465d6d5146100465780636c5cf04814610078578063dad091df146100aa575b600080fd5b610060600480360381019061005b919061045d565b6100c6565b60405161006f93929190610555565b60405180910390f35b610092600480360381019061008d919061045d565b610178565b6040516100a193929190610555565b60405180910390f35b6100c460048036038101906100bf919061048a565b61028d565b005b60006020528060005260406000206000915090508060000154908060010180546100ef90610683565b80601f016020809104026020016040519081016040528092919081815260200182805461011b90610683565b80156101685780601f1061013d57610100808354040283529160200191610168565b820191906000526020600020905b81548152906001019060200180831161014b57829003601f168201915b5050505050908060020154905083565b600060606000806000808673ffffffffffffffffffffffffffffffffffffffff1673ffffffffffffffffffffffffffffffffffffffff168152602001908152602001600020604051806060016040529081600082015481526020016001820180546101e290610683565b80601f016020809104026020016040519081016040528092919081815260200182805461020e90610683565b801561025b5780601f106102305761010080835404028352916020019161025b565b820191906000526020600020905b81548152906001019060200180831161023e57829003601f168201915b505050505081526020016002820154815250509050806000015181602001518260400151935093509350509193909250565b6040518060600160405280848152602001838152602001828152506000808673ffffffffffffffffffffffffffffffffffffffff1673ffffffffffffffffffffffffffffffffffffffff16815260200190815260200160002060008201518160000155602082015181600101908051906020019061030c929190610320565b506040820151816002015590505050505050565b82805461032c90610683565b90600052602060002090601f01602090048101928261034e5760008555610395565b82601f1061036757805160ff1916838001178555610395565b82800160010185558215610395579182015b82811115610394578251825591602001919060010190610379565b5b5090506103a291906103a6565b5090565b5b808211156103bf5760008160009055506001016103a7565b5090565b60006103d66103d1846105b8565b610593565b9050828152602081018484840111156103f2576103f1610749565b5b6103fd848285610641565b509392505050565b60008135905061041481610769565b92915050565b600082601f83011261042f5761042e610744565b5b813561043f8482602086016103c3565b91505092915050565b60008135905061045781610780565b92915050565b60006020828403121561047357610472610753565b5b600061048184828501610405565b91505092915050565b600080600080608085870312156104a4576104a3610753565b5b60006104b287828801610405565b94505060206104c387828801610448565b935050604085013567ffffffffffffffff8111156104e4576104e361074e565b5b6104f08782880161041a565b925050606061050187828801610448565b91505092959194509250565b6000610518826105e9565b61052281856105f4565b9350610532818560208601610650565b61053b81610758565b840191505092915050565b61054f81610637565b82525050565b600060608201905061056a6000830186610546565b818103602083015261057c818561050d565b905061058b6040830184610546565b949350505050565b600061059d6105ae565b90506105a982826106b5565b919050565b6000604051905090565b600067ffffffffffffffff8211156105d3576105d2610715565b5b6105dc82610758565b9050602081019050919050565b600081519050919050565b600082825260208201905092915050565b600061061082610617565b9050919050565b600073ffffffffffffffffffffffffffffffffffffffff82169050919050565b6000819050919050565b82818337600083830152505050565b60005b8381101561066e578082015181840152602081019050610653565b8381111561067d576000848401525b50505050565b6000600282049050600182168061069b57607f821691505b602082108114156106af576106ae6106e6565b5b50919050565b6106be82610758565b810181811067ffffffffffffffff821117156106dd576106dc610715565b5b80604052505050565b7f4e487b7100000000000000000000000000000000000000000000000000000000600052602260045260246000fd5b7f4e487b7100000000000000000000000000000000000000000000000000000000600052604160045260246000fd5b600080fd5b600080fd5b600080fd5b600080fd5b6000601f19601f8301169050919050565b61077281610605565b811461077d57600080fd5b50565b61078981610637565b811461079457600080fd5b5056fea2646970667358221220b029cc92fcbcffe3644b642fea59aba269cfd8cccda114b5fd9a85ee5d6b9ef564736f6c63430008070033",
					"opcodes": "PUSH1 0x80 PUSH1 0x40 MSTORE CALLVALUE DUP1 ISZERO PUSH2 0x10 JUMPI PUSH1 0x0 DUP1 REVERT JUMPDEST POP PUSH2 0x7CD DUP1 PUSH2 0x20 PUSH1 0x0 CODECOPY PUSH1 0x0 RETURN INVALID PUSH1 0x80 PUSH1 0x40 MSTORE CALLVALUE DUP1 ISZERO PUSH2 0x10 JUMPI PUSH1 0x0 DUP1 REVERT JUMPDEST POP PUSH1 0x4 CALLDATASIZE LT PUSH2 0x41 JUMPI PUSH1 0x0 CALLDATALOAD PUSH1 0xE0 SHR DUP1 PUSH4 0x3465D6D5 EQ PUSH2 0x46 JUMPI DUP1 PUSH4 0x6C5CF048 EQ PUSH2 0x78 JUMPI DUP1 PUSH4 0xDAD091DF EQ PUSH2 0xAA JUMPI JUMPDEST PUSH1 0x0 DUP1 REVERT JUMPDEST PUSH2 0x60 PUSH1 0x4 DUP1 CALLDATASIZE SUB DUP2 ADD SWAP1 PUSH2 0x5B SWAP2 SWAP1 PUSH2 0x45D JUMP JUMPDEST PUSH2 0xC6 JUMP JUMPDEST PUSH1 0x40 MLOAD PUSH2 0x6F SWAP4 SWAP3 SWAP2 SWAP1 PUSH2 0x555 JUMP JUMPDEST PUSH1 0x40 MLOAD DUP1 SWAP2 SUB SWAP1 RETURN JUMPDEST PUSH2 0x92 PUSH1 0x4 DUP1 CALLDATASIZE SUB DUP2 ADD SWAP1 PUSH2 0x8D SWAP2 SWAP1 PUSH2 0x45D JUMP JUMPDEST PUSH2 0x178 JUMP JUMPDEST PUSH1 0x40 MLOAD PUSH2 0xA1 SWAP4 SWAP3 SWAP2 SWAP1 PUSH2 0x555 JUMP JUMPDEST PUSH1 0x40 MLOAD DUP1 SWAP2 SUB SWAP1 RETURN JUMPDEST PUSH2 0xC4 PUSH1 0x4 DUP1 CALLDATASIZE SUB DUP2 ADD SWAP1 PUSH2 0xBF SWAP2 SWAP1 PUSH2 0x48A JUMP JUMPDEST PUSH2 0x28D JUMP JUMPDEST STOP JUMPDEST PUSH1 0x0 PUSH1 0x20 MSTORE DUP1 PUSH1 0x0 MSTORE PUSH1 0x40 PUSH1 0x0 KECCAK256 PUSH1 0x0 SWAP2 POP SWAP1 POP DUP1 PUSH1 0x0 ADD SLOAD SWAP1 DUP1 PUSH1 0x1 ADD DUP1 SLOAD PUSH2 0xEF SWAP1 PUSH2 0x683 JUMP JUMPDEST DUP1 PUSH1 0x1F ADD PUSH1 0x20 DUP1 SWAP2 DIV MUL PUSH1 0x20 ADD PUSH1 0x40 MLOAD SWAP1 DUP2 ADD PUSH1 0x40 MSTORE DUP1 SWAP3 SWAP2 SWAP1 DUP2 DUP2 MSTORE PUSH1 0x20 ADD DUP3 DUP1 SLOAD PUSH2 0x11B SWAP1 PUSH2 0x683 JUMP JUMPDEST DUP1 ISZERO PUSH2 0x168 JUMPI DUP1 PUSH1 0x1F LT PUSH2 0x13D JUMPI PUSH2 0x100 DUP1 DUP4 SLOAD DIV MUL DUP4 MSTORE SWAP2 PUSH1 0x20 ADD SWAP2 PUSH2 0x168 JUMP JUMPDEST DUP3 ADD SWAP2 SWAP1 PUSH1 0x0 MSTORE PUSH1 0x20 PUSH1 0x0 KECCAK256 SWAP1 JUMPDEST DUP2 SLOAD DUP2 MSTORE SWAP1 PUSH1 0x1 ADD SWAP1 PUSH1 0x20 ADD DUP1 DUP4 GT PUSH2 0x14B JUMPI DUP3 SWAP1 SUB PUSH1 0x1F AND DUP3 ADD SWAP2 JUMPDEST POP POP POP POP POP SWAP1 DUP1 PUSH1 0x2 ADD SLOAD SWAP1 POP DUP4 JUMP JUMPDEST PUSH1 0x0 PUSH1 0x60 PUSH1 0x0 DUP1 PUSH1 0x0 DUP1 DUP7 PUSH20 0xFFFFFFFFFFFFFFFFFFFFFFFFFFFFFFFFFFFFFFFF AND PUSH20 0xFFFFFFFFFFFFFFFFFFFFFFFFFFFFFFFFFFFFFFFF AND DUP2 MSTORE PUSH1 0x20 ADD SWAP1 DUP2 MSTORE PUSH1 0x20 ADD PUSH1 0x0 KECCAK256 PUSH1 0x40 MLOAD DUP1 PUSH1 0x60 ADD PUSH1 0x40 MSTORE SWAP1 DUP2 PUSH1 0x0 DUP3 ADD SLOAD DUP2 MSTORE PUSH1 0x20 ADD PUSH1 0x1 DUP3 ADD DUP1 SLOAD PUSH2 0x1E2 SWAP1 PUSH2 0x683 JUMP JUMPDEST DUP1 PUSH1 0x1F ADD PUSH1 0x20 DUP1 SWAP2 DIV MUL PUSH1 0x20 ADD PUSH1 0x40 MLOAD SWAP1 DUP2 ADD PUSH1 0x40 MSTORE DUP1 SWAP3 SWAP2 SWAP1 DUP2 DUP2 MSTORE PUSH1 0x20 ADD DUP3 DUP1 SLOAD PUSH2 0x20E SWAP1 PUSH2 0x683 JUMP JUMPDEST DUP1 ISZERO PUSH2 0x25B JUMPI DUP1 PUSH1 0x1F LT PUSH2 0x230 JUMPI PUSH2 0x100 DUP1 DUP4 SLOAD DIV MUL DUP4 MSTORE SWAP2 PUSH1 0x20 ADD SWAP2 PUSH2 0x25B JUMP JUMPDEST DUP3 ADD SWAP2 SWAP1 PUSH1 0x0 MSTORE PUSH1 0x20 PUSH1 0x0 KECCAK256 SWAP1 JUMPDEST DUP2 SLOAD DUP2 MSTORE SWAP1 PUSH1 0x1 ADD SWAP1 PUSH1 0x20 ADD DUP1 DUP4 GT PUSH2 0x23E JUMPI DUP3 SWAP1 SUB PUSH1 0x1F AND DUP3 ADD SWAP2 JUMPDEST POP POP POP POP POP DUP2 MSTORE PUSH1 0x20 ADD PUSH1 0x2 DUP3 ADD SLOAD DUP2 MSTORE POP POP SWAP1 POP DUP1 PUSH1 0x0 ADD MLOAD DUP2 PUSH1 0x20 ADD MLOAD DUP3 PUSH1 0x40 ADD MLOAD SWAP4 POP SWAP4 POP SWAP4 POP POP SWAP2 SWAP4 SWAP1 SWAP3 POP JUMP JUMPDEST PUSH1 0x40 MLOAD DUP1 PUSH1 0x60 ADD PUSH1 0x40 MSTORE DUP1 DUP5 DUP2 MSTORE PUSH1 0x20 ADD DUP4 DUP2 MSTORE PUSH1 0x20 ADD DUP3 DUP2 MSTORE POP PUSH1 0x0 DUP1 DUP7 PUSH20 0xFFFFFFFFFFFFFFFFFFFFFFFFFFFFFFFFFFFFFFFF AND PUSH20 0xFFFFFFFFFFFFFFFFFFFFFFFFFFFFFFFFFFFFFFFF AND DUP2 MSTORE PUSH1 0x20 ADD SWAP1 DUP2 MSTORE PUSH1 0x20 ADD PUSH1 0x0 KECCAK256 PUSH1 0x0 DUP3 ADD MLOAD DUP2 PUSH1 0x0 ADD SSTORE PUSH1 0x20 DUP3 ADD MLOAD DUP2 PUSH1 0x1 ADD SWAP1 DUP1 MLOAD SWAP1 PUSH1 0x20 ADD SWAP1 PUSH2 0x30C SWAP3 SWAP2 SWAP1 PUSH2 0x320 JUMP JUMPDEST POP PUSH1 0x40 DUP3 ADD MLOAD DUP2 PUSH1 0x2 ADD SSTORE SWAP1 POP POP POP POP POP POP JUMP JUMPDEST DUP3 DUP1 SLOAD PUSH2 0x32C SWAP1 PUSH2 0x683 JUMP JUMPDEST SWAP1 PUSH1 0x0 MSTORE PUSH1 0x20 PUSH1 0x0 KECCAK256 SWAP1 PUSH1 0x1F ADD PUSH1 0x20 SWAP1 DIV DUP2 ADD SWAP3 DUP3 PUSH2 0x34E JUMPI PUSH1 0x0 DUP6 SSTORE PUSH2 0x395 JUMP JUMPDEST DUP3 PUSH1 0x1F LT PUSH2 0x367 JUMPI DUP1 MLOAD PUSH1 0xFF NOT AND DUP4 DUP1 ADD OR DUP6 SSTORE PUSH2 0x395 JUMP JUMPDEST DUP3 DUP1 ADD PUSH1 0x1 ADD DUP6 SSTORE DUP3 ISZERO PUSH2 0x395 JUMPI SWAP2 DUP3 ADD JUMPDEST DUP3 DUP2 GT ISZERO PUSH2 0x394 JUMPI DUP3 MLOAD DUP3 SSTORE SWAP2 PUSH1 0x20 ADD SWAP2 SWAP1 PUSH1 0x1 ADD SWAP1 PUSH2 0x379 JUMP JUMPDEST JUMPDEST POP SWAP1 POP PUSH2 0x3A2 SWAP2 SWAP1 PUSH2 0x3A6 JUMP JUMPDEST POP SWAP1 JUMP JUMPDEST JUMPDEST DUP1 DUP3 GT ISZERO PUSH2 0x3BF JUMPI PUSH1 0x0 DUP2 PUSH1 0x0 SWAP1 SSTORE POP PUSH1 0x1 ADD PUSH2 0x3A7 JUMP JUMPDEST POP SWAP1 JUMP JUMPDEST PUSH1 0x0 PUSH2 0x3D6 PUSH2 0x3D1 DUP5 PUSH2 0x5B8 JUMP JUMPDEST PUSH2 0x593 JUMP JUMPDEST SWAP1 POP DUP3 DUP2 MSTORE PUSH1 0x20 DUP2 ADD DUP5 DUP5 DUP5 ADD GT ISZERO PUSH2 0x3F2 JUMPI PUSH2 0x3F1 PUSH2 0x749 JUMP JUMPDEST JUMPDEST PUSH2 0x3FD DUP5 DUP3 DUP6 PUSH2 0x641 JUMP JUMPDEST POP SWAP4 SWAP3 POP POP POP JUMP JUMPDEST PUSH1 0x0 DUP2 CALLDATALOAD SWAP1 POP PUSH2 0x414 DUP2 PUSH2 0x769 JUMP JUMPDEST SWAP3 SWAP2 POP POP JUMP JUMPDEST PUSH1 0x0 DUP3 PUSH1 0x1F DUP4 ADD SLT PUSH2 0x42F JUMPI PUSH2 0x42E PUSH2 0x744 JUMP JUMPDEST JUMPDEST DUP2 CALLDATALOAD PUSH2 0x43F DUP5 DUP3 PUSH1 0x20 DUP7 ADD PUSH2 0x3C3 JUMP JUMPDEST SWAP2 POP POP SWAP3 SWAP2 POP POP JUMP JUMPDEST PUSH1 0x0 DUP2 CALLDATALOAD SWAP1 POP PUSH2 0x457 DUP2 PUSH2 0x780 JUMP JUMPDEST SWAP3 SWAP2 POP POP JUMP JUMPDEST PUSH1 0x0 PUSH1 0x20 DUP3 DUP5 SUB SLT ISZERO PUSH2 0x473 JUMPI PUSH2 0x472 PUSH2 0x753 JUMP JUMPDEST JUMPDEST PUSH1 0x0 PUSH2 0x481 DUP5 DUP3 DUP6 ADD PUSH2 0x405 JUMP JUMPDEST SWAP2 POP POP SWAP3 SWAP2 POP POP JUMP JUMPDEST PUSH1 0x0 DUP1 PUSH1 0x0 DUP1 PUSH1 0x80 DUP6 DUP8 SUB SLT ISZERO PUSH2 0x4A4 JUMPI PUSH2 0x4A3 PUSH2 0x753 JUMP JUMPDEST JUMPDEST PUSH1 0x0 PUSH2 0x4B2 DUP8 DUP3 DUP9 ADD PUSH2 0x405 JUMP JUMPDEST SWAP5 POP POP PUSH1 0x20 PUSH2 0x4C3 DUP8 DUP3 DUP9 ADD PUSH2 0x448 JUMP JUMPDEST SWAP4 POP POP PUSH1 0x40 DUP6 ADD CALLDATALOAD PUSH8 0xFFFFFFFFFFFFFFFF DUP2 GT ISZERO PUSH2 0x4E4 JUMPI PUSH2 0x4E3 PUSH2 0x74E JUMP JUMPDEST JUMPDEST PUSH2 0x4F0 DUP8 DUP3 DUP9 ADD PUSH2 0x41A JUMP JUMPDEST SWAP3 POP POP PUSH1 0x60 PUSH2 0x501 DUP8 DUP3 DUP9 ADD PUSH2 0x448 JUMP JUMPDEST SWAP2 POP POP SWAP3 SWAP6 SWAP2 SWAP5 POP SWAP3 POP JUMP JUMPDEST PUSH1 0x0 PUSH2 0x518 DUP3 PUSH2 0x5E9 JUMP JUMPDEST PUSH2 0x522 DUP2 DUP6 PUSH2 0x5F4 JUMP JUMPDEST SWAP4 POP PUSH2 0x532 DUP2 DUP6 PUSH1 0x20 DUP7 ADD PUSH2 0x650 JUMP JUMPDEST PUSH2 0x53B DUP2 PUSH2 0x758 JUMP JUMPDEST DUP5 ADD SWAP2 POP POP SWAP3 SWAP2 POP POP JUMP JUMPDEST PUSH2 0x54F DUP2 PUSH2 0x637 JUMP JUMPDEST DUP3 MSTORE POP POP JUMP JUMPDEST PUSH1 0x0 PUSH1 0x60 DUP3 ADD SWAP1 POP PUSH2 0x56A PUSH1 0x0 DUP4 ADD DUP7 PUSH2 0x546 JUMP JUMPDEST DUP2 DUP2 SUB PUSH1 0x20 DUP4 ADD MSTORE PUSH2 0x57C DUP2 DUP6 PUSH2 0x50D JUMP JUMPDEST SWAP1 POP PUSH2 0x58B PUSH1 0x40 DUP4 ADD DUP5 PUSH2 0x546 JUMP JUMPDEST SWAP5 SWAP4 POP POP POP POP JUMP JUMPDEST PUSH1 0x0 PUSH2 0x59D PUSH2 0x5AE JUMP JUMPDEST SWAP1 POP PUSH2 0x5A9 DUP3 DUP3 PUSH2 0x6B5 JUMP JUMPDEST SWAP2 SWAP1 POP JUMP JUMPDEST PUSH1 0x0 PUSH1 0x40 MLOAD SWAP1 POP SWAP1 JUMP JUMPDEST PUSH1 0x0 PUSH8 0xFFFFFFFFFFFFFFFF DUP3 GT ISZERO PUSH2 0x5D3 JUMPI PUSH2 0x5D2 PUSH2 0x715 JUMP JUMPDEST JUMPDEST PUSH2 0x5DC DUP3 PUSH2 0x758 JUMP JUMPDEST SWAP1 POP PUSH1 0x20 DUP2 ADD SWAP1 POP SWAP2 SWAP1 POP JUMP JUMPDEST PUSH1 0x0 DUP2 MLOAD SWAP1 POP SWAP2 SWAP1 POP JUMP JUMPDEST PUSH1 0x0 DUP3 DUP3 MSTORE PUSH1 0x20 DUP3 ADD SWAP1 POP SWAP3 SWAP2 POP POP JUMP JUMPDEST PUSH1 0x0 PUSH2 0x610 DUP3 PUSH2 0x617 JUMP JUMPDEST SWAP1 POP SWAP2 SWAP1 POP JUMP JUMPDEST PUSH1 0x0 PUSH20 0xFFFFFFFFFFFFFFFFFFFFFFFFFFFFFFFFFFFFFFFF DUP3 AND SWAP1 POP SWAP2 SWAP1 POP JUMP JUMPDEST PUSH1 0x0 DUP2 SWAP1 POP SWAP2 SWAP1 POP JUMP JUMPDEST DUP3 DUP2 DUP4 CALLDATACOPY PUSH1 0x0 DUP4 DUP4 ADD MSTORE POP POP POP JUMP JUMPDEST PUSH1 0x0 JUMPDEST DUP4 DUP2 LT ISZERO PUSH2 0x66E JUMPI DUP1 DUP3 ADD MLOAD DUP2 DUP5 ADD MSTORE PUSH1 0x20 DUP2 ADD SWAP1 POP PUSH2 0x653 JUMP JUMPDEST DUP4 DUP2 GT ISZERO PUSH2 0x67D JUMPI PUSH1 0x0 DUP5 DUP5 ADD MSTORE JUMPDEST POP POP POP POP JUMP JUMPDEST PUSH1 0x0 PUSH1 0x2 DUP3 DIV SWAP1 POP PUSH1 0x1 DUP3 AND DUP1 PUSH2 0x69B JUMPI PUSH1 0x7F DUP3 AND SWAP2 POP JUMPDEST PUSH1 0x20 DUP3 LT DUP2 EQ ISZERO PUSH2 0x6AF JUMPI PUSH2 0x6AE PUSH2 0x6E6 JUMP JUMPDEST JUMPDEST POP SWAP2 SWAP1 POP JUMP JUMPDEST PUSH2 0x6BE DUP3 PUSH2 0x758 JUMP JUMPDEST DUP2 ADD DUP2 DUP2 LT PUSH8 0xFFFFFFFFFFFFFFFF DUP3 GT OR ISZERO PUSH2 0x6DD JUMPI PUSH2 0x6DC PUSH2 0x715 JUMP JUMPDEST JUMPDEST DUP1 PUSH1 0x40 MSTORE POP POP POP JUMP JUMPDEST PUSH32 0x4E487B7100000000000000000000000000000000000000000000000000000000 PUSH1 0x0 MSTORE PUSH1 0x22 PUSH1 0x4 MSTORE PUSH1 0x24 PUSH1 0x0 REVERT JUMPDEST PUSH32 0x4E487B7100000000000000000000000000000000000000000000000000000000 PUSH1 0x0 MSTORE PUSH1 0x41 PUSH1 0x4 MSTORE PUSH1 0x24 PUSH1 0x0 REVERT JUMPDEST PUSH1 0x0 DUP1 REVERT JUMPDEST PUSH1 0x0 DUP1 REVERT JUMPDEST PUSH1 0x0 DUP1 REVERT JUMPDEST PUSH1 0x0 DUP1 REVERT JUMPDEST PUSH1 0x0 PUSH1 0x1F NOT PUSH1 0x1F DUP4 ADD AND SWAP1 POP SWAP2 SWAP1 POP JUMP JUMPDEST PUSH2 0x772 DUP2 PUSH2 0x605 JUMP JUMPDEST DUP2 EQ PUSH2 0x77D JUMPI PUSH1 0x0 DUP1 REVERT JUMPDEST POP JUMP JUMPDEST PUSH2 0x789 DUP2 PUSH2 0x637 JUMP JUMPDEST DUP2 EQ PUSH2 0x794 JUMPI PUSH1 0x0 DUP1 REVERT JUMPDEST POP JUMP INVALID LOG2 PUSH5 0x6970667358 0x22 SLT KECCAK256 0xB0 0x29 0xCC SWAP3 0xFC 0xBC SELFDESTRUCT 0xE3 PUSH5 0x4B642FEA59 0xAB LOG2 PUSH10 0xCFD8CCCDA114B5FD9A85 0xEE 0x5D PUSH12 0x9EF564736F6C634300080700 CALLER "
				},
				"gasEstimates": {
					"creation": {
						"codeDepositCost": "399400",
						"executionCost": "436",
						"totalCost": "399836"
					},
					"external": {
						"giveData(address)": "infinite",
						"insert(address,uint256,string,uint256)": "infinite",
						"record(address)": "infinite"
					}
				},
				"methodIdentifiers": {
					"giveData(address)": "6c5cf048",
					"insert(address,uint256,string,uint256)": "dad091df",
					"record(address)": "3465d6d5"
				}
			},
			"storageLayout": {
				"storage": [
					{
						"astId": 13,
						"contract": "contracts/12.sol:Q12",
						"label": "record",
						"offset": 0,
						"slot": "0",
						"type": "t_mapping(t_address,t_struct(student)8_storage)"
					}
				],
				"types": {
					"t_address": {
						"encoding": "inplace",
						"label": "address",
						"numberOfBytes": "20"
					},
					"t_mapping(t_address,t_struct(student)8_storage)": {
						"encoding": "mapping",
						"key": "t_address",
						"label": "mapping(address => struct Q12.student)",
						"numberOfBytes": "32",
						"value": "t_struct(student)8_storage"
					},
					"t_string_storage": {
						"encoding": "bytes",
						"label": "string",
						"numberOfBytes": "32"
					},
					"t_struct(student)8_storage": {
						"encoding": "inplace",
						"label": "struct Q12.student",
						"members": [
							{
								"astId": 3,
								"contract": "contracts/12.sol:Q12",
								"label": "roll",
								"offset": 0,
								"slot": "0",
								"type": "t_uint256"
							},
							{
								"astId": 5,
								"contract": "contracts/12.sol:Q12",
								"label": "name",
								"offset": 0,
								"slot": "1",
								"type": "t_string_storage"
							},
							{
								"astId": 7,
								"contract": "contracts/12.sol:Q12",
								"label": "age",
								"offset": 0,
								"slot": "2",
								"type": "t_uint256"
							}
						],
						"numberOfBytes": "96"
					},
					"t_uint256": {
						"encoding": "inplace",
						"label": "uint256",
						"numberOfBytes": "32"
					}
				}
			},
			"userdoc": {
				"kind": "user",
				"methods": {},
				"version": 1
			}
		}
	}
}