{
	"contracts/7.sol": {
		"Q6": {
			"abi": [
				{
					"inputs": [
						{
							"internalType": "uint256",
							"name": "",
							"type": "uint256"
						}
					],
					"name": "array",
					"outputs": [
						{
							"internalType": "int256",
							"name": "",
							"type": "int256"
						}
					],
					"stateMutability": "view",
					"type": "function"
				},
				{
					"inputs": [
						{
							"internalType": "int256[]",
							"name": "_array",
							"type": "int256[]"
						}
					],
					"name": "setArray",
					"outputs": [],
					"stateMutability": "nonpayable",
					"type": "function"
				},
				{
					"inputs": [],
					"name": "sum",
					"outputs": [
						{
							"internalType": "int256",
							"name": "",
							"type": "int256"
						}
					],
					"stateMutability": "view",
					"type": "function"
				}
			],
			"devdoc": {
				"kind": "dev",
				"methods": {},
				"version": 1
			},
			"evm": {
				"assembly": "    /* \"contracts/7.sol\":112:427  contract Q6{\r... */\n  mstore(0x40, 0x80)\n  callvalue\n  dup1\n  iszero\n  tag_1\n  jumpi\n  0x00\n  dup1\n  revert\ntag_1:\n  pop\n  dataSize(sub_0)\n  dup1\n  dataOffset(sub_0)\n  0x00\n  codecopy\n  0x00\n  return\nstop\n\nsub_0: assembly {\n        /* \"contracts/7.sol\":112:427  contract Q6{\r... */\n      mstore(0x40, 0x80)\n      callvalue\n      dup1\n      iszero\n      tag_1\n      jumpi\n      0x00\n      dup1\n      revert\n    tag_1:\n      pop\n      jumpi(tag_2, lt(calldatasize, 0x04))\n      shr(0xe0, calldataload(0x00))\n      dup1\n      0x034fd9c4\n      eq\n      tag_3\n      jumpi\n      dup1\n      0x38d94193\n      eq\n      tag_4\n      jumpi\n      dup1\n      0x853255cc\n      eq\n      tag_5\n      jumpi\n    tag_2:\n      0x00\n      dup1\n      revert\n        /* \"contracts/7.sol\":157:234  function setArray(int[] memory _array)public{\r... */\n    tag_3:\n      tag_6\n      0x04\n      dup1\n      calldatasize\n      sub\n      dup2\n      add\n      swap1\n      tag_7\n      swap2\n      swap1\n      tag_8\n      jump\t// in\n    tag_7:\n      tag_9\n      jump\t// in\n    tag_6:\n      stop\n        /* \"contracts/7.sol\":130:148  int[] public array */\n    tag_4:\n      tag_10\n      0x04\n      dup1\n      calldatasize\n      sub\n      dup2\n      add\n      swap1\n      tag_11\n      swap2\n      swap1\n      tag_12\n      jump\t// in\n    tag_11:\n      tag_13\n      jump\t// in\n    tag_10:\n      mload(0x40)\n      tag_14\n      swap2\n      swap1\n      tag_15\n      jump\t// in\n    tag_14:\n      mload(0x40)\n      dup1\n      swap2\n      sub\n      swap1\n      return\n        /* \"contracts/7.sol\":242:422  function sum()public view returns(int){\r... */\n    tag_5:\n      tag_16\n      tag_17\n      jump\t// in\n    tag_16:\n      mload(0x40)\n      tag_18\n      swap2\n      swap1\n      tag_15\n      jump\t// in\n    tag_18:\n      mload(0x40)\n      dup1\n      swap2\n      sub\n      swap1\n      return\n        /* \"contracts/7.sol\":157:234  function setArray(int[] memory _array)public{\r... */\n    tag_9:\n        /* \"contracts/7.sol\":220:226  _array */\n      dup1\n        /* \"contracts/7.sol\":212:217  array */\n      0x00\n        /* \"contracts/7.sol\":212:226  array = _array */\n      swap1\n      dup1\n      mload\n      swap1\n      0x20\n      add\n      swap1\n      tag_20\n      swap3\n      swap2\n      swap1\n      tag_21\n      jump\t// in\n    tag_20:\n      pop\n        /* \"contracts/7.sol\":157:234  function setArray(int[] memory _array)public{\r... */\n      pop\n      jump\t// out\n        /* \"contracts/7.sol\":130:148  int[] public array */\n    tag_13:\n      0x00\n      dup2\n      dup2\n      sload\n      dup2\n      lt\n      tag_22\n      jumpi\n      0x00\n      dup1\n      revert\n    tag_22:\n      swap1\n      0x00\n      mstore\n      keccak256(0x00, 0x20)\n      add\n      0x00\n      swap2\n      pop\n      swap1\n      pop\n      sload\n      dup2\n      jump\t// out\n        /* \"contracts/7.sol\":242:422  function sum()public view returns(int){\r... */\n    tag_17:\n        /* \"contracts/7.sol\":276:279  int */\n      0x00\n        /* \"contracts/7.sol\":291:298  int add */\n      dup1\n        /* \"contracts/7.sol\":313:319  uint i */\n      0x00\n        /* \"contracts/7.sol\":309:392  for(uint i=0;i<array.length;i++){\r... */\n    tag_25:\n        /* \"contracts/7.sol\":324:329  array */\n      0x00\n        /* \"contracts/7.sol\":324:336  array.length */\n      dup1\n      sload\n      swap1\n      pop\n        /* \"contracts/7.sol\":322:323  i */\n      dup2\n        /* \"contracts/7.sol\":322:336  i<array.length */\n      lt\n        /* \"contracts/7.sol\":309:392  for(uint i=0;i<array.length;i++){\r... */\n      iszero\n      tag_26\n      jumpi\n        /* \"contracts/7.sol\":370:375  array */\n      0x00\n        /* \"contracts/7.sol\":376:377  i */\n      dup2\n        /* \"contracts/7.sol\":370:378  array[i] */\n      dup2\n      sload\n      dup2\n      lt\n      tag_28\n      jumpi\n      tag_29\n      tag_30\n      jump\t// in\n    tag_29:\n    tag_28:\n      swap1\n      0x00\n      mstore\n      keccak256(0x00, 0x20)\n      add\n      sload\n        /* \"contracts/7.sol\":364:367  add */\n      dup3\n        /* \"contracts/7.sol\":364:378  add + array[i] */\n      tag_32\n      swap2\n      swap1\n      tag_33\n      jump\t// in\n    tag_32:\n        /* \"contracts/7.sol\":358:378  add = add + array[i] */\n      swap2\n      pop\n        /* \"contracts/7.sol\":337:340  i++ */\n      dup1\n      dup1\n      tag_34\n      swap1\n      tag_35\n      jump\t// in\n    tag_34:\n      swap2\n      pop\n      pop\n        /* \"contracts/7.sol\":309:392  for(uint i=0;i<array.length;i++){\r... */\n      jump(tag_25)\n    tag_26:\n      pop\n        /* \"contracts/7.sol\":411:414  add */\n      dup1\n        /* \"contracts/7.sol\":404:414  return add */\n      swap2\n      pop\n      pop\n        /* \"contracts/7.sol\":242:422  function sum()public view returns(int){\r... */\n      swap1\n      jump\t// out\n    tag_21:\n      dup3\n      dup1\n      sload\n      dup3\n      dup3\n      sstore\n      swap1\n      0x00\n      mstore\n      keccak256(0x00, 0x20)\n      swap1\n      dup2\n      add\n      swap3\n      dup3\n      iszero\n      tag_36\n      jumpi\n      swap2\n      0x20\n      mul\n      dup3\n      add\n    tag_37:\n      dup3\n      dup2\n      gt\n      iszero\n      tag_38\n      jumpi\n      dup3\n      mload\n      dup3\n      sstore\n      swap2\n      0x20\n      add\n      swap2\n      swap1\n      0x01\n      add\n      swap1\n      jump(tag_37)\n    tag_38:\n    tag_36:\n      pop\n      swap1\n      pop\n      tag_39\n      swap2\n      swap1\n      tag_40\n      jump\t// in\n    tag_39:\n      pop\n      swap1\n      jump\t// out\n    tag_40:\n    tag_41:\n      dup1\n      dup3\n      gt\n      iszero\n      tag_42\n      jumpi\n      0x00\n      dup2\n      0x00\n      swap1\n      sstore\n      pop\n      0x01\n      add\n      jump(tag_41)\n    tag_42:\n      pop\n      swap1\n      jump\t// out\n        /* \"#utility.yul\":23:742   */\n    tag_44:\n        /* \"#utility.yul\":118:123   */\n      0x00\n        /* \"#utility.yul\":143:223   */\n      tag_46\n        /* \"#utility.yul\":159:222   */\n      tag_47\n        /* \"#utility.yul\":215:221   */\n      dup5\n        /* \"#utility.yul\":159:222   */\n      tag_48\n      jump\t// in\n    tag_47:\n        /* \"#utility.yul\":143:223   */\n      tag_49\n      jump\t// in\n    tag_46:\n        /* \"#utility.yul\":134:223   */\n      swap1\n      pop\n        /* \"#utility.yul\":243:248   */\n      dup1\n        /* \"#utility.yul\":272:278   */\n      dup4\n        /* \"#utility.yul\":265:270   */\n      dup3\n        /* \"#utility.yul\":258:279   */\n      mstore\n        /* \"#utility.yul\":306:310   */\n      0x20\n        /* \"#utility.yul\":299:304   */\n      dup3\n        /* \"#utility.yul\":295:311   */\n      add\n        /* \"#utility.yul\":288:311   */\n      swap1\n      pop\n        /* \"#utility.yul\":332:338   */\n      dup3\n        /* \"#utility.yul\":382:385   */\n      dup6\n        /* \"#utility.yul\":374:378   */\n      0x20\n        /* \"#utility.yul\":366:372   */\n      dup7\n        /* \"#utility.yul\":362:379   */\n      mul\n        /* \"#utility.yul\":357:360   */\n      dup3\n        /* \"#utility.yul\":353:380   */\n      add\n        /* \"#utility.yul\":350:386   */\n      gt\n        /* \"#utility.yul\":347:490   */\n      iszero\n      tag_50\n      jumpi\n        /* \"#utility.yul\":401:480   */\n      tag_51\n      tag_52\n      jump\t// in\n    tag_51:\n        /* \"#utility.yul\":347:490   */\n    tag_50:\n        /* \"#utility.yul\":514:515   */\n      0x00\n        /* \"#utility.yul\":499:736   */\n    tag_53:\n        /* \"#utility.yul\":524:530   */\n      dup6\n        /* \"#utility.yul\":521:522   */\n      dup2\n        /* \"#utility.yul\":518:531   */\n      lt\n        /* \"#utility.yul\":499:736   */\n      iszero\n      tag_55\n      jumpi\n        /* \"#utility.yul\":592:595   */\n      dup2\n        /* \"#utility.yul\":621:657   */\n      tag_56\n        /* \"#utility.yul\":653:656   */\n      dup9\n        /* \"#utility.yul\":641:651   */\n      dup3\n        /* \"#utility.yul\":621:657   */\n      tag_57\n      jump\t// in\n    tag_56:\n        /* \"#utility.yul\":616:619   */\n      dup5\n        /* \"#utility.yul\":609:658   */\n      mstore\n        /* \"#utility.yul\":687:691   */\n      0x20\n        /* \"#utility.yul\":682:685   */\n      dup5\n        /* \"#utility.yul\":678:692   */\n      add\n        /* \"#utility.yul\":671:692   */\n      swap4\n      pop\n        /* \"#utility.yul\":721:725   */\n      0x20\n        /* \"#utility.yul\":716:719   */\n      dup4\n        /* \"#utility.yul\":712:726   */\n      add\n        /* \"#utility.yul\":705:726   */\n      swap3\n      pop\n        /* \"#utility.yul\":559:736   */\n      pop\n        /* \"#utility.yul\":546:547   */\n      0x01\n        /* \"#utility.yul\":543:544   */\n      dup2\n        /* \"#utility.yul\":539:548   */\n      add\n        /* \"#utility.yul\":534:548   */\n      swap1\n      pop\n        /* \"#utility.yul\":499:736   */\n      jump(tag_53)\n    tag_55:\n        /* \"#utility.yul\":503:517   */\n      pop\n        /* \"#utility.yul\":124:742   */\n      pop\n      pop\n        /* \"#utility.yul\":23:742   */\n      swap4\n      swap3\n      pop\n      pop\n      pop\n      jump\t// out\n        /* \"#utility.yul\":764:1132   */\n    tag_58:\n        /* \"#utility.yul\":834:839   */\n      0x00\n        /* \"#utility.yul\":883:886   */\n      dup3\n        /* \"#utility.yul\":876:880   */\n      0x1f\n        /* \"#utility.yul\":868:874   */\n      dup4\n        /* \"#utility.yul\":864:881   */\n      add\n        /* \"#utility.yul\":860:887   */\n      slt\n        /* \"#utility.yul\":850:972   */\n      tag_60\n      jumpi\n        /* \"#utility.yul\":891:970   */\n      tag_61\n      tag_62\n      jump\t// in\n    tag_61:\n        /* \"#utility.yul\":850:972   */\n    tag_60:\n        /* \"#utility.yul\":1008:1014   */\n      dup2\n        /* \"#utility.yul\":995:1015   */\n      calldataload\n        /* \"#utility.yul\":1033:1126   */\n      tag_63\n        /* \"#utility.yul\":1122:1125   */\n      dup5\n        /* \"#utility.yul\":1114:1120   */\n      dup3\n        /* \"#utility.yul\":1107:1111   */\n      0x20\n        /* \"#utility.yul\":1099:1105   */\n      dup7\n        /* \"#utility.yul\":1095:1112   */\n      add\n        /* \"#utility.yul\":1033:1126   */\n      tag_44\n      jump\t// in\n    tag_63:\n        /* \"#utility.yul\":1024:1126   */\n      swap2\n      pop\n        /* \"#utility.yul\":840:1132   */\n      pop\n        /* \"#utility.yul\":764:1132   */\n      swap3\n      swap2\n      pop\n      pop\n      jump\t// out\n        /* \"#utility.yul\":1138:1275   */\n    tag_57:\n        /* \"#utility.yul\":1183:1188   */\n      0x00\n        /* \"#utility.yul\":1221:1227   */\n      dup2\n        /* \"#utility.yul\":1208:1228   */\n      calldataload\n        /* \"#utility.yul\":1199:1228   */\n      swap1\n      pop\n        /* \"#utility.yul\":1237:1269   */\n      tag_65\n        /* \"#utility.yul\":1263:1268   */\n      dup2\n        /* \"#utility.yul\":1237:1269   */\n      tag_66\n      jump\t// in\n    tag_65:\n        /* \"#utility.yul\":1138:1275   */\n      swap3\n      swap2\n      pop\n      pop\n      jump\t// out\n        /* \"#utility.yul\":1281:1420   */\n    tag_67:\n        /* \"#utility.yul\":1327:1332   */\n      0x00\n        /* \"#utility.yul\":1365:1371   */\n      dup2\n        /* \"#utility.yul\":1352:1372   */\n      calldataload\n        /* \"#utility.yul\":1343:1372   */\n      swap1\n      pop\n        /* \"#utility.yul\":1381:1414   */\n      tag_69\n        /* \"#utility.yul\":1408:1413   */\n      dup2\n        /* \"#utility.yul\":1381:1414   */\n      tag_70\n      jump\t// in\n    tag_69:\n        /* \"#utility.yul\":1281:1420   */\n      swap3\n      swap2\n      pop\n      pop\n      jump\t// out\n        /* \"#utility.yul\":1426:1963   */\n    tag_8:\n        /* \"#utility.yul\":1509:1515   */\n      0x00\n        /* \"#utility.yul\":1558:1560   */\n      0x20\n        /* \"#utility.yul\":1546:1555   */\n      dup3\n        /* \"#utility.yul\":1537:1544   */\n      dup5\n        /* \"#utility.yul\":1533:1556   */\n      sub\n        /* \"#utility.yul\":1529:1561   */\n      slt\n        /* \"#utility.yul\":1526:1645   */\n      iszero\n      tag_72\n      jumpi\n        /* \"#utility.yul\":1564:1643   */\n      tag_73\n      tag_74\n      jump\t// in\n    tag_73:\n        /* \"#utility.yul\":1526:1645   */\n    tag_72:\n        /* \"#utility.yul\":1712:1713   */\n      0x00\n        /* \"#utility.yul\":1701:1710   */\n      dup3\n        /* \"#utility.yul\":1697:1714   */\n      add\n        /* \"#utility.yul\":1684:1715   */\n      calldataload\n        /* \"#utility.yul\":1742:1760   */\n      0xffffffffffffffff\n        /* \"#utility.yul\":1734:1740   */\n      dup2\n        /* \"#utility.yul\":1731:1761   */\n      gt\n        /* \"#utility.yul\":1728:1845   */\n      iszero\n      tag_75\n      jumpi\n        /* \"#utility.yul\":1764:1843   */\n      tag_76\n      tag_77\n      jump\t// in\n    tag_76:\n        /* \"#utility.yul\":1728:1845   */\n    tag_75:\n        /* \"#utility.yul\":1869:1946   */\n      tag_78\n        /* \"#utility.yul\":1938:1945   */\n      dup5\n        /* \"#utility.yul\":1929:1935   */\n      dup3\n        /* \"#utility.yul\":1918:1927   */\n      dup6\n        /* \"#utility.yul\":1914:1936   */\n      add\n        /* \"#utility.yul\":1869:1946   */\n      tag_58\n      jump\t// in\n    tag_78:\n        /* \"#utility.yul\":1859:1946   */\n      swap2\n      pop\n        /* \"#utility.yul\":1655:1956   */\n      pop\n        /* \"#utility.yul\":1426:1963   */\n      swap3\n      swap2\n      pop\n      pop\n      jump\t// out\n        /* \"#utility.yul\":1969:2298   */\n    tag_12:\n        /* \"#utility.yul\":2028:2034   */\n      0x00\n        /* \"#utility.yul\":2077:2079   */\n      0x20\n        /* \"#utility.yul\":2065:2074   */\n      dup3\n        /* \"#utility.yul\":2056:2063   */\n      dup5\n        /* \"#utility.yul\":2052:2075   */\n      sub\n        /* \"#utility.yul\":2048:2080   */\n      slt\n        /* \"#utility.yul\":2045:2164   */\n      iszero\n      tag_80\n      jumpi\n        /* \"#utility.yul\":2083:2162   */\n      tag_81\n      tag_74\n      jump\t// in\n    tag_81:\n        /* \"#utility.yul\":2045:2164   */\n    tag_80:\n        /* \"#utility.yul\":2203:2204   */\n      0x00\n        /* \"#utility.yul\":2228:2281   */\n      tag_82\n        /* \"#utility.yul\":2273:2280   */\n      dup5\n        /* \"#utility.yul\":2264:2270   */\n      dup3\n        /* \"#utility.yul\":2253:2262   */\n      dup6\n        /* \"#utility.yul\":2249:2271   */\n      add\n        /* \"#utility.yul\":2228:2281   */\n      tag_67\n      jump\t// in\n    tag_82:\n        /* \"#utility.yul\":2218:2281   */\n      swap2\n      pop\n        /* \"#utility.yul\":2174:2291   */\n      pop\n        /* \"#utility.yul\":1969:2298   */\n      swap3\n      swap2\n      pop\n      pop\n      jump\t// out\n        /* \"#utility.yul\":2304:2419   */\n    tag_83:\n        /* \"#utility.yul\":2389:2412   */\n      tag_85\n        /* \"#utility.yul\":2406:2411   */\n      dup2\n        /* \"#utility.yul\":2389:2412   */\n      tag_86\n      jump\t// in\n    tag_85:\n        /* \"#utility.yul\":2384:2387   */\n      dup3\n        /* \"#utility.yul\":2377:2413   */\n      mstore\n        /* \"#utility.yul\":2304:2419   */\n      pop\n      pop\n      jump\t// out\n        /* \"#utility.yul\":2425:2643   */\n    tag_15:\n        /* \"#utility.yul\":2516:2520   */\n      0x00\n        /* \"#utility.yul\":2554:2556   */\n      0x20\n        /* \"#utility.yul\":2543:2552   */\n      dup3\n        /* \"#utility.yul\":2539:2557   */\n      add\n        /* \"#utility.yul\":2531:2557   */\n      swap1\n      pop\n        /* \"#utility.yul\":2567:2636   */\n      tag_88\n        /* \"#utility.yul\":2633:2634   */\n      0x00\n        /* \"#utility.yul\":2622:2631   */\n      dup4\n        /* \"#utility.yul\":2618:2635   */\n      add\n        /* \"#utility.yul\":2609:2615   */\n      dup5\n        /* \"#utility.yul\":2567:2636   */\n      tag_83\n      jump\t// in\n    tag_88:\n        /* \"#utility.yul\":2425:2643   */\n      swap3\n      swap2\n      pop\n      pop\n      jump\t// out\n        /* \"#utility.yul\":2649:2778   */\n    tag_49:\n        /* \"#utility.yul\":2683:2689   */\n      0x00\n        /* \"#utility.yul\":2710:2730   */\n      tag_90\n      tag_91\n      jump\t// in\n    tag_90:\n        /* \"#utility.yul\":2700:2730   */\n      swap1\n      pop\n        /* \"#utility.yul\":2739:2772   */\n      tag_92\n        /* \"#utility.yul\":2767:2771   */\n      dup3\n        /* \"#utility.yul\":2759:2765   */\n      dup3\n        /* \"#utility.yul\":2739:2772   */\n      tag_93\n      jump\t// in\n    tag_92:\n        /* \"#utility.yul\":2649:2778   */\n      swap2\n      swap1\n      pop\n      jump\t// out\n        /* \"#utility.yul\":2784:2859   */\n    tag_91:\n        /* \"#utility.yul\":2817:2823   */\n      0x00\n        /* \"#utility.yul\":2850:2852   */\n      0x40\n        /* \"#utility.yul\":2844:2853   */\n      mload\n        /* \"#utility.yul\":2834:2853   */\n      swap1\n      pop\n        /* \"#utility.yul\":2784:2859   */\n      swap1\n      jump\t// out\n        /* \"#utility.yul\":2865:3175   */\n    tag_48:\n        /* \"#utility.yul\":2941:2945   */\n      0x00\n        /* \"#utility.yul\":3031:3049   */\n      0xffffffffffffffff\n        /* \"#utility.yul\":3023:3029   */\n      dup3\n        /* \"#utility.yul\":3020:3050   */\n      gt\n        /* \"#utility.yul\":3017:3073   */\n      iszero\n      tag_96\n      jumpi\n        /* \"#utility.yul\":3053:3071   */\n      tag_97\n      tag_98\n      jump\t// in\n    tag_97:\n        /* \"#utility.yul\":3017:3073   */\n    tag_96:\n        /* \"#utility.yul\":3103:3107   */\n      0x20\n        /* \"#utility.yul\":3095:3101   */\n      dup3\n        /* \"#utility.yul\":3091:3108   */\n      mul\n        /* \"#utility.yul\":3083:3108   */\n      swap1\n      pop\n        /* \"#utility.yul\":3163:3167   */\n      0x20\n        /* \"#utility.yul\":3157:3161   */\n      dup2\n        /* \"#utility.yul\":3153:3168   */\n      add\n        /* \"#utility.yul\":3145:3168   */\n      swap1\n      pop\n        /* \"#utility.yul\":2865:3175   */\n      swap2\n      swap1\n      pop\n      jump\t// out\n        /* \"#utility.yul\":3181:3706   */\n    tag_33:\n        /* \"#utility.yul\":3220:3223   */\n      0x00\n        /* \"#utility.yul\":3239:3258   */\n      tag_100\n        /* \"#utility.yul\":3256:3257   */\n      dup3\n        /* \"#utility.yul\":3239:3258   */\n      tag_86\n      jump\t// in\n    tag_100:\n        /* \"#utility.yul\":3234:3258   */\n      swap2\n      pop\n        /* \"#utility.yul\":3272:3291   */\n      tag_101\n        /* \"#utility.yul\":3289:3290   */\n      dup4\n        /* \"#utility.yul\":3272:3291   */\n      tag_86\n      jump\t// in\n    tag_101:\n        /* \"#utility.yul\":3267:3291   */\n      swap3\n      pop\n        /* \"#utility.yul\":3460:3461   */\n      dup2\n        /* \"#utility.yul\":3392:3458   */\n      0x7fffffffffffffffffffffffffffffffffffffffffffffffffffffffffffffff\n        /* \"#utility.yul\":3388:3462   */\n      sub\n        /* \"#utility.yul\":3385:3386   */\n      dup4\n        /* \"#utility.yul\":3381:3463   */\n      sgt\n        /* \"#utility.yul\":3376:3377   */\n      0x00\n        /* \"#utility.yul\":3373:3374   */\n      dup4\n        /* \"#utility.yul\":3369:3378   */\n      slt\n        /* \"#utility.yul\":3362:3379   */\n      iszero\n        /* \"#utility.yul\":3358:3464   */\n      and\n        /* \"#utility.yul\":3355:3487   */\n      iszero\n      tag_102\n      jumpi\n        /* \"#utility.yul\":3467:3485   */\n      tag_103\n      tag_104\n      jump\t// in\n    tag_103:\n        /* \"#utility.yul\":3355:3487   */\n    tag_102:\n        /* \"#utility.yul\":3647:3648   */\n      dup2\n        /* \"#utility.yul\":3579:3645   */\n      0x8000000000000000000000000000000000000000000000000000000000000000\n        /* \"#utility.yul\":3575:3649   */\n      sub\n        /* \"#utility.yul\":3572:3573   */\n      dup4\n        /* \"#utility.yul\":3568:3650   */\n      slt\n        /* \"#utility.yul\":3564:3565   */\n      0x00\n        /* \"#utility.yul\":3561:3562   */\n      dup4\n        /* \"#utility.yul\":3557:3566   */\n      slt\n        /* \"#utility.yul\":3553:3651   */\n      and\n        /* \"#utility.yul\":3550:3674   */\n      iszero\n      tag_105\n      jumpi\n        /* \"#utility.yul\":3654:3672   */\n      tag_106\n      tag_104\n      jump\t// in\n    tag_106:\n        /* \"#utility.yul\":3550:3674   */\n    tag_105:\n        /* \"#utility.yul\":3698:3699   */\n      dup3\n        /* \"#utility.yul\":3695:3696   */\n      dup3\n        /* \"#utility.yul\":3691:3700   */\n      add\n        /* \"#utility.yul\":3684:3700   */\n      swap1\n      pop\n        /* \"#utility.yul\":3181:3706   */\n      swap3\n      swap2\n      pop\n      pop\n      jump\t// out\n        /* \"#utility.yul\":3712:3788   */\n    tag_86:\n        /* \"#utility.yul\":3748:3755   */\n      0x00\n        /* \"#utility.yul\":3777:3782   */\n      dup2\n        /* \"#utility.yul\":3766:3782   */\n      swap1\n      pop\n        /* \"#utility.yul\":3712:3788   */\n      swap2\n      swap1\n      pop\n      jump\t// out\n        /* \"#utility.yul\":3794:3871   */\n    tag_108:\n        /* \"#utility.yul\":3831:3838   */\n      0x00\n        /* \"#utility.yul\":3860:3865   */\n      dup2\n        /* \"#utility.yul\":3849:3865   */\n      swap1\n      pop\n        /* \"#utility.yul\":3794:3871   */\n      swap2\n      swap1\n      pop\n      jump\t// out\n        /* \"#utility.yul\":3877:4158   */\n    tag_93:\n        /* \"#utility.yul\":3960:3987   */\n      tag_111\n        /* \"#utility.yul\":3982:3986   */\n      dup3\n        /* \"#utility.yul\":3960:3987   */\n      tag_112\n      jump\t// in\n    tag_111:\n        /* \"#utility.yul\":3952:3958   */\n      dup2\n        /* \"#utility.yul\":3948:3988   */\n      add\n        /* \"#utility.yul\":4090:4096   */\n      dup2\n        /* \"#utility.yul\":4078:4088   */\n      dup2\n        /* \"#utility.yul\":4075:4097   */\n      lt\n        /* \"#utility.yul\":4054:4072   */\n      0xffffffffffffffff\n        /* \"#utility.yul\":4042:4052   */\n      dup3\n        /* \"#utility.yul\":4039:4073   */\n      gt\n        /* \"#utility.yul\":4036:4098   */\n      or\n        /* \"#utility.yul\":4033:4121   */\n      iszero\n      tag_113\n      jumpi\n        /* \"#utility.yul\":4101:4119   */\n      tag_114\n      tag_98\n      jump\t// in\n    tag_114:\n        /* \"#utility.yul\":4033:4121   */\n    tag_113:\n        /* \"#utility.yul\":4141:4151   */\n      dup1\n        /* \"#utility.yul\":4137:4139   */\n      0x40\n        /* \"#utility.yul\":4130:4152   */\n      mstore\n        /* \"#utility.yul\":3920:4158   */\n      pop\n        /* \"#utility.yul\":3877:4158   */\n      pop\n      pop\n      jump\t// out\n        /* \"#utility.yul\":4164:4397   */\n    tag_35:\n        /* \"#utility.yul\":4203:4206   */\n      0x00\n        /* \"#utility.yul\":4226:4250   */\n      tag_116\n        /* \"#utility.yul\":4244:4249   */\n      dup3\n        /* \"#utility.yul\":4226:4250   */\n      tag_108\n      jump\t// in\n    tag_116:\n        /* \"#utility.yul\":4217:4250   */\n      swap2\n      pop\n        /* \"#utility.yul\":4272:4338   */\n      0xffffffffffffffffffffffffffffffffffffffffffffffffffffffffffffffff\n        /* \"#utility.yul\":4265:4270   */\n      dup3\n        /* \"#utility.yul\":4262:4339   */\n      eq\n        /* \"#utility.yul\":4259:4362   */\n      iszero\n      tag_117\n      jumpi\n        /* \"#utility.yul\":4342:4360   */\n      tag_118\n      tag_104\n      jump\t// in\n    tag_118:\n        /* \"#utility.yul\":4259:4362   */\n    tag_117:\n        /* \"#utility.yul\":4389:4390   */\n      0x01\n        /* \"#utility.yul\":4382:4387   */\n      dup3\n        /* \"#utility.yul\":4378:4391   */\n      add\n        /* \"#utility.yul\":4371:4391   */\n      swap1\n      pop\n        /* \"#utility.yul\":4164:4397   */\n      swap2\n      swap1\n      pop\n      jump\t// out\n        /* \"#utility.yul\":4403:4583   */\n    tag_104:\n        /* \"#utility.yul\":4451:4528   */\n      0x4e487b7100000000000000000000000000000000000000000000000000000000\n        /* \"#utility.yul\":4448:4449   */\n      0x00\n        /* \"#utility.yul\":4441:4529   */\n      mstore\n        /* \"#utility.yul\":4548:4552   */\n      0x11\n        /* \"#utility.yul\":4545:4546   */\n      0x04\n        /* \"#utility.yul\":4538:4553   */\n      mstore\n        /* \"#utility.yul\":4572:4576   */\n      0x24\n        /* \"#utility.yul\":4569:4570   */\n      0x00\n        /* \"#utility.yul\":4562:4577   */\n      revert\n        /* \"#utility.yul\":4589:4769   */\n    tag_30:\n        /* \"#utility.yul\":4637:4714   */\n      0x4e487b7100000000000000000000000000000000000000000000000000000000\n        /* \"#utility.yul\":4634:4635   */\n      0x00\n        /* \"#utility.yul\":4627:4715   */\n      mstore\n        /* \"#utility.yul\":4734:4738   */\n      0x32\n        /* \"#utility.yul\":4731:4732   */\n      0x04\n        /* \"#utility.yul\":4724:4739   */\n      mstore\n        /* \"#utility.yul\":4758:4762   */\n      0x24\n        /* \"#utility.yul\":4755:4756   */\n      0x00\n        /* \"#utility.yul\":4748:4763   */\n      revert\n        /* \"#utility.yul\":4775:4955   */\n    tag_98:\n        /* \"#utility.yul\":4823:4900   */\n      0x4e487b7100000000000000000000000000000000000000000000000000000000\n        /* \"#utility.yul\":4820:4821   */\n      0x00\n        /* \"#utility.yul\":4813:4901   */\n      mstore\n        /* \"#utility.yul\":4920:4924   */\n      0x41\n        /* \"#utility.yul\":4917:4918   */\n      0x04\n        /* \"#utility.yul\":4910:4925   */\n      mstore\n        /* \"#utility.yul\":4944:4948   */\n      0x24\n        /* \"#utility.yul\":4941:4942   */\n      0x00\n        /* \"#utility.yul\":4934:4949   */\n      revert\n        /* \"#utility.yul\":4961:5078   */\n    tag_62:\n        /* \"#utility.yul\":5070:5071   */\n      0x00\n        /* \"#utility.yul\":5067:5068   */\n      dup1\n        /* \"#utility.yul\":5060:5072   */\n      revert\n        /* \"#utility.yul\":5084:5201   */\n    tag_52:\n        /* \"#utility.yul\":5193:5194   */\n      0x00\n        /* \"#utility.yul\":5190:5191   */\n      dup1\n        /* \"#utility.yul\":5183:5195   */\n      revert\n        /* \"#utility.yul\":5207:5324   */\n    tag_77:\n        /* \"#utility.yul\":5316:5317   */\n      0x00\n        /* \"#utility.yul\":5313:5314   */\n      dup1\n        /* \"#utility.yul\":5306:5318   */\n      revert\n        /* \"#utility.yul\":5330:5447   */\n    tag_74:\n        /* \"#utility.yul\":5439:5440   */\n      0x00\n        /* \"#utility.yul\":5436:5437   */\n      dup1\n        /* \"#utility.yul\":5429:5441   */\n      revert\n        /* \"#utility.yul\":5453:5555   */\n    tag_112:\n        /* \"#utility.yul\":5494:5500   */\n      0x00\n        /* \"#utility.yul\":5545:5547   */\n      0x1f\n        /* \"#utility.yul\":5541:5548   */\n      not\n        /* \"#utility.yul\":5536:5538   */\n      0x1f\n        /* \"#utility.yul\":5529:5534   */\n      dup4\n        /* \"#utility.yul\":5525:5539   */\n      add\n        /* \"#utility.yul\":5521:5549   */\n      and\n        /* \"#utility.yul\":5511:5549   */\n      swap1\n      pop\n        /* \"#utility.yul\":5453:5555   */\n      swap2\n      swap1\n      pop\n      jump\t// out\n        /* \"#utility.yul\":5561:5681   */\n    tag_66:\n        /* \"#utility.yul\":5633:5656   */\n      tag_128\n        /* \"#utility.yul\":5650:5655   */\n      dup2\n        /* \"#utility.yul\":5633:5656   */\n      tag_86\n      jump\t// in\n    tag_128:\n        /* \"#utility.yul\":5626:5631   */\n      dup2\n        /* \"#utility.yul\":5623:5657   */\n      eq\n        /* \"#utility.yul\":5613:5675   */\n      tag_129\n      jumpi\n        /* \"#utility.yul\":5671:5672   */\n      0x00\n        /* \"#utility.yul\":5668:5669   */\n      dup1\n        /* \"#utility.yul\":5661:5673   */\n      revert\n        /* \"#utility.yul\":5613:5675   */\n    tag_129:\n        /* \"#utility.yul\":5561:5681   */\n      pop\n      jump\t// out\n        /* \"#utility.yul\":5687:5809   */\n    tag_70:\n        /* \"#utility.yul\":5760:5784   */\n      tag_131\n        /* \"#utility.yul\":5778:5783   */\n      dup2\n        /* \"#utility.yul\":5760:5784   */\n      tag_108\n      jump\t// in\n    tag_131:\n        /* \"#utility.yul\":5753:5758   */\n      dup2\n        /* \"#utility.yul\":5750:5785   */\n      eq\n        /* \"#utility.yul\":5740:5803   */\n      tag_132\n      jumpi\n        /* \"#utility.yul\":5799:5800   */\n      0x00\n        /* \"#utility.yul\":5796:5797   */\n      dup1\n        /* \"#utility.yul\":5789:5801   */\n      revert\n        /* \"#utility.yul\":5740:5803   */\n    tag_132:\n        /* \"#utility.yul\":5687:5809   */\n      pop\n      jump\t// out\n\n    auxdata: 0xa26469706673582212207f40aae9fcfbecd68ac139f366813a8f7d6db46e4049ea3dd0bdefb89b7733e764736f6c63430008070033\n}\n",
				"bytecode": {
					"linkReferences": {},
					"object": "608060405234801561001057600080fd5b506105a3806100206000396000f3fe608060405234801561001057600080fd5b50600436106100415760003560e01c8063034fd9c41461004657806338d9419314610062578063853255cc14610092575b600080fd5b610060600480360381019061005b919061027a565b6100b0565b005b61007c600480360381019061007791906102c3565b6100ca565b60405161008991906102ff565b60405180910390f35b61009a6100ee565b6040516100a791906102ff565b60405180910390f35b80600090805190602001906100c6929190610148565b5050565b600081815481106100da57600080fd5b906000526020600020016000915090505481565b60008060005b6000805490508110156101405760008181548110610115576101146104bc565b5b90600052602060002001548261012b919061036b565b9150808061013890610444565b9150506100f4565b508091505090565b828054828255906000526020600020908101928215610184579160200282015b82811115610183578251825591602001919060010190610168565b5b5090506101919190610195565b5090565b5b808211156101ae576000816000905550600101610196565b5090565b60006101c56101c08461033f565b61031a565b905080838252602082019050828560208602820111156101e8576101e761051f565b5b60005b8581101561021857816101fe8882610250565b8452602084019350602083019250506001810190506101eb565b5050509392505050565b600082601f8301126102375761023661051a565b5b81356102478482602086016101b2565b91505092915050565b60008135905061025f8161053f565b92915050565b60008135905061027481610556565b92915050565b6000602082840312156102905761028f610529565b5b600082013567ffffffffffffffff8111156102ae576102ad610524565b5b6102ba84828501610222565b91505092915050565b6000602082840312156102d9576102d8610529565b5b60006102e784828501610265565b91505092915050565b6102f9816103ff565b82525050565b600060208201905061031460008301846102f0565b92915050565b6000610324610335565b90506103308282610413565b919050565b6000604051905090565b600067ffffffffffffffff82111561035a576103596104eb565b5b602082029050602081019050919050565b6000610376826103ff565b9150610381836103ff565b9250817f7fffffffffffffffffffffffffffffffffffffffffffffffffffffffffffffff038313600083121516156103bc576103bb61048d565b5b817f80000000000000000000000000000000000000000000000000000000000000000383126000831216156103f4576103f361048d565b5b828201905092915050565b6000819050919050565b6000819050919050565b61041c8261052e565b810181811067ffffffffffffffff8211171561043b5761043a6104eb565b5b80604052505050565b600061044f82610409565b91507fffffffffffffffffffffffffffffffffffffffffffffffffffffffffffffffff8214156104825761048161048d565b5b600182019050919050565b7f4e487b7100000000000000000000000000000000000000000000000000000000600052601160045260246000fd5b7f4e487b7100000000000000000000000000000000000000000000000000000000600052603260045260246000fd5b7f4e487b7100000000000000000000000000000000000000000000000000000000600052604160045260246000fd5b600080fd5b600080fd5b600080fd5b600080fd5b6000601f19601f8301169050919050565b610548816103ff565b811461055357600080fd5b50565b61055f81610409565b811461056a57600080fd5b5056fea26469706673582212207f40aae9fcfbecd68ac139f366813a8f7d6db46e4049ea3dd0bdefb89b7733e764736f6c63430008070033",
					"opcodes": "PUSH1 0x80 PUSH1 0x40 MSTORE CALLVALUE DUP1 ISZERO PUSH2 0x10 JUMPI PUSH1 0x0 DUP1 REVERT JUMPDEST POP PUSH2 0x5A3 DUP1 PUSH2 0x20 PUSH1 0x0 CODECOPY PUSH1 0x0 RETURN INVALID PUSH1 0x80 PUSH1 0x40 MSTORE CALLVALUE DUP1 ISZERO PUSH2 0x10 JUMPI PUSH1 0x0 DUP1 REVERT JUMPDEST POP PUSH1 0x4 CALLDATASIZE LT PUSH2 0x41 JUMPI PUSH1 0x0 CALLDATALOAD PUSH1 0xE0 SHR DUP1 PUSH4 0x34FD9C4 EQ PUSH2 0x46 JUMPI DUP1 PUSH4 0x38D94193 EQ PUSH2 0x62 JUMPI DUP1 PUSH4 0x853255CC EQ PUSH2 0x92 JUMPI JUMPDEST PUSH1 0x0 DUP1 REVERT JUMPDEST PUSH2 0x60 PUSH1 0x4 DUP1 CALLDATASIZE SUB DUP2 ADD SWAP1 PUSH2 0x5B SWAP2 SWAP1 PUSH2 0x27A JUMP JUMPDEST PUSH2 0xB0 JUMP JUMPDEST STOP JUMPDEST PUSH2 0x7C PUSH1 0x4 DUP1 CALLDATASIZE SUB DUP2 ADD SWAP1 PUSH2 0x77 SWAP2 SWAP1 PUSH2 0x2C3 JUMP JUMPDEST PUSH2 0xCA JUMP JUMPDEST PUSH1 0x40 MLOAD PUSH2 0x89 SWAP2 SWAP1 PUSH2 0x2FF JUMP JUMPDEST PUSH1 0x40 MLOAD DUP1 SWAP2 SUB SWAP1 RETURN JUMPDEST PUSH2 0x9A PUSH2 0xEE JUMP JUMPDEST PUSH1 0x40 MLOAD PUSH2 0xA7 SWAP2 SWAP1 PUSH2 0x2FF JUMP JUMPDEST PUSH1 0x40 MLOAD DUP1 SWAP2 SUB SWAP1 RETURN JUMPDEST DUP1 PUSH1 0x0 SWAP1 DUP1 MLOAD SWAP1 PUSH1 0x20 ADD SWAP1 PUSH2 0xC6 SWAP3 SWAP2 SWAP1 PUSH2 0x148 JUMP JUMPDEST POP POP JUMP JUMPDEST PUSH1 0x0 DUP2 DUP2 SLOAD DUP2 LT PUSH2 0xDA JUMPI PUSH1 0x0 DUP1 REVERT JUMPDEST SWAP1 PUSH1 0x0 MSTORE PUSH1 0x20 PUSH1 0x0 KECCAK256 ADD PUSH1 0x0 SWAP2 POP SWAP1 POP SLOAD DUP2 JUMP JUMPDEST PUSH1 0x0 DUP1 PUSH1 0x0 JUMPDEST PUSH1 0x0 DUP1 SLOAD SWAP1 POP DUP2 LT ISZERO PUSH2 0x140 JUMPI PUSH1 0x0 DUP2 DUP2 SLOAD DUP2 LT PUSH2 0x115 JUMPI PUSH2 0x114 PUSH2 0x4BC JUMP JUMPDEST JUMPDEST SWAP1 PUSH1 0x0 MSTORE PUSH1 0x20 PUSH1 0x0 KECCAK256 ADD SLOAD DUP3 PUSH2 0x12B SWAP2 SWAP1 PUSH2 0x36B JUMP JUMPDEST SWAP2 POP DUP1 DUP1 PUSH2 0x138 SWAP1 PUSH2 0x444 JUMP JUMPDEST SWAP2 POP POP PUSH2 0xF4 JUMP JUMPDEST POP DUP1 SWAP2 POP POP SWAP1 JUMP JUMPDEST DUP3 DUP1 SLOAD DUP3 DUP3 SSTORE SWAP1 PUSH1 0x0 MSTORE PUSH1 0x20 PUSH1 0x0 KECCAK256 SWAP1 DUP2 ADD SWAP3 DUP3 ISZERO PUSH2 0x184 JUMPI SWAP2 PUSH1 0x20 MUL DUP3 ADD JUMPDEST DUP3 DUP2 GT ISZERO PUSH2 0x183 JUMPI DUP3 MLOAD DUP3 SSTORE SWAP2 PUSH1 0x20 ADD SWAP2 SWAP1 PUSH1 0x1 ADD SWAP1 PUSH2 0x168 JUMP JUMPDEST JUMPDEST POP SWAP1 POP PUSH2 0x191 SWAP2 SWAP1 PUSH2 0x195 JUMP JUMPDEST POP SWAP1 JUMP JUMPDEST JUMPDEST DUP1 DUP3 GT ISZERO PUSH2 0x1AE JUMPI PUSH1 0x0 DUP2 PUSH1 0x0 SWAP1 SSTORE POP PUSH1 0x1 ADD PUSH2 0x196 JUMP JUMPDEST POP SWAP1 JUMP JUMPDEST PUSH1 0x0 PUSH2 0x1C5 PUSH2 0x1C0 DUP5 PUSH2 0x33F JUMP JUMPDEST PUSH2 0x31A JUMP JUMPDEST SWAP1 POP DUP1 DUP4 DUP3 MSTORE PUSH1 0x20 DUP3 ADD SWAP1 POP DUP3 DUP6 PUSH1 0x20 DUP7 MUL DUP3 ADD GT ISZERO PUSH2 0x1E8 JUMPI PUSH2 0x1E7 PUSH2 0x51F JUMP JUMPDEST JUMPDEST PUSH1 0x0 JUMPDEST DUP6 DUP2 LT ISZERO PUSH2 0x218 JUMPI DUP2 PUSH2 0x1FE DUP9 DUP3 PUSH2 0x250 JUMP JUMPDEST DUP5 MSTORE PUSH1 0x20 DUP5 ADD SWAP4 POP PUSH1 0x20 DUP4 ADD SWAP3 POP POP PUSH1 0x1 DUP2 ADD SWAP1 POP PUSH2 0x1EB JUMP JUMPDEST POP POP POP SWAP4 SWAP3 POP POP POP JUMP JUMPDEST PUSH1 0x0 DUP3 PUSH1 0x1F DUP4 ADD SLT PUSH2 0x237 JUMPI PUSH2 0x236 PUSH2 0x51A JUMP JUMPDEST JUMPDEST DUP2 CALLDATALOAD PUSH2 0x247 DUP5 DUP3 PUSH1 0x20 DUP7 ADD PUSH2 0x1B2 JUMP JUMPDEST SWAP2 POP POP SWAP3 SWAP2 POP POP JUMP JUMPDEST PUSH1 0x0 DUP2 CALLDATALOAD SWAP1 POP PUSH2 0x25F DUP2 PUSH2 0x53F JUMP JUMPDEST SWAP3 SWAP2 POP POP JUMP JUMPDEST PUSH1 0x0 DUP2 CALLDATALOAD SWAP1 POP PUSH2 0x274 DUP2 PUSH2 0x556 JUMP JUMPDEST SWAP3 SWAP2 POP POP JUMP JUMPDEST PUSH1 0x0 PUSH1 0x20 DUP3 DUP5 SUB SLT ISZERO PUSH2 0x290 JUMPI PUSH2 0x28F PUSH2 0x529 JUMP JUMPDEST JUMPDEST PUSH1 0x0 DUP3 ADD CALLDATALOAD PUSH8 0xFFFFFFFFFFFFFFFF DUP2 GT ISZERO PUSH2 0x2AE JUMPI PUSH2 0x2AD PUSH2 0x524 JUMP JUMPDEST JUMPDEST PUSH2 0x2BA DUP5 DUP3 DUP6 ADD PUSH2 0x222 JUMP JUMPDEST SWAP2 POP POP SWAP3 SWAP2 POP POP JUMP JUMPDEST PUSH1 0x0 PUSH1 0x20 DUP3 DUP5 SUB SLT ISZERO PUSH2 0x2D9 JUMPI PUSH2 0x2D8 PUSH2 0x529 JUMP JUMPDEST JUMPDEST PUSH1 0x0 PUSH2 0x2E7 DUP5 DUP3 DUP6 ADD PUSH2 0x265 JUMP JUMPDEST SWAP2 POP POP SWAP3 SWAP2 POP POP JUMP JUMPDEST PUSH2 0x2F9 DUP2 PUSH2 0x3FF JUMP JUMPDEST DUP3 MSTORE POP POP JUMP JUMPDEST PUSH1 0x0 PUSH1 0x20 DUP3 ADD SWAP1 POP PUSH2 0x314 PUSH1 0x0 DUP4 ADD DUP5 PUSH2 0x2F0 JUMP JUMPDEST SWAP3 SWAP2 POP POP JUMP JUMPDEST PUSH1 0x0 PUSH2 0x324 PUSH2 0x335 JUMP JUMPDEST SWAP1 POP PUSH2 0x330 DUP3 DUP3 PUSH2 0x413 JUMP JUMPDEST SWAP2 SWAP1 POP JUMP JUMPDEST PUSH1 0x0 PUSH1 0x40 MLOAD SWAP1 POP SWAP1 JUMP JUMPDEST PUSH1 0x0 PUSH8 0xFFFFFFFFFFFFFFFF DUP3 GT ISZERO PUSH2 0x35A JUMPI PUSH2 0x359 PUSH2 0x4EB JUMP JUMPDEST JUMPDEST PUSH1 0x20 DUP3 MUL SWAP1 POP PUSH1 0x20 DUP2 ADD SWAP1 POP SWAP2 SWAP1 POP JUMP JUMPDEST PUSH1 0x0 PUSH2 0x376 DUP3 PUSH2 0x3FF JUMP JUMPDEST SWAP2 POP PUSH2 0x381 DUP4 PUSH2 0x3FF JUMP JUMPDEST SWAP3 POP DUP2 PUSH32 0x7FFFFFFFFFFFFFFFFFFFFFFFFFFFFFFFFFFFFFFFFFFFFFFFFFFFFFFFFFFFFFFF SUB DUP4 SGT PUSH1 0x0 DUP4 SLT ISZERO AND ISZERO PUSH2 0x3BC JUMPI PUSH2 0x3BB PUSH2 0x48D JUMP JUMPDEST JUMPDEST DUP2 PUSH32 0x8000000000000000000000000000000000000000000000000000000000000000 SUB DUP4 SLT PUSH1 0x0 DUP4 SLT AND ISZERO PUSH2 0x3F4 JUMPI PUSH2 0x3F3 PUSH2 0x48D JUMP JUMPDEST JUMPDEST DUP3 DUP3 ADD SWAP1 POP SWAP3 SWAP2 POP POP JUMP JUMPDEST PUSH1 0x0 DUP2 SWAP1 POP SWAP2 SWAP1 POP JUMP JUMPDEST PUSH1 0x0 DUP2 SWAP1 POP SWAP2 SWAP1 POP JUMP JUMPDEST PUSH2 0x41C DUP3 PUSH2 0x52E JUMP JUMPDEST DUP2 ADD DUP2 DUP2 LT PUSH8 0xFFFFFFFFFFFFFFFF DUP3 GT OR ISZERO PUSH2 0x43B JUMPI PUSH2 0x43A PUSH2 0x4EB JUMP JUMPDEST JUMPDEST DUP1 PUSH1 0x40 MSTORE POP POP POP JUMP JUMPDEST PUSH1 0x0 PUSH2 0x44F DUP3 PUSH2 0x409 JUMP JUMPDEST SWAP2 POP PUSH32 0xFFFFFFFFFFFFFFFFFFFFFFFFFFFFFFFFFFFFFFFFFFFFFFFFFFFFFFFFFFFFFFFF DUP3 EQ ISZERO PUSH2 0x482 JUMPI PUSH2 0x481 PUSH2 0x48D JUMP JUMPDEST JUMPDEST PUSH1 0x1 DUP3 ADD SWAP1 POP SWAP2 SWAP1 POP JUMP JUMPDEST PUSH32 0x4E487B7100000000000000000000000000000000000000000000000000000000 PUSH1 0x0 MSTORE PUSH1 0x11 PUSH1 0x4 MSTORE PUSH1 0x24 PUSH1 0x0 REVERT JUMPDEST PUSH32 0x4E487B7100000000000000000000000000000000000000000000000000000000 PUSH1 0x0 MSTORE PUSH1 0x32 PUSH1 0x4 MSTORE PUSH1 0x24 PUSH1 0x0 REVERT JUMPDEST PUSH32 0x4E487B7100000000000000000000000000000000000000000000000000000000 PUSH1 0x0 MSTORE PUSH1 0x41 PUSH1 0x4 MSTORE PUSH1 0x24 PUSH1 0x0 REVERT JUMPDEST PUSH1 0x0 DUP1 REVERT JUMPDEST PUSH1 0x0 DUP1 REVERT JUMPDEST PUSH1 0x0 DUP1 REVERT JUMPDEST PUSH1 0x0 DUP1 REVERT JUMPDEST PUSH1 0x0 PUSH1 0x1F NOT PUSH1 0x1F DUP4 ADD AND SWAP1 POP SWAP2 SWAP1 POP JUMP JUMPDEST PUSH2 0x548 DUP2 PUSH2 0x3FF JUMP JUMPDEST DUP2 EQ PUSH2 0x553 JUMPI PUSH1 0x0 DUP1 REVERT JUMPDEST POP JUMP JUMPDEST PUSH2 0x55F DUP2 PUSH2 0x409 JUMP JUMPDEST DUP2 EQ PUSH2 0x56A JUMPI PUSH1 0x0 DUP1 REVERT JUMPDEST POP JUMP INVALID LOG2 PUSH5 0x6970667358 0x22 SLT KECCAK256 PUSH32 0x40AAE9FCFBECD68AC139F366813A8F7D6DB46E4049EA3DD0BDEFB89B7733E764 PUSH20 0x6F6C634300080700330000000000000000000000 "
				},
				"gasEstimates": {
					"creation": {
						"codeDepositCost": "288600",
						"executionCost": "331",
						"totalCost": "288931"
					},
					"external": {
						"array(uint256)": "4882",
						"setArray(int256[])": "infinite",
						"sum()": "infinite"
					}
				},
				"methodIdentifiers": {
					"array(uint256)": "38d94193",
					"setArray(int256[])": "034fd9c4",
					"sum()": "853255cc"
				}
			},
			"storageLayout": {
				"storage": [
					{
						"astId": 4,
						"contract": "contracts/7.sol:Q6",
						"label": "array",
						"offset": 0,
						"slot": "0",
						"type": "t_array(t_int256)dyn_storage"
					}
				],
				"types": {
					"t_array(t_int256)dyn_storage": {
						"base": "t_int256",
						"encoding": "dynamic_array",
						"label": "int256[]",
						"numberOfBytes": "32"
					},
					"t_int256": {
						"encoding": "inplace",
						"label": "int256",
						"numberOfBytes": "32"
					}
				}
			},
			"userdoc": {
				"kind": "user",
				"methods": {},
				"version": 1
			}
		}
	}
}