{
	"contracts/9.sol": {
		"Q8": {
			"abi": [
				{
					"inputs": [
						{
							"internalType": "uint256",
							"name": "index",
							"type": "uint256"
						},
						{
							"internalType": "uint256",
							"name": "_roll",
							"type": "uint256"
						},
						{
							"internalType": "string",
							"name": "_name",
							"type": "string"
						},
						{
							"internalType": "uint256",
							"name": "_age",
							"type": "uint256"
						}
					],
					"name": "insert",
					"outputs": [],
					"stateMutability": "nonpayable",
					"type": "function"
				},
				{
					"inputs": [],
					"name": "returnD",
					"outputs": [
						{
							"components": [
								{
									"internalType": "uint256",
									"name": "roll",
									"type": "uint256"
								},
								{
									"internalType": "string",
									"name": "name",
									"type": "string"
								},
								{
									"internalType": "uint256",
									"name": "age",
									"type": "uint256"
								}
							],
							"internalType": "struct Q8.student[10]",
							"name": "",
							"type": "tuple[10]"
						}
					],
					"stateMutability": "view",
					"type": "function"
				},
				{
					"inputs": [
						{
							"internalType": "uint256",
							"name": "",
							"type": "uint256"
						}
					],
					"name": "stu",
					"outputs": [
						{
							"internalType": "uint256",
							"name": "roll",
							"type": "uint256"
						},
						{
							"internalType": "string",
							"name": "name",
							"type": "string"
						},
						{
							"internalType": "uint256",
							"name": "age",
							"type": "uint256"
						}
					],
					"stateMutability": "view",
					"type": "function"
				}
			],
			"devdoc": {
				"kind": "dev",
				"methods": {},
				"version": 1
			},
			"evm": {
				"assembly": "    /* \"contracts/9.sol\":134:505  contract Q8{\r... */\n  mstore(0x40, 0x80)\n  callvalue\n  dup1\n  iszero\n  tag_1\n  jumpi\n  0x00\n  dup1\n  revert\ntag_1:\n  pop\n  dataSize(sub_0)\n  dup1\n  dataOffset(sub_0)\n  0x00\n  codecopy\n  0x00\n  return\nstop\n\nsub_0: assembly {\n        /* \"contracts/9.sol\":134:505  contract Q8{\r... */\n      mstore(0x40, 0x80)\n      callvalue\n      dup1\n      iszero\n      tag_1\n      jumpi\n      0x00\n      dup1\n      revert\n    tag_1:\n      pop\n      jumpi(tag_2, lt(calldatasize, 0x04))\n      shr(0xe0, calldataload(0x00))\n      dup1\n      0x7d9fd1c3\n      eq\n      tag_3\n      jumpi\n      dup1\n      0x8c53f85f\n      eq\n      tag_4\n      jumpi\n      dup1\n      0xaaefce39\n      eq\n      tag_5\n      jumpi\n    tag_2:\n      0x00\n      dup1\n      revert\n        /* \"contracts/9.sol\":416:502  function returnD()public view returns(student[10] memory){\r... */\n    tag_3:\n      tag_6\n      tag_7\n      jump\t// in\n    tag_6:\n      mload(0x40)\n      tag_8\n      swap2\n      swap1\n      tag_9\n      jump\t// in\n    tag_8:\n      mload(0x40)\n      dup1\n      swap2\n      sub\n      swap1\n      return\n        /* \"contracts/9.sol\":241:263  student[10] public stu */\n    tag_4:\n      tag_10\n      0x04\n      dup1\n      calldatasize\n      sub\n      dup2\n      add\n      swap1\n      tag_11\n      swap2\n      swap1\n      tag_12\n      jump\t// in\n    tag_11:\n      tag_13\n      jump\t// in\n    tag_10:\n      mload(0x40)\n      tag_14\n      swap4\n      swap3\n      swap2\n      swap1\n      tag_15\n      jump\t// in\n    tag_14:\n      mload(0x40)\n      dup1\n      swap2\n      sub\n      swap1\n      return\n        /* \"contracts/9.sol\":272:408  function insert(uint index, uint _roll, string memory _name, uint _age)public{\r... */\n    tag_5:\n      tag_16\n      0x04\n      dup1\n      calldatasize\n      sub\n      dup2\n      add\n      swap1\n      tag_17\n      swap2\n      swap1\n      tag_18\n      jump\t// in\n    tag_17:\n      tag_19\n      jump\t// in\n    tag_16:\n      stop\n        /* \"contracts/9.sol\":416:502  function returnD()public view returns(student[10] memory){\r... */\n    tag_7:\n        /* \"contracts/9.sol\":454:472  student[10] memory */\n      tag_20\n      tag_21\n      jump\t// in\n    tag_20:\n        /* \"contracts/9.sol\":491:494  stu */\n      0x00\n        /* \"contracts/9.sol\":484:494  return stu */\n      0x0a\n      dup1\n      0x20\n      mul\n      mload(0x40)\n      swap1\n      dup2\n      add\n      0x40\n      mstore\n      dup1\n      swap3\n      swap2\n      swap1\n      0x00\n      swap1\n    tag_23:\n      dup3\n      dup3\n      lt\n      iszero\n      tag_24\n      jumpi\n      dup4\n      dup3\n      0x03\n      mul\n      add\n      mload(0x40)\n      dup1\n      0x60\n      add\n      0x40\n      mstore\n      swap1\n      dup2\n      0x00\n      dup3\n      add\n      sload\n      dup2\n      mstore\n      0x20\n      add\n      0x01\n      dup3\n      add\n      dup1\n      sload\n      tag_26\n      swap1\n      tag_27\n      jump\t// in\n    tag_26:\n      dup1\n      0x1f\n      add\n      0x20\n      dup1\n      swap2\n      div\n      mul\n      0x20\n      add\n      mload(0x40)\n      swap1\n      dup2\n      add\n      0x40\n      mstore\n      dup1\n      swap3\n      swap2\n      swap1\n      dup2\n      dup2\n      mstore\n      0x20\n      add\n      dup3\n      dup1\n      sload\n      tag_28\n      swap1\n      tag_27\n      jump\t// in\n    tag_28:\n      dup1\n      iszero\n      tag_29\n      jumpi\n      dup1\n      0x1f\n      lt\n      tag_30\n      jumpi\n      0x0100\n      dup1\n      dup4\n      sload\n      div\n      mul\n      dup4\n      mstore\n      swap2\n      0x20\n      add\n      swap2\n      jump(tag_29)\n    tag_30:\n      dup3\n      add\n      swap2\n      swap1\n      0x00\n      mstore\n      keccak256(0x00, 0x20)\n      swap1\n    tag_31:\n      dup2\n      sload\n      dup2\n      mstore\n      swap1\n      0x01\n      add\n      swap1\n      0x20\n      add\n      dup1\n      dup4\n      gt\n      tag_31\n      jumpi\n      dup3\n      swap1\n      sub\n      0x1f\n      and\n      dup3\n      add\n      swap2\n    tag_29:\n      pop\n      pop\n      pop\n      pop\n      pop\n      dup2\n      mstore\n      0x20\n      add\n      0x02\n      dup3\n      add\n      sload\n      dup2\n      mstore\n      pop\n      pop\n      dup2\n      mstore\n      0x20\n      add\n      swap1\n      0x01\n      add\n      swap1\n      jump(tag_23)\n    tag_24:\n      pop\n      pop\n      pop\n      pop\n      swap1\n      pop\n        /* \"contracts/9.sol\":416:502  function returnD()public view returns(student[10] memory){\r... */\n      swap1\n      jump\t// out\n        /* \"contracts/9.sol\":241:263  student[10] public stu */\n    tag_13:\n      0x00\n      dup2\n      0x0a\n      dup2\n      lt\n      tag_32\n      jumpi\n      0x00\n      dup1\n      revert\n    tag_32:\n      0x03\n      mul\n      add\n      0x00\n      swap2\n      pop\n      swap1\n      pop\n      dup1\n      0x00\n      add\n      sload\n      swap1\n      dup1\n      0x01\n      add\n      dup1\n      sload\n      tag_34\n      swap1\n      tag_27\n      jump\t// in\n    tag_34:\n      dup1\n      0x1f\n      add\n      0x20\n      dup1\n      swap2\n      div\n      mul\n      0x20\n      add\n      mload(0x40)\n      swap1\n      dup2\n      add\n      0x40\n      mstore\n      dup1\n      swap3\n      swap2\n      swap1\n      dup2\n      dup2\n      mstore\n      0x20\n      add\n      dup3\n      dup1\n      sload\n      tag_35\n      swap1\n      tag_27\n      jump\t// in\n    tag_35:\n      dup1\n      iszero\n      tag_36\n      jumpi\n      dup1\n      0x1f\n      lt\n      tag_37\n      jumpi\n      0x0100\n      dup1\n      dup4\n      sload\n      div\n      mul\n      dup4\n      mstore\n      swap2\n      0x20\n      add\n      swap2\n      jump(tag_36)\n    tag_37:\n      dup3\n      add\n      swap2\n      swap1\n      0x00\n      mstore\n      keccak256(0x00, 0x20)\n      swap1\n    tag_38:\n      dup2\n      sload\n      dup2\n      mstore\n      swap1\n      0x01\n      add\n      swap1\n      0x20\n      add\n      dup1\n      dup4\n      gt\n      tag_38\n      jumpi\n      dup3\n      swap1\n      sub\n      0x1f\n      and\n      dup3\n      add\n      swap2\n    tag_36:\n      pop\n      pop\n      pop\n      pop\n      pop\n      swap1\n      dup1\n      0x02\n      add\n      sload\n      swap1\n      pop\n      dup4\n      jump\t// out\n        /* \"contracts/9.sol\":272:408  function insert(uint index, uint _roll, string memory _name, uint _age)public{\r... */\n    tag_19:\n        /* \"contracts/9.sol\":373:400  student(_roll, _name, _age) */\n      mload(0x40)\n      dup1\n      0x60\n      add\n      0x40\n      mstore\n      dup1\n        /* \"contracts/9.sol\":381:386  _roll */\n      dup5\n        /* \"contracts/9.sol\":373:400  student(_roll, _name, _age) */\n      dup2\n      mstore\n      0x20\n      add\n        /* \"contracts/9.sol\":388:393  _name */\n      dup4\n        /* \"contracts/9.sol\":373:400  student(_roll, _name, _age) */\n      dup2\n      mstore\n      0x20\n      add\n        /* \"contracts/9.sol\":395:399  _age */\n      dup3\n        /* \"contracts/9.sol\":373:400  student(_roll, _name, _age) */\n      dup2\n      mstore\n      pop\n        /* \"contracts/9.sol\":360:363  stu */\n      0x00\n        /* \"contracts/9.sol\":364:369  index */\n      dup6\n        /* \"contracts/9.sol\":360:370  stu[index] */\n      0x0a\n      dup2\n      lt\n      tag_40\n      jumpi\n      tag_41\n      tag_42\n      jump\t// in\n    tag_41:\n    tag_40:\n      0x03\n      mul\n      add\n        /* \"contracts/9.sol\":360:400  stu[index] = student(_roll, _name, _age) */\n      0x00\n      dup3\n      add\n      mload\n      dup2\n      0x00\n      add\n      sstore\n      0x20\n      dup3\n      add\n      mload\n      dup2\n      0x01\n      add\n      swap1\n      dup1\n      mload\n      swap1\n      0x20\n      add\n      swap1\n      tag_44\n      swap3\n      swap2\n      swap1\n      tag_45\n      jump\t// in\n    tag_44:\n      pop\n      0x40\n      dup3\n      add\n      mload\n      dup2\n      0x02\n      add\n      sstore\n      swap1\n      pop\n      pop\n        /* \"contracts/9.sol\":272:408  function insert(uint index, uint _roll, string memory _name, uint _age)public{\r... */\n      pop\n      pop\n      pop\n      pop\n      jump\t// out\n    tag_21:\n      mload(0x40)\n      dup1\n      0x0140\n      add\n      0x40\n      mstore\n      dup1\n      0x0a\n      swap1\n    tag_46:\n      tag_47\n      tag_48\n      jump\t// in\n    tag_47:\n      dup2\n      mstore\n      0x20\n      add\n      swap1\n      0x01\n      swap1\n      sub\n      swap1\n      dup2\n      tag_46\n      jumpi\n      swap1\n      pop\n      pop\n      swap1\n      jump\t// out\n    tag_45:\n      dup3\n      dup1\n      sload\n      tag_49\n      swap1\n      tag_27\n      jump\t// in\n    tag_49:\n      swap1\n      0x00\n      mstore\n      keccak256(0x00, 0x20)\n      swap1\n      0x1f\n      add\n      0x20\n      swap1\n      div\n      dup2\n      add\n      swap3\n      dup3\n      tag_51\n      jumpi\n      0x00\n      dup6\n      sstore\n      jump(tag_50)\n    tag_51:\n      dup3\n      0x1f\n      lt\n      tag_52\n      jumpi\n      dup1\n      mload\n      not(0xff)\n      and\n      dup4\n      dup1\n      add\n      or\n      dup6\n      sstore\n      jump(tag_50)\n    tag_52:\n      dup3\n      dup1\n      add\n      0x01\n      add\n      dup6\n      sstore\n      dup3\n      iszero\n      tag_50\n      jumpi\n      swap2\n      dup3\n      add\n    tag_53:\n      dup3\n      dup2\n      gt\n      iszero\n      tag_54\n      jumpi\n      dup3\n      mload\n      dup3\n      sstore\n      swap2\n      0x20\n      add\n      swap2\n      swap1\n      0x01\n      add\n      swap1\n      jump(tag_53)\n    tag_54:\n    tag_50:\n      pop\n      swap1\n      pop\n      tag_55\n      swap2\n      swap1\n      tag_56\n      jump\t// in\n    tag_55:\n      pop\n      swap1\n      jump\t// out\n    tag_48:\n      mload(0x40)\n      dup1\n      0x60\n      add\n      0x40\n      mstore\n      dup1\n      0x00\n      dup2\n      mstore\n      0x20\n      add\n      0x60\n      dup2\n      mstore\n      0x20\n      add\n      0x00\n      dup2\n      mstore\n      pop\n      swap1\n      jump\t// out\n    tag_56:\n    tag_57:\n      dup1\n      dup3\n      gt\n      iszero\n      tag_58\n      jumpi\n      0x00\n      dup2\n      0x00\n      swap1\n      sstore\n      pop\n      0x01\n      add\n      jump(tag_57)\n    tag_58:\n      pop\n      swap1\n      jump\t// out\n        /* \"#utility.yul\":7:419   */\n    tag_60:\n        /* \"#utility.yul\":85:90   */\n      0x00\n        /* \"#utility.yul\":110:176   */\n      tag_62\n        /* \"#utility.yul\":126:175   */\n      tag_63\n        /* \"#utility.yul\":168:174   */\n      dup5\n        /* \"#utility.yul\":126:175   */\n      tag_64\n      jump\t// in\n    tag_63:\n        /* \"#utility.yul\":110:176   */\n      tag_65\n      jump\t// in\n    tag_62:\n        /* \"#utility.yul\":101:176   */\n      swap1\n      pop\n        /* \"#utility.yul\":199:205   */\n      dup3\n        /* \"#utility.yul\":192:197   */\n      dup2\n        /* \"#utility.yul\":185:206   */\n      mstore\n        /* \"#utility.yul\":237:241   */\n      0x20\n        /* \"#utility.yul\":230:235   */\n      dup2\n        /* \"#utility.yul\":226:242   */\n      add\n        /* \"#utility.yul\":275:278   */\n      dup5\n        /* \"#utility.yul\":266:272   */\n      dup5\n        /* \"#utility.yul\":261:264   */\n      dup5\n        /* \"#utility.yul\":257:273   */\n      add\n        /* \"#utility.yul\":254:279   */\n      gt\n        /* \"#utility.yul\":251:363   */\n      iszero\n      tag_66\n      jumpi\n        /* \"#utility.yul\":282:361   */\n      tag_67\n      tag_68\n      jump\t// in\n    tag_67:\n        /* \"#utility.yul\":251:363   */\n    tag_66:\n        /* \"#utility.yul\":372:413   */\n      tag_69\n        /* \"#utility.yul\":406:412   */\n      dup5\n        /* \"#utility.yul\":401:404   */\n      dup3\n        /* \"#utility.yul\":396:399   */\n      dup6\n        /* \"#utility.yul\":372:413   */\n      tag_70\n      jump\t// in\n    tag_69:\n        /* \"#utility.yul\":91:419   */\n      pop\n        /* \"#utility.yul\":7:419   */\n      swap4\n      swap3\n      pop\n      pop\n      pop\n      jump\t// out\n        /* \"#utility.yul\":439:779   */\n    tag_71:\n        /* \"#utility.yul\":495:500   */\n      0x00\n        /* \"#utility.yul\":544:547   */\n      dup3\n        /* \"#utility.yul\":537:541   */\n      0x1f\n        /* \"#utility.yul\":529:535   */\n      dup4\n        /* \"#utility.yul\":525:542   */\n      add\n        /* \"#utility.yul\":521:548   */\n      slt\n        /* \"#utility.yul\":511:633   */\n      tag_73\n      jumpi\n        /* \"#utility.yul\":552:631   */\n      tag_74\n      tag_75\n      jump\t// in\n    tag_74:\n        /* \"#utility.yul\":511:633   */\n    tag_73:\n        /* \"#utility.yul\":669:675   */\n      dup2\n        /* \"#utility.yul\":656:676   */\n      calldataload\n        /* \"#utility.yul\":694:773   */\n      tag_76\n        /* \"#utility.yul\":769:772   */\n      dup5\n        /* \"#utility.yul\":761:767   */\n      dup3\n        /* \"#utility.yul\":754:758   */\n      0x20\n        /* \"#utility.yul\":746:752   */\n      dup7\n        /* \"#utility.yul\":742:759   */\n      add\n        /* \"#utility.yul\":694:773   */\n      tag_60\n      jump\t// in\n    tag_76:\n        /* \"#utility.yul\":685:773   */\n      swap2\n      pop\n        /* \"#utility.yul\":501:779   */\n      pop\n        /* \"#utility.yul\":439:779   */\n      swap3\n      swap2\n      pop\n      pop\n      jump\t// out\n        /* \"#utility.yul\":785:924   */\n    tag_77:\n        /* \"#utility.yul\":831:836   */\n      0x00\n        /* \"#utility.yul\":869:875   */\n      dup2\n        /* \"#utility.yul\":856:876   */\n      calldataload\n        /* \"#utility.yul\":847:876   */\n      swap1\n      pop\n        /* \"#utility.yul\":885:918   */\n      tag_79\n        /* \"#utility.yul\":912:917   */\n      dup2\n        /* \"#utility.yul\":885:918   */\n      tag_80\n      jump\t// in\n    tag_79:\n        /* \"#utility.yul\":785:924   */\n      swap3\n      swap2\n      pop\n      pop\n      jump\t// out\n        /* \"#utility.yul\":930:1259   */\n    tag_12:\n        /* \"#utility.yul\":989:995   */\n      0x00\n        /* \"#utility.yul\":1038:1040   */\n      0x20\n        /* \"#utility.yul\":1026:1035   */\n      dup3\n        /* \"#utility.yul\":1017:1024   */\n      dup5\n        /* \"#utility.yul\":1013:1036   */\n      sub\n        /* \"#utility.yul\":1009:1041   */\n      slt\n        /* \"#utility.yul\":1006:1125   */\n      iszero\n      tag_82\n      jumpi\n        /* \"#utility.yul\":1044:1123   */\n      tag_83\n      tag_84\n      jump\t// in\n    tag_83:\n        /* \"#utility.yul\":1006:1125   */\n    tag_82:\n        /* \"#utility.yul\":1164:1165   */\n      0x00\n        /* \"#utility.yul\":1189:1242   */\n      tag_85\n        /* \"#utility.yul\":1234:1241   */\n      dup5\n        /* \"#utility.yul\":1225:1231   */\n      dup3\n        /* \"#utility.yul\":1214:1223   */\n      dup6\n        /* \"#utility.yul\":1210:1232   */\n      add\n        /* \"#utility.yul\":1189:1242   */\n      tag_77\n      jump\t// in\n    tag_85:\n        /* \"#utility.yul\":1179:1242   */\n      swap2\n      pop\n        /* \"#utility.yul\":1135:1252   */\n      pop\n        /* \"#utility.yul\":930:1259   */\n      swap3\n      swap2\n      pop\n      pop\n      jump\t// out\n        /* \"#utility.yul\":1265:2210   */\n    tag_18:\n        /* \"#utility.yul\":1361:1367   */\n      0x00\n        /* \"#utility.yul\":1369:1375   */\n      dup1\n        /* \"#utility.yul\":1377:1383   */\n      0x00\n        /* \"#utility.yul\":1385:1391   */\n      dup1\n        /* \"#utility.yul\":1434:1437   */\n      0x80\n        /* \"#utility.yul\":1422:1431   */\n      dup6\n        /* \"#utility.yul\":1413:1420   */\n      dup8\n        /* \"#utility.yul\":1409:1432   */\n      sub\n        /* \"#utility.yul\":1405:1438   */\n      slt\n        /* \"#utility.yul\":1402:1522   */\n      iszero\n      tag_87\n      jumpi\n        /* \"#utility.yul\":1441:1520   */\n      tag_88\n      tag_84\n      jump\t// in\n    tag_88:\n        /* \"#utility.yul\":1402:1522   */\n    tag_87:\n        /* \"#utility.yul\":1561:1562   */\n      0x00\n        /* \"#utility.yul\":1586:1639   */\n      tag_89\n        /* \"#utility.yul\":1631:1638   */\n      dup8\n        /* \"#utility.yul\":1622:1628   */\n      dup3\n        /* \"#utility.yul\":1611:1620   */\n      dup9\n        /* \"#utility.yul\":1607:1629   */\n      add\n        /* \"#utility.yul\":1586:1639   */\n      tag_77\n      jump\t// in\n    tag_89:\n        /* \"#utility.yul\":1576:1639   */\n      swap5\n      pop\n        /* \"#utility.yul\":1532:1649   */\n      pop\n        /* \"#utility.yul\":1688:1690   */\n      0x20\n        /* \"#utility.yul\":1714:1767   */\n      tag_90\n        /* \"#utility.yul\":1759:1766   */\n      dup8\n        /* \"#utility.yul\":1750:1756   */\n      dup3\n        /* \"#utility.yul\":1739:1748   */\n      dup9\n        /* \"#utility.yul\":1735:1757   */\n      add\n        /* \"#utility.yul\":1714:1767   */\n      tag_77\n      jump\t// in\n    tag_90:\n        /* \"#utility.yul\":1704:1767   */\n      swap4\n      pop\n        /* \"#utility.yul\":1659:1777   */\n      pop\n        /* \"#utility.yul\":1844:1846   */\n      0x40\n        /* \"#utility.yul\":1833:1842   */\n      dup6\n        /* \"#utility.yul\":1829:1847   */\n      add\n        /* \"#utility.yul\":1816:1848   */\n      calldataload\n        /* \"#utility.yul\":1875:1893   */\n      0xffffffffffffffff\n        /* \"#utility.yul\":1867:1873   */\n      dup2\n        /* \"#utility.yul\":1864:1894   */\n      gt\n        /* \"#utility.yul\":1861:1978   */\n      iszero\n      tag_91\n      jumpi\n        /* \"#utility.yul\":1897:1976   */\n      tag_92\n      tag_93\n      jump\t// in\n    tag_92:\n        /* \"#utility.yul\":1861:1978   */\n    tag_91:\n        /* \"#utility.yul\":2002:2065   */\n      tag_94\n        /* \"#utility.yul\":2057:2064   */\n      dup8\n        /* \"#utility.yul\":2048:2054   */\n      dup3\n        /* \"#utility.yul\":2037:2046   */\n      dup9\n        /* \"#utility.yul\":2033:2055   */\n      add\n        /* \"#utility.yul\":2002:2065   */\n      tag_71\n      jump\t// in\n    tag_94:\n        /* \"#utility.yul\":1992:2065   */\n      swap3\n      pop\n        /* \"#utility.yul\":1787:2075   */\n      pop\n        /* \"#utility.yul\":2114:2116   */\n      0x60\n        /* \"#utility.yul\":2140:2193   */\n      tag_95\n        /* \"#utility.yul\":2185:2192   */\n      dup8\n        /* \"#utility.yul\":2176:2182   */\n      dup3\n        /* \"#utility.yul\":2165:2174   */\n      dup9\n        /* \"#utility.yul\":2161:2183   */\n      add\n        /* \"#utility.yul\":2140:2193   */\n      tag_77\n      jump\t// in\n    tag_95:\n        /* \"#utility.yul\":2130:2193   */\n      swap2\n      pop\n        /* \"#utility.yul\":2085:2203   */\n      pop\n        /* \"#utility.yul\":1265:2210   */\n      swap3\n      swap6\n      swap2\n      swap5\n      pop\n      swap3\n      pop\n      jump\t// out\n        /* \"#utility.yul\":2216:2460   */\n    tag_96:\n        /* \"#utility.yul\":2329:2339   */\n      0x00\n        /* \"#utility.yul\":2364:2454   */\n      tag_98\n        /* \"#utility.yul\":2450:2453   */\n      dup4\n        /* \"#utility.yul\":2442:2448   */\n      dup4\n        /* \"#utility.yul\":2364:2454   */\n      tag_99\n      jump\t// in\n    tag_98:\n        /* \"#utility.yul\":2350:2454   */\n      swap1\n      pop\n        /* \"#utility.yul\":2216:2460   */\n      swap3\n      swap2\n      pop\n      pop\n      jump\t// out\n        /* \"#utility.yul\":2520:3601   */\n    tag_100:\n        /* \"#utility.yul\":2681:2684   */\n      0x00\n        /* \"#utility.yul\":2710:2785   */\n      tag_102\n        /* \"#utility.yul\":2779:2784   */\n      dup3\n        /* \"#utility.yul\":2710:2785   */\n      tag_103\n      jump\t// in\n    tag_102:\n        /* \"#utility.yul\":2801:2908   */\n      tag_104\n        /* \"#utility.yul\":2901:2907   */\n      dup2\n        /* \"#utility.yul\":2896:2899   */\n      dup6\n        /* \"#utility.yul\":2801:2908   */\n      tag_105\n      jump\t// in\n    tag_104:\n        /* \"#utility.yul\":2794:2908   */\n      swap4\n      pop\n        /* \"#utility.yul\":2934:2937   */\n      dup4\n        /* \"#utility.yul\":2979:2983   */\n      0x20\n        /* \"#utility.yul\":2971:2977   */\n      dup3\n        /* \"#utility.yul\":2967:2984   */\n      mul\n        /* \"#utility.yul\":2962:2965   */\n      dup6\n        /* \"#utility.yul\":2958:2985   */\n      add\n        /* \"#utility.yul\":3009:3086   */\n      tag_106\n        /* \"#utility.yul\":3080:3085   */\n      dup6\n        /* \"#utility.yul\":3009:3086   */\n      tag_107\n      jump\t// in\n    tag_106:\n        /* \"#utility.yul\":3109:3116   */\n      dup1\n        /* \"#utility.yul\":3140:3141   */\n      0x00\n        /* \"#utility.yul\":3125:3556   */\n    tag_108:\n        /* \"#utility.yul\":3150:3156   */\n      dup6\n        /* \"#utility.yul\":3147:3148   */\n      dup2\n        /* \"#utility.yul\":3144:3157   */\n      lt\n        /* \"#utility.yul\":3125:3556   */\n      iszero\n      tag_110\n      jumpi\n        /* \"#utility.yul\":3221:3230   */\n      dup5\n        /* \"#utility.yul\":3215:3219   */\n      dup5\n        /* \"#utility.yul\":3211:3231   */\n      sub\n        /* \"#utility.yul\":3206:3209   */\n      dup10\n        /* \"#utility.yul\":3199:3232   */\n      mstore\n        /* \"#utility.yul\":3272:3278   */\n      dup2\n        /* \"#utility.yul\":3266:3279   */\n      mload\n        /* \"#utility.yul\":3300:3408   */\n      tag_111\n        /* \"#utility.yul\":3403:3407   */\n      dup6\n        /* \"#utility.yul\":3388:3401   */\n      dup3\n        /* \"#utility.yul\":3300:3408   */\n      tag_96\n      jump\t// in\n    tag_111:\n        /* \"#utility.yul\":3292:3408   */\n      swap5\n      pop\n        /* \"#utility.yul\":3431:3512   */\n      tag_112\n        /* \"#utility.yul\":3505:3511   */\n      dup4\n        /* \"#utility.yul\":3431:3512   */\n      tag_113\n      jump\t// in\n    tag_112:\n        /* \"#utility.yul\":3421:3512   */\n      swap3\n      pop\n        /* \"#utility.yul\":3541:3545   */\n      0x20\n        /* \"#utility.yul\":3536:3539   */\n      dup11\n        /* \"#utility.yul\":3532:3546   */\n      add\n        /* \"#utility.yul\":3525:3546   */\n      swap10\n      pop\n        /* \"#utility.yul\":3185:3556   */\n      pop\n        /* \"#utility.yul\":3172:3173   */\n      0x01\n        /* \"#utility.yul\":3169:3170   */\n      dup2\n        /* \"#utility.yul\":3165:3174   */\n      add\n        /* \"#utility.yul\":3160:3174   */\n      swap1\n      pop\n        /* \"#utility.yul\":3125:3556   */\n      jump(tag_108)\n    tag_110:\n        /* \"#utility.yul\":3129:3143   */\n      pop\n        /* \"#utility.yul\":3572:3576   */\n      dup3\n        /* \"#utility.yul\":3565:3576   */\n      swap8\n      pop\n        /* \"#utility.yul\":3592:3595   */\n      dup8\n        /* \"#utility.yul\":3585:3595   */\n      swap6\n      pop\n        /* \"#utility.yul\":2686:3601   */\n      pop\n      pop\n      pop\n      pop\n      pop\n        /* \"#utility.yul\":2520:3601   */\n      swap3\n      swap2\n      pop\n      pop\n      jump\t// out\n        /* \"#utility.yul\":3607:3951   */\n    tag_114:\n        /* \"#utility.yul\":3685:3688   */\n      0x00\n        /* \"#utility.yul\":3713:3752   */\n      tag_116\n        /* \"#utility.yul\":3746:3751   */\n      dup3\n        /* \"#utility.yul\":3713:3752   */\n      tag_117\n      jump\t// in\n    tag_116:\n        /* \"#utility.yul\":3768:3829   */\n      tag_118\n        /* \"#utility.yul\":3822:3828   */\n      dup2\n        /* \"#utility.yul\":3817:3820   */\n      dup6\n        /* \"#utility.yul\":3768:3829   */\n      tag_119\n      jump\t// in\n    tag_118:\n        /* \"#utility.yul\":3761:3829   */\n      swap4\n      pop\n        /* \"#utility.yul\":3838:3890   */\n      tag_120\n        /* \"#utility.yul\":3883:3889   */\n      dup2\n        /* \"#utility.yul\":3878:3881   */\n      dup6\n        /* \"#utility.yul\":3871:3875   */\n      0x20\n        /* \"#utility.yul\":3864:3869   */\n      dup7\n        /* \"#utility.yul\":3860:3876   */\n      add\n        /* \"#utility.yul\":3838:3890   */\n      tag_121\n      jump\t// in\n    tag_120:\n        /* \"#utility.yul\":3915:3944   */\n      tag_122\n        /* \"#utility.yul\":3937:3943   */\n      dup2\n        /* \"#utility.yul\":3915:3944   */\n      tag_123\n      jump\t// in\n    tag_122:\n        /* \"#utility.yul\":3910:3913   */\n      dup5\n        /* \"#utility.yul\":3906:3945   */\n      add\n        /* \"#utility.yul\":3899:3945   */\n      swap2\n      pop\n        /* \"#utility.yul\":3689:3951   */\n      pop\n        /* \"#utility.yul\":3607:3951   */\n      swap3\n      swap2\n      pop\n      pop\n      jump\t// out\n        /* \"#utility.yul\":3957:4321   */\n    tag_124:\n        /* \"#utility.yul\":4045:4048   */\n      0x00\n        /* \"#utility.yul\":4073:4112   */\n      tag_126\n        /* \"#utility.yul\":4106:4111   */\n      dup3\n        /* \"#utility.yul\":4073:4112   */\n      tag_117\n      jump\t// in\n    tag_126:\n        /* \"#utility.yul\":4128:4199   */\n      tag_127\n        /* \"#utility.yul\":4192:4198   */\n      dup2\n        /* \"#utility.yul\":4187:4190   */\n      dup6\n        /* \"#utility.yul\":4128:4199   */\n      tag_128\n      jump\t// in\n    tag_127:\n        /* \"#utility.yul\":4121:4199   */\n      swap4\n      pop\n        /* \"#utility.yul\":4208:4260   */\n      tag_129\n        /* \"#utility.yul\":4253:4259   */\n      dup2\n        /* \"#utility.yul\":4248:4251   */\n      dup6\n        /* \"#utility.yul\":4241:4245   */\n      0x20\n        /* \"#utility.yul\":4234:4239   */\n      dup7\n        /* \"#utility.yul\":4230:4246   */\n      add\n        /* \"#utility.yul\":4208:4260   */\n      tag_121\n      jump\t// in\n    tag_129:\n        /* \"#utility.yul\":4285:4314   */\n      tag_130\n        /* \"#utility.yul\":4307:4313   */\n      dup2\n        /* \"#utility.yul\":4285:4314   */\n      tag_123\n      jump\t// in\n    tag_130:\n        /* \"#utility.yul\":4280:4283   */\n      dup5\n        /* \"#utility.yul\":4276:4315   */\n      add\n        /* \"#utility.yul\":4269:4315   */\n      swap2\n      pop\n        /* \"#utility.yul\":4049:4321   */\n      pop\n        /* \"#utility.yul\":3957:4321   */\n      swap3\n      swap2\n      pop\n      pop\n      jump\t// out\n        /* \"#utility.yul\":4373:5136   */\n    tag_99:\n        /* \"#utility.yul\":4476:4479   */\n      0x00\n        /* \"#utility.yul\":4512:4516   */\n      0x60\n        /* \"#utility.yul\":4507:4510   */\n      dup4\n        /* \"#utility.yul\":4503:4517   */\n      add\n        /* \"#utility.yul\":4599:4603   */\n      0x00\n        /* \"#utility.yul\":4592:4597   */\n      dup4\n        /* \"#utility.yul\":4588:4604   */\n      add\n        /* \"#utility.yul\":4582:4605   */\n      mload\n        /* \"#utility.yul\":4618:4681   */\n      tag_132\n        /* \"#utility.yul\":4675:4679   */\n      0x00\n        /* \"#utility.yul\":4670:4673   */\n      dup7\n        /* \"#utility.yul\":4666:4680   */\n      add\n        /* \"#utility.yul\":4652:4664   */\n      dup3\n        /* \"#utility.yul\":4618:4681   */\n      tag_133\n      jump\t// in\n    tag_132:\n        /* \"#utility.yul\":4527:4691   */\n      pop\n        /* \"#utility.yul\":4773:4777   */\n      0x20\n        /* \"#utility.yul\":4766:4771   */\n      dup4\n        /* \"#utility.yul\":4762:4778   */\n      add\n        /* \"#utility.yul\":4756:4779   */\n      mload\n        /* \"#utility.yul\":4826:4829   */\n      dup5\n        /* \"#utility.yul\":4820:4824   */\n      dup3\n        /* \"#utility.yul\":4816:4830   */\n      sub\n        /* \"#utility.yul\":4809:4813   */\n      0x20\n        /* \"#utility.yul\":4804:4807   */\n      dup7\n        /* \"#utility.yul\":4800:4814   */\n      add\n        /* \"#utility.yul\":4793:4831   */\n      mstore\n        /* \"#utility.yul\":4852:4925   */\n      tag_134\n        /* \"#utility.yul\":4920:4924   */\n      dup3\n        /* \"#utility.yul\":4906:4918   */\n      dup3\n        /* \"#utility.yul\":4852:4925   */\n      tag_114\n      jump\t// in\n    tag_134:\n        /* \"#utility.yul\":4844:4925   */\n      swap2\n      pop\n        /* \"#utility.yul\":4701:4936   */\n      pop\n        /* \"#utility.yul\":5017:5021   */\n      0x40\n        /* \"#utility.yul\":5010:5015   */\n      dup4\n        /* \"#utility.yul\":5006:5022   */\n      add\n        /* \"#utility.yul\":5000:5023   */\n      mload\n        /* \"#utility.yul\":5036:5099   */\n      tag_135\n        /* \"#utility.yul\":5093:5097   */\n      0x40\n        /* \"#utility.yul\":5088:5091   */\n      dup7\n        /* \"#utility.yul\":5084:5098   */\n      add\n        /* \"#utility.yul\":5070:5082   */\n      dup3\n        /* \"#utility.yul\":5036:5099   */\n      tag_133\n      jump\t// in\n    tag_135:\n        /* \"#utility.yul\":4946:5109   */\n      pop\n        /* \"#utility.yul\":5126:5130   */\n      dup1\n        /* \"#utility.yul\":5119:5130   */\n      swap2\n      pop\n        /* \"#utility.yul\":4481:5136   */\n      pop\n        /* \"#utility.yul\":4373:5136   */\n      swap3\n      swap2\n      pop\n      pop\n      jump\t// out\n        /* \"#utility.yul\":5142:5250   */\n    tag_133:\n        /* \"#utility.yul\":5219:5243   */\n      tag_137\n        /* \"#utility.yul\":5237:5242   */\n      dup2\n        /* \"#utility.yul\":5219:5243   */\n      tag_138\n      jump\t// in\n    tag_137:\n        /* \"#utility.yul\":5214:5217   */\n      dup3\n        /* \"#utility.yul\":5207:5244   */\n      mstore\n        /* \"#utility.yul\":5142:5250   */\n      pop\n      pop\n      jump\t// out\n        /* \"#utility.yul\":5256:5374   */\n    tag_139:\n        /* \"#utility.yul\":5343:5367   */\n      tag_141\n        /* \"#utility.yul\":5361:5366   */\n      dup2\n        /* \"#utility.yul\":5343:5367   */\n      tag_138\n      jump\t// in\n    tag_141:\n        /* \"#utility.yul\":5338:5341   */\n      dup3\n        /* \"#utility.yul\":5331:5368   */\n      mstore\n        /* \"#utility.yul\":5256:5374   */\n      pop\n      pop\n      jump\t// out\n        /* \"#utility.yul\":5380:5837   */\n    tag_9:\n        /* \"#utility.yul\":5565:5569   */\n      0x00\n        /* \"#utility.yul\":5603:5605   */\n      0x20\n        /* \"#utility.yul\":5592:5601   */\n      dup3\n        /* \"#utility.yul\":5588:5606   */\n      add\n        /* \"#utility.yul\":5580:5606   */\n      swap1\n      pop\n        /* \"#utility.yul\":5652:5661   */\n      dup2\n        /* \"#utility.yul\":5646:5650   */\n      dup2\n        /* \"#utility.yul\":5642:5662   */\n      sub\n        /* \"#utility.yul\":5638:5639   */\n      0x00\n        /* \"#utility.yul\":5627:5636   */\n      dup4\n        /* \"#utility.yul\":5623:5640   */\n      add\n        /* \"#utility.yul\":5616:5663   */\n      mstore\n        /* \"#utility.yul\":5680:5830   */\n      tag_143\n        /* \"#utility.yul\":5825:5829   */\n      dup2\n        /* \"#utility.yul\":5816:5822   */\n      dup5\n        /* \"#utility.yul\":5680:5830   */\n      tag_100\n      jump\t// in\n    tag_143:\n        /* \"#utility.yul\":5672:5830   */\n      swap1\n      pop\n        /* \"#utility.yul\":5380:5837   */\n      swap3\n      swap2\n      pop\n      pop\n      jump\t// out\n        /* \"#utility.yul\":5843:6376   */\n    tag_15:\n        /* \"#utility.yul\":6012:6016   */\n      0x00\n        /* \"#utility.yul\":6050:6052   */\n      0x60\n        /* \"#utility.yul\":6039:6048   */\n      dup3\n        /* \"#utility.yul\":6035:6053   */\n      add\n        /* \"#utility.yul\":6027:6053   */\n      swap1\n      pop\n        /* \"#utility.yul\":6063:6134   */\n      tag_145\n        /* \"#utility.yul\":6131:6132   */\n      0x00\n        /* \"#utility.yul\":6120:6129   */\n      dup4\n        /* \"#utility.yul\":6116:6133   */\n      add\n        /* \"#utility.yul\":6107:6113   */\n      dup7\n        /* \"#utility.yul\":6063:6134   */\n      tag_139\n      jump\t// in\n    tag_145:\n        /* \"#utility.yul\":6181:6190   */\n      dup2\n        /* \"#utility.yul\":6175:6179   */\n      dup2\n        /* \"#utility.yul\":6171:6191   */\n      sub\n        /* \"#utility.yul\":6166:6168   */\n      0x20\n        /* \"#utility.yul\":6155:6164   */\n      dup4\n        /* \"#utility.yul\":6151:6169   */\n      add\n        /* \"#utility.yul\":6144:6192   */\n      mstore\n        /* \"#utility.yul\":6209:6287   */\n      tag_146\n        /* \"#utility.yul\":6282:6286   */\n      dup2\n        /* \"#utility.yul\":6273:6279   */\n      dup6\n        /* \"#utility.yul\":6209:6287   */\n      tag_124\n      jump\t// in\n    tag_146:\n        /* \"#utility.yul\":6201:6287   */\n      swap1\n      pop\n        /* \"#utility.yul\":6297:6369   */\n      tag_147\n        /* \"#utility.yul\":6365:6367   */\n      0x40\n        /* \"#utility.yul\":6354:6363   */\n      dup4\n        /* \"#utility.yul\":6350:6368   */\n      add\n        /* \"#utility.yul\":6341:6347   */\n      dup5\n        /* \"#utility.yul\":6297:6369   */\n      tag_139\n      jump\t// in\n    tag_147:\n        /* \"#utility.yul\":5843:6376   */\n      swap5\n      swap4\n      pop\n      pop\n      pop\n      pop\n      jump\t// out\n        /* \"#utility.yul\":6382:6511   */\n    tag_65:\n        /* \"#utility.yul\":6416:6422   */\n      0x00\n        /* \"#utility.yul\":6443:6463   */\n      tag_149\n      tag_150\n      jump\t// in\n    tag_149:\n        /* \"#utility.yul\":6433:6463   */\n      swap1\n      pop\n        /* \"#utility.yul\":6472:6505   */\n      tag_151\n        /* \"#utility.yul\":6500:6504   */\n      dup3\n        /* \"#utility.yul\":6492:6498   */\n      dup3\n        /* \"#utility.yul\":6472:6505   */\n      tag_152\n      jump\t// in\n    tag_151:\n        /* \"#utility.yul\":6382:6511   */\n      swap2\n      swap1\n      pop\n      jump\t// out\n        /* \"#utility.yul\":6517:6592   */\n    tag_150:\n        /* \"#utility.yul\":6550:6556   */\n      0x00\n        /* \"#utility.yul\":6583:6585   */\n      0x40\n        /* \"#utility.yul\":6577:6586   */\n      mload\n        /* \"#utility.yul\":6567:6586   */\n      swap1\n      pop\n        /* \"#utility.yul\":6517:6592   */\n      swap1\n      jump\t// out\n        /* \"#utility.yul\":6598:6906   */\n    tag_64:\n        /* \"#utility.yul\":6660:6664   */\n      0x00\n        /* \"#utility.yul\":6750:6768   */\n      0xffffffffffffffff\n        /* \"#utility.yul\":6742:6748   */\n      dup3\n        /* \"#utility.yul\":6739:6769   */\n      gt\n        /* \"#utility.yul\":6736:6792   */\n      iszero\n      tag_155\n      jumpi\n        /* \"#utility.yul\":6772:6790   */\n      tag_156\n      tag_157\n      jump\t// in\n    tag_156:\n        /* \"#utility.yul\":6736:6792   */\n    tag_155:\n        /* \"#utility.yul\":6810:6839   */\n      tag_158\n        /* \"#utility.yul\":6832:6838   */\n      dup3\n        /* \"#utility.yul\":6810:6839   */\n      tag_123\n      jump\t// in\n    tag_158:\n        /* \"#utility.yul\":6802:6839   */\n      swap1\n      pop\n        /* \"#utility.yul\":6894:6898   */\n      0x20\n        /* \"#utility.yul\":6888:6892   */\n      dup2\n        /* \"#utility.yul\":6884:6899   */\n      add\n        /* \"#utility.yul\":6876:6899   */\n      swap1\n      pop\n        /* \"#utility.yul\":6598:6906   */\n      swap2\n      swap1\n      pop\n      jump\t// out\n        /* \"#utility.yul\":6912:7033   */\n    tag_107:\n        /* \"#utility.yul\":7000:7004   */\n      0x00\n        /* \"#utility.yul\":7023:7026   */\n      dup2\n        /* \"#utility.yul\":7015:7026   */\n      swap1\n      pop\n        /* \"#utility.yul\":6912:7033   */\n      swap2\n      swap1\n      pop\n      jump\t// out\n        /* \"#utility.yul\":7039:7166   */\n    tag_103:\n        /* \"#utility.yul\":7127:7133   */\n      0x00\n        /* \"#utility.yul\":7155:7159   */\n      0x0a\n        /* \"#utility.yul\":7145:7159   */\n      swap1\n      pop\n        /* \"#utility.yul\":7039:7166   */\n      swap2\n      swap1\n      pop\n      jump\t// out\n        /* \"#utility.yul\":7172:7271   */\n    tag_117:\n        /* \"#utility.yul\":7224:7230   */\n      0x00\n        /* \"#utility.yul\":7258:7263   */\n      dup2\n        /* \"#utility.yul\":7252:7264   */\n      mload\n        /* \"#utility.yul\":7242:7264   */\n      swap1\n      pop\n        /* \"#utility.yul\":7172:7271   */\n      swap2\n      swap1\n      pop\n      jump\t// out\n        /* \"#utility.yul\":7277:7411   */\n    tag_113:\n        /* \"#utility.yul\":7368:7372   */\n      0x00\n        /* \"#utility.yul\":7400:7404   */\n      0x20\n        /* \"#utility.yul\":7395:7398   */\n      dup3\n        /* \"#utility.yul\":7391:7405   */\n      add\n        /* \"#utility.yul\":7383:7405   */\n      swap1\n      pop\n        /* \"#utility.yul\":7277:7411   */\n      swap2\n      swap1\n      pop\n      jump\t// out\n        /* \"#utility.yul\":7417:7583   */\n    tag_105:\n        /* \"#utility.yul\":7537:7548   */\n      0x00\n        /* \"#utility.yul\":7574:7577   */\n      dup2\n        /* \"#utility.yul\":7559:7577   */\n      swap1\n      pop\n        /* \"#utility.yul\":7417:7583   */\n      swap3\n      swap2\n      pop\n      pop\n      jump\t// out\n        /* \"#utility.yul\":7589:7748   */\n    tag_119:\n        /* \"#utility.yul\":7663:7674   */\n      0x00\n        /* \"#utility.yul\":7697:7703   */\n      dup3\n        /* \"#utility.yul\":7692:7695   */\n      dup3\n        /* \"#utility.yul\":7685:7704   */\n      mstore\n        /* \"#utility.yul\":7737:7741   */\n      0x20\n        /* \"#utility.yul\":7732:7735   */\n      dup3\n        /* \"#utility.yul\":7728:7742   */\n      add\n        /* \"#utility.yul\":7713:7742   */\n      swap1\n      pop\n        /* \"#utility.yul\":7589:7748   */\n      swap3\n      swap2\n      pop\n      pop\n      jump\t// out\n        /* \"#utility.yul\":7754:7923   */\n    tag_128:\n        /* \"#utility.yul\":7838:7849   */\n      0x00\n        /* \"#utility.yul\":7872:7878   */\n      dup3\n        /* \"#utility.yul\":7867:7870   */\n      dup3\n        /* \"#utility.yul\":7860:7879   */\n      mstore\n        /* \"#utility.yul\":7912:7916   */\n      0x20\n        /* \"#utility.yul\":7907:7910   */\n      dup3\n        /* \"#utility.yul\":7903:7917   */\n      add\n        /* \"#utility.yul\":7888:7917   */\n      swap1\n      pop\n        /* \"#utility.yul\":7754:7923   */\n      swap3\n      swap2\n      pop\n      pop\n      jump\t// out\n        /* \"#utility.yul\":7929:8006   */\n    tag_138:\n        /* \"#utility.yul\":7966:7973   */\n      0x00\n        /* \"#utility.yul\":7995:8000   */\n      dup2\n        /* \"#utility.yul\":7984:8000   */\n      swap1\n      pop\n        /* \"#utility.yul\":7929:8006   */\n      swap2\n      swap1\n      pop\n      jump\t// out\n        /* \"#utility.yul\":8012:8166   */\n    tag_70:\n        /* \"#utility.yul\":8096:8102   */\n      dup3\n        /* \"#utility.yul\":8091:8094   */\n      dup2\n        /* \"#utility.yul\":8086:8089   */\n      dup4\n        /* \"#utility.yul\":8073:8103   */\n      calldatacopy\n        /* \"#utility.yul\":8158:8159   */\n      0x00\n        /* \"#utility.yul\":8149:8155   */\n      dup4\n        /* \"#utility.yul\":8144:8147   */\n      dup4\n        /* \"#utility.yul\":8140:8156   */\n      add\n        /* \"#utility.yul\":8133:8160   */\n      mstore\n        /* \"#utility.yul\":8012:8166   */\n      pop\n      pop\n      pop\n      jump\t// out\n        /* \"#utility.yul\":8172:8479   */\n    tag_121:\n        /* \"#utility.yul\":8240:8241   */\n      0x00\n        /* \"#utility.yul\":8250:8363   */\n    tag_169:\n        /* \"#utility.yul\":8264:8270   */\n      dup4\n        /* \"#utility.yul\":8261:8262   */\n      dup2\n        /* \"#utility.yul\":8258:8271   */\n      lt\n        /* \"#utility.yul\":8250:8363   */\n      iszero\n      tag_171\n      jumpi\n        /* \"#utility.yul\":8349:8350   */\n      dup1\n        /* \"#utility.yul\":8344:8347   */\n      dup3\n        /* \"#utility.yul\":8340:8351   */\n      add\n        /* \"#utility.yul\":8334:8352   */\n      mload\n        /* \"#utility.yul\":8330:8331   */\n      dup2\n        /* \"#utility.yul\":8325:8328   */\n      dup5\n        /* \"#utility.yul\":8321:8332   */\n      add\n        /* \"#utility.yul\":8314:8353   */\n      mstore\n        /* \"#utility.yul\":8286:8288   */\n      0x20\n        /* \"#utility.yul\":8283:8284   */\n      dup2\n        /* \"#utility.yul\":8279:8289   */\n      add\n        /* \"#utility.yul\":8274:8289   */\n      swap1\n      pop\n        /* \"#utility.yul\":8250:8363   */\n      jump(tag_169)\n    tag_171:\n        /* \"#utility.yul\":8381:8387   */\n      dup4\n        /* \"#utility.yul\":8378:8379   */\n      dup2\n        /* \"#utility.yul\":8375:8388   */\n      gt\n        /* \"#utility.yul\":8372:8473   */\n      iszero\n      tag_172\n      jumpi\n        /* \"#utility.yul\":8461:8462   */\n      0x00\n        /* \"#utility.yul\":8452:8458   */\n      dup5\n        /* \"#utility.yul\":8447:8450   */\n      dup5\n        /* \"#utility.yul\":8443:8459   */\n      add\n        /* \"#utility.yul\":8436:8463   */\n      mstore\n        /* \"#utility.yul\":8372:8473   */\n    tag_172:\n        /* \"#utility.yul\":8221:8479   */\n      pop\n        /* \"#utility.yul\":8172:8479   */\n      pop\n      pop\n      pop\n      jump\t// out\n        /* \"#utility.yul\":8485:8805   */\n    tag_27:\n        /* \"#utility.yul\":8529:8535   */\n      0x00\n        /* \"#utility.yul\":8566:8567   */\n      0x02\n        /* \"#utility.yul\":8560:8564   */\n      dup3\n        /* \"#utility.yul\":8556:8568   */\n      div\n        /* \"#utility.yul\":8546:8568   */\n      swap1\n      pop\n        /* \"#utility.yul\":8613:8614   */\n      0x01\n        /* \"#utility.yul\":8607:8611   */\n      dup3\n        /* \"#utility.yul\":8603:8615   */\n      and\n        /* \"#utility.yul\":8634:8652   */\n      dup1\n        /* \"#utility.yul\":8624:8705   */\n      tag_174\n      jumpi\n        /* \"#utility.yul\":8690:8694   */\n      0x7f\n        /* \"#utility.yul\":8682:8688   */\n      dup3\n        /* \"#utility.yul\":8678:8695   */\n      and\n        /* \"#utility.yul\":8668:8695   */\n      swap2\n      pop\n        /* \"#utility.yul\":8624:8705   */\n    tag_174:\n        /* \"#utility.yul\":8752:8754   */\n      0x20\n        /* \"#utility.yul\":8744:8750   */\n      dup3\n        /* \"#utility.yul\":8741:8755   */\n      lt\n        /* \"#utility.yul\":8721:8739   */\n      dup2\n        /* \"#utility.yul\":8718:8756   */\n      eq\n        /* \"#utility.yul\":8715:8799   */\n      iszero\n      tag_175\n      jumpi\n        /* \"#utility.yul\":8771:8789   */\n      tag_176\n      tag_177\n      jump\t// in\n    tag_176:\n        /* \"#utility.yul\":8715:8799   */\n    tag_175:\n        /* \"#utility.yul\":8536:8805   */\n      pop\n        /* \"#utility.yul\":8485:8805   */\n      swap2\n      swap1\n      pop\n      jump\t// out\n        /* \"#utility.yul\":8811:9092   */\n    tag_152:\n        /* \"#utility.yul\":8894:8921   */\n      tag_179\n        /* \"#utility.yul\":8916:8920   */\n      dup3\n        /* \"#utility.yul\":8894:8921   */\n      tag_123\n      jump\t// in\n    tag_179:\n        /* \"#utility.yul\":8886:8892   */\n      dup2\n        /* \"#utility.yul\":8882:8922   */\n      add\n        /* \"#utility.yul\":9024:9030   */\n      dup2\n        /* \"#utility.yul\":9012:9022   */\n      dup2\n        /* \"#utility.yul\":9009:9031   */\n      lt\n        /* \"#utility.yul\":8988:9006   */\n      0xffffffffffffffff\n        /* \"#utility.yul\":8976:8986   */\n      dup3\n        /* \"#utility.yul\":8973:9007   */\n      gt\n        /* \"#utility.yul\":8970:9032   */\n      or\n        /* \"#utility.yul\":8967:9055   */\n      iszero\n      tag_180\n      jumpi\n        /* \"#utility.yul\":9035:9053   */\n      tag_181\n      tag_157\n      jump\t// in\n    tag_181:\n        /* \"#utility.yul\":8967:9055   */\n    tag_180:\n        /* \"#utility.yul\":9075:9085   */\n      dup1\n        /* \"#utility.yul\":9071:9073   */\n      0x40\n        /* \"#utility.yul\":9064:9086   */\n      mstore\n        /* \"#utility.yul\":8854:9092   */\n      pop\n        /* \"#utility.yul\":8811:9092   */\n      pop\n      pop\n      jump\t// out\n        /* \"#utility.yul\":9098:9278   */\n    tag_177:\n        /* \"#utility.yul\":9146:9223   */\n      0x4e487b7100000000000000000000000000000000000000000000000000000000\n        /* \"#utility.yul\":9143:9144   */\n      0x00\n        /* \"#utility.yul\":9136:9224   */\n      mstore\n        /* \"#utility.yul\":9243:9247   */\n      0x22\n        /* \"#utility.yul\":9240:9241   */\n      0x04\n        /* \"#utility.yul\":9233:9248   */\n      mstore\n        /* \"#utility.yul\":9267:9271   */\n      0x24\n        /* \"#utility.yul\":9264:9265   */\n      0x00\n        /* \"#utility.yul\":9257:9272   */\n      revert\n        /* \"#utility.yul\":9284:9464   */\n    tag_42:\n        /* \"#utility.yul\":9332:9409   */\n      0x4e487b7100000000000000000000000000000000000000000000000000000000\n        /* \"#utility.yul\":9329:9330   */\n      0x00\n        /* \"#utility.yul\":9322:9410   */\n      mstore\n        /* \"#utility.yul\":9429:9433   */\n      0x32\n        /* \"#utility.yul\":9426:9427   */\n      0x04\n        /* \"#utility.yul\":9419:9434   */\n      mstore\n        /* \"#utility.yul\":9453:9457   */\n      0x24\n        /* \"#utility.yul\":9450:9451   */\n      0x00\n        /* \"#utility.yul\":9443:9458   */\n      revert\n        /* \"#utility.yul\":9470:9650   */\n    tag_157:\n        /* \"#utility.yul\":9518:9595   */\n      0x4e487b7100000000000000000000000000000000000000000000000000000000\n        /* \"#utility.yul\":9515:9516   */\n      0x00\n        /* \"#utility.yul\":9508:9596   */\n      mstore\n        /* \"#utility.yul\":9615:9619   */\n      0x41\n        /* \"#utility.yul\":9612:9613   */\n      0x04\n        /* \"#utility.yul\":9605:9620   */\n      mstore\n        /* \"#utility.yul\":9639:9643   */\n      0x24\n        /* \"#utility.yul\":9636:9637   */\n      0x00\n        /* \"#utility.yul\":9629:9644   */\n      revert\n        /* \"#utility.yul\":9656:9773   */\n    tag_75:\n        /* \"#utility.yul\":9765:9766   */\n      0x00\n        /* \"#utility.yul\":9762:9763   */\n      dup1\n        /* \"#utility.yul\":9755:9767   */\n      revert\n        /* \"#utility.yul\":9779:9896   */\n    tag_68:\n        /* \"#utility.yul\":9888:9889   */\n      0x00\n        /* \"#utility.yul\":9885:9886   */\n      dup1\n        /* \"#utility.yul\":9878:9890   */\n      revert\n        /* \"#utility.yul\":9902:10019   */\n    tag_93:\n        /* \"#utility.yul\":10011:10012   */\n      0x00\n        /* \"#utility.yul\":10008:10009   */\n      dup1\n        /* \"#utility.yul\":10001:10013   */\n      revert\n        /* \"#utility.yul\":10025:10142   */\n    tag_84:\n        /* \"#utility.yul\":10134:10135   */\n      0x00\n        /* \"#utility.yul\":10131:10132   */\n      dup1\n        /* \"#utility.yul\":10124:10136   */\n      revert\n        /* \"#utility.yul\":10148:10250   */\n    tag_123:\n        /* \"#utility.yul\":10189:10195   */\n      0x00\n        /* \"#utility.yul\":10240:10242   */\n      0x1f\n        /* \"#utility.yul\":10236:10243   */\n      not\n        /* \"#utility.yul\":10231:10233   */\n      0x1f\n        /* \"#utility.yul\":10224:10229   */\n      dup4\n        /* \"#utility.yul\":10220:10234   */\n      add\n        /* \"#utility.yul\":10216:10244   */\n      and\n        /* \"#utility.yul\":10206:10244   */\n      swap1\n      pop\n        /* \"#utility.yul\":10148:10250   */\n      swap2\n      swap1\n      pop\n      jump\t// out\n        /* \"#utility.yul\":10256:10378   */\n    tag_80:\n        /* \"#utility.yul\":10329:10353   */\n      tag_191\n        /* \"#utility.yul\":10347:10352   */\n      dup2\n        /* \"#utility.yul\":10329:10353   */\n      tag_138\n      jump\t// in\n    tag_191:\n        /* \"#utility.yul\":10322:10327   */\n      dup2\n        /* \"#utility.yul\":10319:10354   */\n      eq\n        /* \"#utility.yul\":10309:10372   */\n      tag_192\n      jumpi\n        /* \"#utility.yul\":10368:10369   */\n      0x00\n        /* \"#utility.yul\":10365:10366   */\n      dup1\n        /* \"#utility.yul\":10358:10370   */\n      revert\n        /* \"#utility.yul\":10309:10372   */\n    tag_192:\n        /* \"#utility.yul\":10256:10378   */\n      pop\n      jump\t// out\n\n    auxdata: 0xa26469706673582212208e79d2d0f9a92ac113a47ffb024744fbf622c641727ea884a9495195294d307364736f6c63430008070033\n}\n",
				"bytecode": {
					"linkReferences": {},
					"object": "608060405234801561001057600080fd5b5061091d806100206000396000f3fe608060405234801561001057600080fd5b50600436106100415760003560e01c80637d9fd1c3146100465780638c53f85f14610064578063aaefce3914610096575b600080fd5b61004e6100b2565b60405161005b919061065f565b60405180910390f35b61007e60048036038101906100799190610446565b6101aa565b60405161008d93929190610681565b60405180910390f35b6100b060048036038101906100ab9190610473565b610262565b005b6100ba6102cf565b6000600a80602002604051908101604052809291906000905b828210156101a15783826003020160405180606001604052908160008201548152602001600182018054610106906107bb565b80601f0160208091040260200160405190810160405280929190818152602001828054610132906107bb565b801561017f5780601f106101545761010080835404028352916020019161017f565b820191906000526020600020905b81548152906001019060200180831161016257829003601f168201915b50505050508152602001600282015481525050815260200190600101906100d3565b50505050905090565b600081600a81106101ba57600080fd5b600302016000915090508060000154908060010180546101d9906107bb565b80601f0160208091040260200160405190810160405280929190818152602001828054610205906107bb565b80156102525780601f1061022757610100808354040283529160200191610252565b820191906000526020600020905b81548152906001019060200180831161023557829003601f168201915b5050505050908060020154905083565b604051806060016040528084815260200183815260200182815250600085600a81106102915761029061084d565b5b600302016000820151816000015560208201518160010190805190602001906102bb9291906102fd565b506040820151816002015590505050505050565b604051806101400160405280600a905b6102e7610383565b8152602001906001900390816102df5790505090565b828054610309906107bb565b90600052602060002090601f01602090048101928261032b5760008555610372565b82601f1061034457805160ff1916838001178555610372565b82800160010185558215610372579182015b82811115610371578251825591602001919060010190610356565b5b50905061037f91906103a4565b5090565b60405180606001604052806000815260200160608152602001600081525090565b5b808211156103bd5760008160009055506001016103a5565b5090565b60006103d46103cf846106e4565b6106bf565b9050828152602081018484840111156103f0576103ef6108b0565b5b6103fb848285610779565b509392505050565b600082601f830112610418576104176108ab565b5b81356104288482602086016103c1565b91505092915050565b600081359050610440816108d0565b92915050565b60006020828403121561045c5761045b6108ba565b5b600061046a84828501610431565b91505092915050565b6000806000806080858703121561048d5761048c6108ba565b5b600061049b87828801610431565b94505060206104ac87828801610431565b935050604085013567ffffffffffffffff8111156104cd576104cc6108b5565b5b6104d987828801610403565b92505060606104ea87828801610431565b91505092959194509250565b600061050283836105f1565b905092915050565b60006105158261071f565b61051f8185610742565b93508360208202850161053185610715565b8060005b8581101561056d578484038952815161054e85826104f6565b945061055983610735565b925060208a01995050600181019050610535565b50829750879550505050505092915050565b600061058a8261072a565b610594818561074d565b93506105a4818560208601610788565b6105ad816108bf565b840191505092915050565b60006105c38261072a565b6105cd818561075e565b93506105dd818560208601610788565b6105e6816108bf565b840191505092915050565b60006060830160008301516106096000860182610641565b5060208301518482036020860152610621828261057f565b91505060408301516106366040860182610641565b508091505092915050565b61064a8161076f565b82525050565b6106598161076f565b82525050565b60006020820190508181036000830152610679818461050a565b905092915050565b60006060820190506106966000830186610650565b81810360208301526106a881856105b8565b90506106b76040830184610650565b949350505050565b60006106c96106da565b90506106d582826107ed565b919050565b6000604051905090565b600067ffffffffffffffff8211156106ff576106fe61087c565b5b610708826108bf565b9050602081019050919050565b6000819050919050565b6000600a9050919050565b600081519050919050565b6000602082019050919050565b600081905092915050565b600082825260208201905092915050565b600082825260208201905092915050565b6000819050919050565b82818337600083830152505050565b60005b838110156107a657808201518184015260208101905061078b565b838111156107b5576000848401525b50505050565b600060028204905060018216806107d357607f821691505b602082108114156107e7576107e661081e565b5b50919050565b6107f6826108bf565b810181811067ffffffffffffffff821117156108155761081461087c565b5b80604052505050565b7f4e487b7100000000000000000000000000000000000000000000000000000000600052602260045260246000fd5b7f4e487b7100000000000000000000000000000000000000000000000000000000600052603260045260246000fd5b7f4e487b7100000000000000000000000000000000000000000000000000000000600052604160045260246000fd5b600080fd5b600080fd5b600080fd5b600080fd5b6000601f19601f8301169050919050565b6108d98161076f565b81146108e457600080fd5b5056fea26469706673582212208e79d2d0f9a92ac113a47ffb024744fbf622c641727ea884a9495195294d307364736f6c63430008070033",
					"opcodes": "PUSH1 0x80 PUSH1 0x40 MSTORE CALLVALUE DUP1 ISZERO PUSH2 0x10 JUMPI PUSH1 0x0 DUP1 REVERT JUMPDEST POP PUSH2 0x91D DUP1 PUSH2 0x20 PUSH1 0x0 CODECOPY PUSH1 0x0 RETURN INVALID PUSH1 0x80 PUSH1 0x40 MSTORE CALLVALUE DUP1 ISZERO PUSH2 0x10 JUMPI PUSH1 0x0 DUP1 REVERT JUMPDEST POP PUSH1 0x4 CALLDATASIZE LT PUSH2 0x41 JUMPI PUSH1 0x0 CALLDATALOAD PUSH1 0xE0 SHR DUP1 PUSH4 0x7D9FD1C3 EQ PUSH2 0x46 JUMPI DUP1 PUSH4 0x8C53F85F EQ PUSH2 0x64 JUMPI DUP1 PUSH4 0xAAEFCE39 EQ PUSH2 0x96 JUMPI JUMPDEST PUSH1 0x0 DUP1 REVERT JUMPDEST PUSH2 0x4E PUSH2 0xB2 JUMP JUMPDEST PUSH1 0x40 MLOAD PUSH2 0x5B SWAP2 SWAP1 PUSH2 0x65F JUMP JUMPDEST PUSH1 0x40 MLOAD DUP1 SWAP2 SUB SWAP1 RETURN JUMPDEST PUSH2 0x7E PUSH1 0x4 DUP1 CALLDATASIZE SUB DUP2 ADD SWAP1 PUSH2 0x79 SWAP2 SWAP1 PUSH2 0x446 JUMP JUMPDEST PUSH2 0x1AA JUMP JUMPDEST PUSH1 0x40 MLOAD PUSH2 0x8D SWAP4 SWAP3 SWAP2 SWAP1 PUSH2 0x681 JUMP JUMPDEST PUSH1 0x40 MLOAD DUP1 SWAP2 SUB SWAP1 RETURN JUMPDEST PUSH2 0xB0 PUSH1 0x4 DUP1 CALLDATASIZE SUB DUP2 ADD SWAP1 PUSH2 0xAB SWAP2 SWAP1 PUSH2 0x473 JUMP JUMPDEST PUSH2 0x262 JUMP JUMPDEST STOP JUMPDEST PUSH2 0xBA PUSH2 0x2CF JUMP JUMPDEST PUSH1 0x0 PUSH1 0xA DUP1 PUSH1 0x20 MUL PUSH1 0x40 MLOAD SWAP1 DUP2 ADD PUSH1 0x40 MSTORE DUP1 SWAP3 SWAP2 SWAP1 PUSH1 0x0 SWAP1 JUMPDEST DUP3 DUP3 LT ISZERO PUSH2 0x1A1 JUMPI DUP4 DUP3 PUSH1 0x3 MUL ADD PUSH1 0x40 MLOAD DUP1 PUSH1 0x60 ADD PUSH1 0x40 MSTORE SWAP1 DUP2 PUSH1 0x0 DUP3 ADD SLOAD DUP2 MSTORE PUSH1 0x20 ADD PUSH1 0x1 DUP3 ADD DUP1 SLOAD PUSH2 0x106 SWAP1 PUSH2 0x7BB JUMP JUMPDEST DUP1 PUSH1 0x1F ADD PUSH1 0x20 DUP1 SWAP2 DIV MUL PUSH1 0x20 ADD PUSH1 0x40 MLOAD SWAP1 DUP2 ADD PUSH1 0x40 MSTORE DUP1 SWAP3 SWAP2 SWAP1 DUP2 DUP2 MSTORE PUSH1 0x20 ADD DUP3 DUP1 SLOAD PUSH2 0x132 SWAP1 PUSH2 0x7BB JUMP JUMPDEST DUP1 ISZERO PUSH2 0x17F JUMPI DUP1 PUSH1 0x1F LT PUSH2 0x154 JUMPI PUSH2 0x100 DUP1 DUP4 SLOAD DIV MUL DUP4 MSTORE SWAP2 PUSH1 0x20 ADD SWAP2 PUSH2 0x17F JUMP JUMPDEST DUP3 ADD SWAP2 SWAP1 PUSH1 0x0 MSTORE PUSH1 0x20 PUSH1 0x0 KECCAK256 SWAP1 JUMPDEST DUP2 SLOAD DUP2 MSTORE SWAP1 PUSH1 0x1 ADD SWAP1 PUSH1 0x20 ADD DUP1 DUP4 GT PUSH2 0x162 JUMPI DUP3 SWAP1 SUB PUSH1 0x1F AND DUP3 ADD SWAP2 JUMPDEST POP POP POP POP POP DUP2 MSTORE PUSH1 0x20 ADD PUSH1 0x2 DUP3 ADD SLOAD DUP2 MSTORE POP POP DUP2 MSTORE PUSH1 0x20 ADD SWAP1 PUSH1 0x1 ADD SWAP1 PUSH2 0xD3 JUMP JUMPDEST POP POP POP POP SWAP1 POP SWAP1 JUMP JUMPDEST PUSH1 0x0 DUP2 PUSH1 0xA DUP2 LT PUSH2 0x1BA JUMPI PUSH1 0x0 DUP1 REVERT JUMPDEST PUSH1 0x3 MUL ADD PUSH1 0x0 SWAP2 POP SWAP1 POP DUP1 PUSH1 0x0 ADD SLOAD SWAP1 DUP1 PUSH1 0x1 ADD DUP1 SLOAD PUSH2 0x1D9 SWAP1 PUSH2 0x7BB JUMP JUMPDEST DUP1 PUSH1 0x1F ADD PUSH1 0x20 DUP1 SWAP2 DIV MUL PUSH1 0x20 ADD PUSH1 0x40 MLOAD SWAP1 DUP2 ADD PUSH1 0x40 MSTORE DUP1 SWAP3 SWAP2 SWAP1 DUP2 DUP2 MSTORE PUSH1 0x20 ADD DUP3 DUP1 SLOAD PUSH2 0x205 SWAP1 PUSH2 0x7BB JUMP JUMPDEST DUP1 ISZERO PUSH2 0x252 JUMPI DUP1 PUSH1 0x1F LT PUSH2 0x227 JUMPI PUSH2 0x100 DUP1 DUP4 SLOAD DIV MUL DUP4 MSTORE SWAP2 PUSH1 0x20 ADD SWAP2 PUSH2 0x252 JUMP JUMPDEST DUP3 ADD SWAP2 SWAP1 PUSH1 0x0 MSTORE PUSH1 0x20 PUSH1 0x0 KECCAK256 SWAP1 JUMPDEST DUP2 SLOAD DUP2 MSTORE SWAP1 PUSH1 0x1 ADD SWAP1 PUSH1 0x20 ADD DUP1 DUP4 GT PUSH2 0x235 JUMPI DUP3 SWAP1 SUB PUSH1 0x1F AND DUP3 ADD SWAP2 JUMPDEST POP POP POP POP POP SWAP1 DUP1 PUSH1 0x2 ADD SLOAD SWAP1 POP DUP4 JUMP JUMPDEST PUSH1 0x40 MLOAD DUP1 PUSH1 0x60 ADD PUSH1 0x40 MSTORE DUP1 DUP5 DUP2 MSTORE PUSH1 0x20 ADD DUP4 DUP2 MSTORE PUSH1 0x20 ADD DUP3 DUP2 MSTORE POP PUSH1 0x0 DUP6 PUSH1 0xA DUP2 LT PUSH2 0x291 JUMPI PUSH2 0x290 PUSH2 0x84D JUMP JUMPDEST JUMPDEST PUSH1 0x3 MUL ADD PUSH1 0x0 DUP3 ADD MLOAD DUP2 PUSH1 0x0 ADD SSTORE PUSH1 0x20 DUP3 ADD MLOAD DUP2 PUSH1 0x1 ADD SWAP1 DUP1 MLOAD SWAP1 PUSH1 0x20 ADD SWAP1 PUSH2 0x2BB SWAP3 SWAP2 SWAP1 PUSH2 0x2FD JUMP JUMPDEST POP PUSH1 0x40 DUP3 ADD MLOAD DUP2 PUSH1 0x2 ADD SSTORE SWAP1 POP POP POP POP POP POP JUMP JUMPDEST PUSH1 0x40 MLOAD DUP1 PUSH2 0x140 ADD PUSH1 0x40 MSTORE DUP1 PUSH1 0xA SWAP1 JUMPDEST PUSH2 0x2E7 PUSH2 0x383 JUMP JUMPDEST DUP2 MSTORE PUSH1 0x20 ADD SWAP1 PUSH1 0x1 SWAP1 SUB SWAP1 DUP2 PUSH2 0x2DF JUMPI SWAP1 POP POP SWAP1 JUMP JUMPDEST DUP3 DUP1 SLOAD PUSH2 0x309 SWAP1 PUSH2 0x7BB JUMP JUMPDEST SWAP1 PUSH1 0x0 MSTORE PUSH1 0x20 PUSH1 0x0 KECCAK256 SWAP1 PUSH1 0x1F ADD PUSH1 0x20 SWAP1 DIV DUP2 ADD SWAP3 DUP3 PUSH2 0x32B JUMPI PUSH1 0x0 DUP6 SSTORE PUSH2 0x372 JUMP JUMPDEST DUP3 PUSH1 0x1F LT PUSH2 0x344 JUMPI DUP1 MLOAD PUSH1 0xFF NOT AND DUP4 DUP1 ADD OR DUP6 SSTORE PUSH2 0x372 JUMP JUMPDEST DUP3 DUP1 ADD PUSH1 0x1 ADD DUP6 SSTORE DUP3 ISZERO PUSH2 0x372 JUMPI SWAP2 DUP3 ADD JUMPDEST DUP3 DUP2 GT ISZERO PUSH2 0x371 JUMPI DUP3 MLOAD DUP3 SSTORE SWAP2 PUSH1 0x20 ADD SWAP2 SWAP1 PUSH1 0x1 ADD SWAP1 PUSH2 0x356 JUMP JUMPDEST JUMPDEST POP SWAP1 POP PUSH2 0x37F SWAP2 SWAP1 PUSH2 0x3A4 JUMP JUMPDEST POP SWAP1 JUMP JUMPDEST PUSH1 0x40 MLOAD DUP1 PUSH1 0x60 ADD PUSH1 0x40 MSTORE DUP1 PUSH1 0x0 DUP2 MSTORE PUSH1 0x20 ADD PUSH1 0x60 DUP2 MSTORE PUSH1 0x20 ADD PUSH1 0x0 DUP2 MSTORE POP SWAP1 JUMP JUMPDEST JUMPDEST DUP1 DUP3 GT ISZERO PUSH2 0x3BD JUMPI PUSH1 0x0 DUP2 PUSH1 0x0 SWAP1 SSTORE POP PUSH1 0x1 ADD PUSH2 0x3A5 JUMP JUMPDEST POP SWAP1 JUMP JUMPDEST PUSH1 0x0 PUSH2 0x3D4 PUSH2 0x3CF DUP5 PUSH2 0x6E4 JUMP JUMPDEST PUSH2 0x6BF JUMP JUMPDEST SWAP1 POP DUP3 DUP2 MSTORE PUSH1 0x20 DUP2 ADD DUP5 DUP5 DUP5 ADD GT ISZERO PUSH2 0x3F0 JUMPI PUSH2 0x3EF PUSH2 0x8B0 JUMP JUMPDEST JUMPDEST PUSH2 0x3FB DUP5 DUP3 DUP6 PUSH2 0x779 JUMP JUMPDEST POP SWAP4 SWAP3 POP POP POP JUMP JUMPDEST PUSH1 0x0 DUP3 PUSH1 0x1F DUP4 ADD SLT PUSH2 0x418 JUMPI PUSH2 0x417 PUSH2 0x8AB JUMP JUMPDEST JUMPDEST DUP2 CALLDATALOAD PUSH2 0x428 DUP5 DUP3 PUSH1 0x20 DUP7 ADD PUSH2 0x3C1 JUMP JUMPDEST SWAP2 POP POP SWAP3 SWAP2 POP POP JUMP JUMPDEST PUSH1 0x0 DUP2 CALLDATALOAD SWAP1 POP PUSH2 0x440 DUP2 PUSH2 0x8D0 JUMP JUMPDEST SWAP3 SWAP2 POP POP JUMP JUMPDEST PUSH1 0x0 PUSH1 0x20 DUP3 DUP5 SUB SLT ISZERO PUSH2 0x45C JUMPI PUSH2 0x45B PUSH2 0x8BA JUMP JUMPDEST JUMPDEST PUSH1 0x0 PUSH2 0x46A DUP5 DUP3 DUP6 ADD PUSH2 0x431 JUMP JUMPDEST SWAP2 POP POP SWAP3 SWAP2 POP POP JUMP JUMPDEST PUSH1 0x0 DUP1 PUSH1 0x0 DUP1 PUSH1 0x80 DUP6 DUP8 SUB SLT ISZERO PUSH2 0x48D JUMPI PUSH2 0x48C PUSH2 0x8BA JUMP JUMPDEST JUMPDEST PUSH1 0x0 PUSH2 0x49B DUP8 DUP3 DUP9 ADD PUSH2 0x431 JUMP JUMPDEST SWAP5 POP POP PUSH1 0x20 PUSH2 0x4AC DUP8 DUP3 DUP9 ADD PUSH2 0x431 JUMP JUMPDEST SWAP4 POP POP PUSH1 0x40 DUP6 ADD CALLDATALOAD PUSH8 0xFFFFFFFFFFFFFFFF DUP2 GT ISZERO PUSH2 0x4CD JUMPI PUSH2 0x4CC PUSH2 0x8B5 JUMP JUMPDEST JUMPDEST PUSH2 0x4D9 DUP8 DUP3 DUP9 ADD PUSH2 0x403 JUMP JUMPDEST SWAP3 POP POP PUSH1 0x60 PUSH2 0x4EA DUP8 DUP3 DUP9 ADD PUSH2 0x431 JUMP JUMPDEST SWAP2 POP POP SWAP3 SWAP6 SWAP2 SWAP5 POP SWAP3 POP JUMP JUMPDEST PUSH1 0x0 PUSH2 0x502 DUP4 DUP4 PUSH2 0x5F1 JUMP JUMPDEST SWAP1 POP SWAP3 SWAP2 POP POP JUMP JUMPDEST PUSH1 0x0 PUSH2 0x515 DUP3 PUSH2 0x71F JUMP JUMPDEST PUSH2 0x51F DUP2 DUP6 PUSH2 0x742 JUMP JUMPDEST SWAP4 POP DUP4 PUSH1 0x20 DUP3 MUL DUP6 ADD PUSH2 0x531 DUP6 PUSH2 0x715 JUMP JUMPDEST DUP1 PUSH1 0x0 JUMPDEST DUP6 DUP2 LT ISZERO PUSH2 0x56D JUMPI DUP5 DUP5 SUB DUP10 MSTORE DUP2 MLOAD PUSH2 0x54E DUP6 DUP3 PUSH2 0x4F6 JUMP JUMPDEST SWAP5 POP PUSH2 0x559 DUP4 PUSH2 0x735 JUMP JUMPDEST SWAP3 POP PUSH1 0x20 DUP11 ADD SWAP10 POP POP PUSH1 0x1 DUP2 ADD SWAP1 POP PUSH2 0x535 JUMP JUMPDEST POP DUP3 SWAP8 POP DUP8 SWAP6 POP POP POP POP POP POP SWAP3 SWAP2 POP POP JUMP JUMPDEST PUSH1 0x0 PUSH2 0x58A DUP3 PUSH2 0x72A JUMP JUMPDEST PUSH2 0x594 DUP2 DUP6 PUSH2 0x74D JUMP JUMPDEST SWAP4 POP PUSH2 0x5A4 DUP2 DUP6 PUSH1 0x20 DUP7 ADD PUSH2 0x788 JUMP JUMPDEST PUSH2 0x5AD DUP2 PUSH2 0x8BF JUMP JUMPDEST DUP5 ADD SWAP2 POP POP SWAP3 SWAP2 POP POP JUMP JUMPDEST PUSH1 0x0 PUSH2 0x5C3 DUP3 PUSH2 0x72A JUMP JUMPDEST PUSH2 0x5CD DUP2 DUP6 PUSH2 0x75E JUMP JUMPDEST SWAP4 POP PUSH2 0x5DD DUP2 DUP6 PUSH1 0x20 DUP7 ADD PUSH2 0x788 JUMP JUMPDEST PUSH2 0x5E6 DUP2 PUSH2 0x8BF JUMP JUMPDEST DUP5 ADD SWAP2 POP POP SWAP3 SWAP2 POP POP JUMP JUMPDEST PUSH1 0x0 PUSH1 0x60 DUP4 ADD PUSH1 0x0 DUP4 ADD MLOAD PUSH2 0x609 PUSH1 0x0 DUP7 ADD DUP3 PUSH2 0x641 JUMP JUMPDEST POP PUSH1 0x20 DUP4 ADD MLOAD DUP5 DUP3 SUB PUSH1 0x20 DUP7 ADD MSTORE PUSH2 0x621 DUP3 DUP3 PUSH2 0x57F JUMP JUMPDEST SWAP2 POP POP PUSH1 0x40 DUP4 ADD MLOAD PUSH2 0x636 PUSH1 0x40 DUP7 ADD DUP3 PUSH2 0x641 JUMP JUMPDEST POP DUP1 SWAP2 POP POP SWAP3 SWAP2 POP POP JUMP JUMPDEST PUSH2 0x64A DUP2 PUSH2 0x76F JUMP JUMPDEST DUP3 MSTORE POP POP JUMP JUMPDEST PUSH2 0x659 DUP2 PUSH2 0x76F JUMP JUMPDEST DUP3 MSTORE POP POP JUMP JUMPDEST PUSH1 0x0 PUSH1 0x20 DUP3 ADD SWAP1 POP DUP2 DUP2 SUB PUSH1 0x0 DUP4 ADD MSTORE PUSH2 0x679 DUP2 DUP5 PUSH2 0x50A JUMP JUMPDEST SWAP1 POP SWAP3 SWAP2 POP POP JUMP JUMPDEST PUSH1 0x0 PUSH1 0x60 DUP3 ADD SWAP1 POP PUSH2 0x696 PUSH1 0x0 DUP4 ADD DUP7 PUSH2 0x650 JUMP JUMPDEST DUP2 DUP2 SUB PUSH1 0x20 DUP4 ADD MSTORE PUSH2 0x6A8 DUP2 DUP6 PUSH2 0x5B8 JUMP JUMPDEST SWAP1 POP PUSH2 0x6B7 PUSH1 0x40 DUP4 ADD DUP5 PUSH2 0x650 JUMP JUMPDEST SWAP5 SWAP4 POP POP POP POP JUMP JUMPDEST PUSH1 0x0 PUSH2 0x6C9 PUSH2 0x6DA JUMP JUMPDEST SWAP1 POP PUSH2 0x6D5 DUP3 DUP3 PUSH2 0x7ED JUMP JUMPDEST SWAP2 SWAP1 POP JUMP JUMPDEST PUSH1 0x0 PUSH1 0x40 MLOAD SWAP1 POP SWAP1 JUMP JUMPDEST PUSH1 0x0 PUSH8 0xFFFFFFFFFFFFFFFF DUP3 GT ISZERO PUSH2 0x6FF JUMPI PUSH2 0x6FE PUSH2 0x87C JUMP JUMPDEST JUMPDEST PUSH2 0x708 DUP3 PUSH2 0x8BF JUMP JUMPDEST SWAP1 POP PUSH1 0x20 DUP2 ADD SWAP1 POP SWAP2 SWAP1 POP JUMP JUMPDEST PUSH1 0x0 DUP2 SWAP1 POP SWAP2 SWAP1 POP JUMP JUMPDEST PUSH1 0x0 PUSH1 0xA SWAP1 POP SWAP2 SWAP1 POP JUMP JUMPDEST PUSH1 0x0 DUP2 MLOAD SWAP1 POP SWAP2 SWAP1 POP JUMP JUMPDEST PUSH1 0x0 PUSH1 0x20 DUP3 ADD SWAP1 POP SWAP2 SWAP1 POP JUMP JUMPDEST PUSH1 0x0 DUP2 SWAP1 POP SWAP3 SWAP2 POP POP JUMP JUMPDEST PUSH1 0x0 DUP3 DUP3 MSTORE PUSH1 0x20 DUP3 ADD SWAP1 POP SWAP3 SWAP2 POP POP JUMP JUMPDEST PUSH1 0x0 DUP3 DUP3 MSTORE PUSH1 0x20 DUP3 ADD SWAP1 POP SWAP3 SWAP2 POP POP JUMP JUMPDEST PUSH1 0x0 DUP2 SWAP1 POP SWAP2 SWAP1 POP JUMP JUMPDEST DUP3 DUP2 DUP4 CALLDATACOPY PUSH1 0x0 DUP4 DUP4 ADD MSTORE POP POP POP JUMP JUMPDEST PUSH1 0x0 JUMPDEST DUP4 DUP2 LT ISZERO PUSH2 0x7A6 JUMPI DUP1 DUP3 ADD MLOAD DUP2 DUP5 ADD MSTORE PUSH1 0x20 DUP2 ADD SWAP1 POP PUSH2 0x78B JUMP JUMPDEST DUP4 DUP2 GT ISZERO PUSH2 0x7B5 JUMPI PUSH1 0x0 DUP5 DUP5 ADD MSTORE JUMPDEST POP POP POP POP JUMP JUMPDEST PUSH1 0x0 PUSH1 0x2 DUP3 DIV SWAP1 POP PUSH1 0x1 DUP3 AND DUP1 PUSH2 0x7D3 JUMPI PUSH1 0x7F DUP3 AND SWAP2 POP JUMPDEST PUSH1 0x20 DUP3 LT DUP2 EQ ISZERO PUSH2 0x7E7 JUMPI PUSH2 0x7E6 PUSH2 0x81E JUMP JUMPDEST JUMPDEST POP SWAP2 SWAP1 POP JUMP JUMPDEST PUSH2 0x7F6 DUP3 PUSH2 0x8BF JUMP JUMPDEST DUP2 ADD DUP2 DUP2 LT PUSH8 0xFFFFFFFFFFFFFFFF DUP3 GT OR ISZERO PUSH2 0x815 JUMPI PUSH2 0x814 PUSH2 0x87C JUMP JUMPDEST JUMPDEST DUP1 PUSH1 0x40 MSTORE POP POP POP JUMP JUMPDEST PUSH32 0x4E487B7100000000000000000000000000000000000000000000000000000000 PUSH1 0x0 MSTORE PUSH1 0x22 PUSH1 0x4 MSTORE PUSH1 0x24 PUSH1 0x0 REVERT JUMPDEST PUSH32 0x4E487B7100000000000000000000000000000000000000000000000000000000 PUSH1 0x0 MSTORE PUSH1 0x32 PUSH1 0x4 MSTORE PUSH1 0x24 PUSH1 0x0 REVERT JUMPDEST PUSH32 0x4E487B7100000000000000000000000000000000000000000000000000000000 PUSH1 0x0 MSTORE PUSH1 0x41 PUSH1 0x4 MSTORE PUSH1 0x24 PUSH1 0x0 REVERT JUMPDEST PUSH1 0x0 DUP1 REVERT JUMPDEST PUSH1 0x0 DUP1 REVERT JUMPDEST PUSH1 0x0 DUP1 REVERT JUMPDEST PUSH1 0x0 DUP1 REVERT JUMPDEST PUSH1 0x0 PUSH1 0x1F NOT PUSH1 0x1F DUP4 ADD AND SWAP1 POP SWAP2 SWAP1 POP JUMP JUMPDEST PUSH2 0x8D9 DUP2 PUSH2 0x76F JUMP JUMPDEST DUP2 EQ PUSH2 0x8E4 JUMPI PUSH1 0x0 DUP1 REVERT JUMPDEST POP JUMP INVALID LOG2 PUSH5 0x6970667358 0x22 SLT KECCAK256 DUP15 PUSH26 0xD2D0F9A92AC113A47FFB024744FBF622C641727EA884A9495195 0x29 0x4D ADDRESS PUSH20 0x64736F6C63430008070033000000000000000000 "
				},
				"gasEstimates": {
					"creation": {
						"codeDepositCost": "466600",
						"executionCost": "499",
						"totalCost": "467099"
					},
					"external": {
						"insert(uint256,uint256,string,uint256)": "infinite",
						"returnD()": "infinite",
						"stu(uint256)": "infinite"
					}
				},
				"methodIdentifiers": {
					"insert(uint256,uint256,string,uint256)": "aaefce39",
					"returnD()": "7d9fd1c3",
					"stu(uint256)": "8c53f85f"
				}
			},
			"storageLayout": {
				"storage": [
					{
						"astId": 13,
						"contract": "contracts/9.sol:Q8",
						"label": "stu",
						"offset": 0,
						"slot": "0",
						"type": "t_array(t_struct(student)8_storage)10_storage"
					}
				],
				"types": {
					"t_array(t_struct(student)8_storage)10_storage": {
						"base": "t_struct(student)8_storage",
						"encoding": "inplace",
						"label": "struct Q8.student[10]",
						"numberOfBytes": "960"
					},
					"t_string_storage": {
						"encoding": "bytes",
						"label": "string",
						"numberOfBytes": "32"
					},
					"t_struct(student)8_storage": {
						"encoding": "inplace",
						"label": "struct Q8.student",
						"members": [
							{
								"astId": 3,
								"contract": "contracts/9.sol:Q8",
								"label": "roll",
								"offset": 0,
								"slot": "0",
								"type": "t_uint256"
							},
							{
								"astId": 5,
								"contract": "contracts/9.sol:Q8",
								"label": "name",
								"offset": 0,
								"slot": "1",
								"type": "t_string_storage"
							},
							{
								"astId": 7,
								"contract": "contracts/9.sol:Q8",
								"label": "age",
								"offset": 0,
								"slot": "2",
								"type": "t_uint256"
							}
						],
						"numberOfBytes": "96"
					},
					"t_uint256": {
						"encoding": "inplace",
						"label": "uint256",
						"numberOfBytes": "32"
					}
				}
			},
			"userdoc": {
				"kind": "user",
				"methods": {},
				"version": 1
			}
		}
	}
}