{
	"contracts/3.sol": {
		"Search": {
			"abi": [
				{
					"inputs": [
						{
							"internalType": "uint256",
							"name": "target",
							"type": "uint256"
						}
					],
					"name": "search",
					"outputs": [
						{
							"internalType": "bool",
							"name": "",
							"type": "bool"
						}
					],
					"stateMutability": "view",
					"type": "function"
				}
			],
			"devdoc": {
				"kind": "dev",
				"methods": {},
				"version": 1
			},
			"evm": {
				"assembly": "    /* \"contracts/3.sol\":114:418  contract Search{\r... */\n  mstore(0x40, 0x80)\n    /* \"contracts/3.sol\":136:163  uint[6] arr = [1,2,3,4,5,6] */\n  mload(0x40)\n  dup1\n  0xc0\n  add\n  0x40\n  mstore\n  dup1\n    /* \"contracts/3.sol\":151:152  1 */\n  0x01\n    /* \"contracts/3.sol\":136:163  uint[6] arr = [1,2,3,4,5,6] */\n  0xff\n  and\n  dup2\n  mstore\n  0x20\n  add\n    /* \"contracts/3.sol\":153:154  2 */\n  0x02\n    /* \"contracts/3.sol\":136:163  uint[6] arr = [1,2,3,4,5,6] */\n  0xff\n  and\n  dup2\n  mstore\n  0x20\n  add\n    /* \"contracts/3.sol\":155:156  3 */\n  0x03\n    /* \"contracts/3.sol\":136:163  uint[6] arr = [1,2,3,4,5,6] */\n  0xff\n  and\n  dup2\n  mstore\n  0x20\n  add\n    /* \"contracts/3.sol\":157:158  4 */\n  0x04\n    /* \"contracts/3.sol\":136:163  uint[6] arr = [1,2,3,4,5,6] */\n  0xff\n  and\n  dup2\n  mstore\n  0x20\n  add\n    /* \"contracts/3.sol\":159:160  5 */\n  0x05\n    /* \"contracts/3.sol\":136:163  uint[6] arr = [1,2,3,4,5,6] */\n  0xff\n  and\n  dup2\n  mstore\n  0x20\n  add\n    /* \"contracts/3.sol\":161:162  6 */\n  0x06\n    /* \"contracts/3.sol\":136:163  uint[6] arr = [1,2,3,4,5,6] */\n  0xff\n  and\n  dup2\n  mstore\n  pop\n  0x00\n  swap1\n  0x06\n  tag_1\n  swap3\n  swap2\n  swap1\n  tag_2\n  jump\t// in\ntag_1:\n  pop\n    /* \"contracts/3.sol\":114:418  contract Search{\r... */\n  callvalue\n  dup1\n  iszero\n  tag_3\n  jumpi\n  0x00\n  dup1\n  revert\ntag_3:\n  pop\n  jump(tag_4)\ntag_2:\n  dup3\n  0x06\n  dup2\n  add\n  swap3\n  dup3\n  iszero\n  tag_5\n  jumpi\n  swap2\n  0x20\n  mul\n  dup3\n  add\ntag_6:\n  dup3\n  dup2\n  gt\n  iszero\n  tag_7\n  jumpi\n  dup3\n  mload\n  dup3\n  swap1\n  0xff\n  and\n  swap1\n  sstore\n  swap2\n  0x20\n  add\n  swap2\n  swap1\n  0x01\n  add\n  swap1\n  jump(tag_6)\ntag_7:\ntag_5:\n  pop\n  swap1\n  pop\n  tag_8\n  swap2\n  swap1\n  tag_9\n  jump\t// in\ntag_8:\n  pop\n  swap1\n  jump\t// out\ntag_9:\ntag_10:\n  dup1\n  dup3\n  gt\n  iszero\n  tag_11\n  jumpi\n  0x00\n  dup2\n  0x00\n  swap1\n  sstore\n  pop\n  0x01\n  add\n  jump(tag_10)\ntag_11:\n  pop\n  swap1\n  jump\t// out\ntag_4:\n  dataSize(sub_0)\n  dup1\n  dataOffset(sub_0)\n  0x00\n  codecopy\n  0x00\n  return\nstop\n\nsub_0: assembly {\n        /* \"contracts/3.sol\":114:418  contract Search{\r... */\n      mstore(0x40, 0x80)\n      callvalue\n      dup1\n      iszero\n      tag_1\n      jumpi\n      0x00\n      dup1\n      revert\n    tag_1:\n      pop\n      jumpi(tag_2, lt(calldatasize, 0x04))\n      shr(0xe0, calldataload(0x00))\n      dup1\n      0xfc156fe0\n      eq\n      tag_3\n      jumpi\n    tag_2:\n      0x00\n      dup1\n      revert\n        /* \"contracts/3.sol\":170:415  function search(uint target)public view returns(bool){\r... */\n    tag_3:\n      tag_4\n      0x04\n      dup1\n      calldatasize\n      sub\n      0x20\n      dup2\n      lt\n      iszero\n      tag_5\n      jumpi\n      0x00\n      dup1\n      revert\n    tag_5:\n      dup2\n      add\n      swap1\n      dup1\n      dup1\n      calldataload\n      swap1\n      0x20\n      add\n      swap1\n      swap3\n      swap2\n      swap1\n      pop\n      pop\n      pop\n      tag_6\n      jump\t// in\n    tag_4:\n      mload(0x40)\n      dup1\n      dup3\n      iszero\n      iszero\n      dup2\n      mstore\n      0x20\n      add\n      swap2\n      pop\n      pop\n      mload(0x40)\n      dup1\n      swap2\n      sub\n      swap1\n      return\n    tag_6:\n        /* \"contracts/3.sol\":218:222  bool */\n      0x00\n        /* \"contracts/3.sol\":234:243  uint size */\n      dup1\n        /* \"contracts/3.sol\":246:256  arr.length */\n      0x06\n        /* \"contracts/3.sol\":234:256  uint size = arr.length */\n      swap1\n      pop\n        /* \"contracts/3.sol\":273:279  uint i */\n      0x00\n        /* \"contracts/3.sol\":269:385  for(uint i=0;i<size;i++){\r... */\n    tag_8:\n        /* \"contracts/3.sol\":284:288  size */\n      dup2\n        /* \"contracts/3.sol\":282:283  i */\n      dup2\n        /* \"contracts/3.sol\":282:288  i<size */\n      lt\n        /* \"contracts/3.sol\":269:385  for(uint i=0;i<size;i++){\r... */\n      iszero\n      tag_9\n      jumpi\n        /* \"contracts/3.sol\":321:324  arr */\n      0x00\n        /* \"contracts/3.sol\":325:326  i */\n      dup2\n        /* \"contracts/3.sol\":321:327  arr[i] */\n      0x06\n      dup2\n      lt\n      tag_11\n      jumpi\n      invalid\n    tag_11:\n      add\n      sload\n        /* \"contracts/3.sol\":311:317  target */\n      dup5\n        /* \"contracts/3.sol\":311:327  target == arr[i] */\n      eq\n        /* \"contracts/3.sol\":308:374  if(target == arr[i]){\r... */\n      iszero\n      tag_13\n      jumpi\n        /* \"contracts/3.sol\":354:358  true */\n      0x01\n        /* \"contracts/3.sol\":347:358  return true */\n      swap3\n      pop\n      pop\n      pop\n      jump(tag_7)\n        /* \"contracts/3.sol\":308:374  if(target == arr[i]){\r... */\n    tag_13:\n        /* \"contracts/3.sol\":289:292  i++ */\n      dup1\n      dup1\n      0x01\n      add\n      swap2\n      pop\n      pop\n        /* \"contracts/3.sol\":269:385  for(uint i=0;i<size;i++){\r... */\n      jump(tag_8)\n    tag_9:\n      pop\n        /* \"contracts/3.sol\":402:407  false */\n      0x00\n        /* \"contracts/3.sol\":395:407  return false */\n      swap2\n      pop\n      pop\n        /* \"contracts/3.sol\":170:415  function search(uint target)public view returns(bool){\r... */\n    tag_7:\n      swap2\n      swap1\n      pop\n      jump\t// out\n\n    auxdata: 0xa2646970667358221220e501e82f92341a5a58c1c1847a2f9c3ddcf005e6d77c90ed4139ae26d3f0bb2364736f6c634300060c0033\n}\n",
				"bytecode": {
					"linkReferences": {},
					"object": "60806040526040518060c00160405280600160ff168152602001600260ff168152602001600360ff168152602001600460ff168152602001600560ff168152602001600660ff16815250600090600661005992919061006c565b5034801561006657600080fd5b506100ce565b82600681019282156100a0579160200282015b8281111561009f578251829060ff1690559160200191906001019061007f565b5b5090506100ad91906100b1565b5090565b5b808211156100ca5760008160009055506001016100b2565b5090565b60eb806100dc6000396000f3fe6080604052348015600f57600080fd5b506004361060285760003560e01c8063fc156fe014602d575b600080fd5b605660048036036020811015604157600080fd5b8101908080359060200190929190505050606e565b60405180821515815260200191505060405180910390f35b6000806006905060005b8181101560a95760008160068110608b57fe5b0154841415609d5760019250505060b0565b80806001019150506078565b5060009150505b91905056fea2646970667358221220e501e82f92341a5a58c1c1847a2f9c3ddcf005e6d77c90ed4139ae26d3f0bb2364736f6c634300060c0033",
					"opcodes": "PUSH1 0x80 PUSH1 0x40 MSTORE PUSH1 0x40 MLOAD DUP1 PUSH1 0xC0 ADD PUSH1 0x40 MSTORE DUP1 PUSH1 0x1 PUSH1 0xFF AND DUP2 MSTORE PUSH1 0x20 ADD PUSH1 0x2 PUSH1 0xFF AND DUP2 MSTORE PUSH1 0x20 ADD PUSH1 0x3 PUSH1 0xFF AND DUP2 MSTORE PUSH1 0x20 ADD PUSH1 0x4 PUSH1 0xFF AND DUP2 MSTORE PUSH1 0x20 ADD PUSH1 0x5 PUSH1 0xFF AND DUP2 MSTORE PUSH1 0x20 ADD PUSH1 0x6 PUSH1 0xFF AND DUP2 MSTORE POP PUSH1 0x0 SWAP1 PUSH1 0x6 PUSH2 0x59 SWAP3 SWAP2 SWAP1 PUSH2 0x6C JUMP JUMPDEST POP CALLVALUE DUP1 ISZERO PUSH2 0x66 JUMPI PUSH1 0x0 DUP1 REVERT JUMPDEST POP PUSH2 0xCE JUMP JUMPDEST DUP3 PUSH1 0x6 DUP2 ADD SWAP3 DUP3 ISZERO PUSH2 0xA0 JUMPI SWAP2 PUSH1 0x20 MUL DUP3 ADD JUMPDEST DUP3 DUP2 GT ISZERO PUSH2 0x9F JUMPI DUP3 MLOAD DUP3 SWAP1 PUSH1 0xFF AND SWAP1 SSTORE SWAP2 PUSH1 0x20 ADD SWAP2 SWAP1 PUSH1 0x1 ADD SWAP1 PUSH2 0x7F JUMP JUMPDEST JUMPDEST POP SWAP1 POP PUSH2 0xAD SWAP2 SWAP1 PUSH2 0xB1 JUMP JUMPDEST POP SWAP1 JUMP JUMPDEST JUMPDEST DUP1 DUP3 GT ISZERO PUSH2 0xCA JUMPI PUSH1 0x0 DUP2 PUSH1 0x0 SWAP1 SSTORE POP PUSH1 0x1 ADD PUSH2 0xB2 JUMP JUMPDEST POP SWAP1 JUMP JUMPDEST PUSH1 0xEB DUP1 PUSH2 0xDC PUSH1 0x0 CODECOPY PUSH1 0x0 RETURN INVALID PUSH1 0x80 PUSH1 0x40 MSTORE CALLVALUE DUP1 ISZERO PUSH1 0xF JUMPI PUSH1 0x0 DUP1 REVERT JUMPDEST POP PUSH1 0x4 CALLDATASIZE LT PUSH1 0x28 JUMPI PUSH1 0x0 CALLDATALOAD PUSH1 0xE0 SHR DUP1 PUSH4 0xFC156FE0 EQ PUSH1 0x2D JUMPI JUMPDEST PUSH1 0x0 DUP1 REVERT JUMPDEST PUSH1 0x56 PUSH1 0x4 DUP1 CALLDATASIZE SUB PUSH1 0x20 DUP2 LT ISZERO PUSH1 0x41 JUMPI PUSH1 0x0 DUP1 REVERT JUMPDEST DUP2 ADD SWAP1 DUP1 DUP1 CALLDATALOAD SWAP1 PUSH1 0x20 ADD SWAP1 SWAP3 SWAP2 SWAP1 POP POP POP PUSH1 0x6E JUMP JUMPDEST PUSH1 0x40 MLOAD DUP1 DUP3 ISZERO ISZERO DUP2 MSTORE PUSH1 0x20 ADD SWAP2 POP POP PUSH1 0x40 MLOAD DUP1 SWAP2 SUB SWAP1 RETURN JUMPDEST PUSH1 0x0 DUP1 PUSH1 0x6 SWAP1 POP PUSH1 0x0 JUMPDEST DUP2 DUP2 LT ISZERO PUSH1 0xA9 JUMPI PUSH1 0x0 DUP2 PUSH1 0x6 DUP2 LT PUSH1 0x8B JUMPI INVALID JUMPDEST ADD SLOAD DUP5 EQ ISZERO PUSH1 0x9D JUMPI PUSH1 0x1 SWAP3 POP POP POP PUSH1 0xB0 JUMP JUMPDEST DUP1 DUP1 PUSH1 0x1 ADD SWAP2 POP POP PUSH1 0x78 JUMP JUMPDEST POP PUSH1 0x0 SWAP2 POP POP JUMPDEST SWAP2 SWAP1 POP JUMP INVALID LOG2 PUSH5 0x6970667358 0x22 SLT KECCAK256 0xE5 ADD 0xE8 0x2F SWAP3 CALLVALUE BYTE GAS PC 0xC1 0xC1 DUP5 PUSH27 0x2F9C3DDCF005E6D77C90ED4139AE26D3F0BB2364736F6C63430006 0xC STOP CALLER "
				},
				"gasEstimates": {
					"creation": {
						"codeDepositCost": "47000",
						"executionCost": "infinite",
						"totalCost": "infinite"
					},
					"external": {
						"search(uint256)": "infinite"
					}
				},
				"methodIdentifiers": {
					"search(uint256)": "fc156fe0"
				}
			},
			"storageLayout": {
				"storage": [
					{
						"astId": 12,
						"contract": "contracts/3.sol:Search",
						"label": "arr",
						"offset": 0,
						"slot": "0",
						"type": "t_array(t_uint256)6_storage"
					}
				],
				"types": {
					"t_array(t_uint256)6_storage": {
						"base": "t_uint256",
						"encoding": "inplace",
						"label": "uint256[6]",
						"numberOfBytes": "192"
					},
					"t_uint256": {
						"encoding": "inplace",
						"label": "uint256",
						"numberOfBytes": "32"
					}
				}
			},
			"userdoc": {
				"kind": "user",
				"methods": {},
				"version": 1
			}
		}
	}
}