{
	"data": {
		"bytecode": {
			"linkReferences": {},
			"object": "60806040526040518060c00160405280600660ff168152602001600560ff168152602001600460ff168152602001600360ff168152602001600260ff168152602001600160ff16815250600090600661005992919061006c565b5034801561006657600080fd5b506100ce565b82600681019282156100a0579160200282015b8281111561009f578251829060ff1690559160200191906001019061007f565b5b5090506100ad91906100b1565b5090565b5b808211156100ca5760008160009055506001016100b2565b5090565b61050c806100dd6000396000f3fe608060405234801561001057600080fd5b50600436106100365760003560e01c806315283e301461003b578063d96073cf14610059575b600080fd5b61004361008a565b60405161005091906102e4565b60405180910390f35b610073600480360381019061006e9190610217565b6101c4565b6040516100819291906102ff565b60405180910390f35b6100926101e0565b6000600190505b60068110156101805760008082600681106100b7576100b661048b565b5b0154905060006001836100ca91906103ab565b90505b600081101580156100f25750600081600681106100ed576100ec61048b565b5b015482105b1561016b576000816006811061010b5761010a61048b565b5b0154600060018361011c9190610355565b6006811061012d5761012c61048b565b5b01819055508160006001836101429190610355565b600681106101535761015261048b565b5b01819055508080610163906103e9565b9150506100cd565b5050808061017890610413565b915050610099565b5060006006806020026040519081016040528092919082600680156101ba576020028201915b8154815260200190600101908083116101a6575b5050505050905090565b6000806000849050839450809350848492509250509250929050565b6040518060c00160405280600690602082028036833780820191505090505090565b600081359050610211816104bf565b92915050565b6000806040838503121561022e5761022d6104ba565b5b600061023c85828601610202565b925050602061024d85828601610202565b9150509250929050565b600061026383836102c6565b60208301905092915050565b61027881610332565b610282818461034a565b925061028d82610328565b8060005b838110156102be5781516102a58782610257565b96506102b08361033d565b925050600181019050610291565b505050505050565b6102cf816103df565b82525050565b6102de816103df565b82525050565b600060c0820190506102f9600083018461026f565b92915050565b600060408201905061031460008301856102d5565b61032160208301846102d5565b9392505050565b6000819050919050565b600060069050919050565b6000602082019050919050565b600081905092915050565b6000610360826103df565b915061036b836103df565b9250827fffffffffffffffffffffffffffffffffffffffffffffffffffffffffffffffff038211156103a05761039f61045c565b5b828201905092915050565b60006103b6826103df565b91506103c1836103df565b9250828210156103d4576103d361045c565b5b828203905092915050565b6000819050919050565b60006103f4826103df565b915060008214156104085761040761045c565b5b600182039050919050565b600061041e826103df565b91507fffffffffffffffffffffffffffffffffffffffffffffffffffffffffffffffff8214156104515761045061045c565b5b600182019050919050565b7f4e487b7100000000000000000000000000000000000000000000000000000000600052601160045260246000fd5b7f4e487b7100000000000000000000000000000000000000000000000000000000600052603260045260246000fd5b600080fd5b6104c8816103df565b81146104d357600080fd5b5056fea264697066735822122084b98729494ee04019ded48942a4627d55f18f651ed29672b26e7cf2df0a2cb264736f6c63430008070033",
			"opcodes": "PUSH1 0x80 PUSH1 0x40 MSTORE PUSH1 0x40 MLOAD DUP1 PUSH1 0xC0 ADD PUSH1 0x40 MSTORE DUP1 PUSH1 0x6 PUSH1 0xFF AND DUP2 MSTORE PUSH1 0x20 ADD PUSH1 0x5 PUSH1 0xFF AND DUP2 MSTORE PUSH1 0x20 ADD PUSH1 0x4 PUSH1 0xFF AND DUP2 MSTORE PUSH1 0x20 ADD PUSH1 0x3 PUSH1 0xFF AND DUP2 MSTORE PUSH1 0x20 ADD PUSH1 0x2 PUSH1 0xFF AND DUP2 MSTORE PUSH1 0x20 ADD PUSH1 0x1 PUSH1 0xFF AND DUP2 MSTORE POP PUSH1 0x0 SWAP1 PUSH1 0x6 PUSH2 0x59 SWAP3 SWAP2 SWAP1 PUSH2 0x6C JUMP JUMPDEST POP CALLVALUE DUP1 ISZERO PUSH2 0x66 JUMPI PUSH1 0x0 DUP1 REVERT JUMPDEST POP PUSH2 0xCE JUMP JUMPDEST DUP3 PUSH1 0x6 DUP2 ADD SWAP3 DUP3 ISZERO PUSH2 0xA0 JUMPI SWAP2 PUSH1 0x20 MUL DUP3 ADD JUMPDEST DUP3 DUP2 GT ISZERO PUSH2 0x9F JUMPI DUP3 MLOAD DUP3 SWAP1 PUSH1 0xFF AND SWAP1 SSTORE SWAP2 PUSH1 0x20 ADD SWAP2 SWAP1 PUSH1 0x1 ADD SWAP1 PUSH2 0x7F JUMP JUMPDEST JUMPDEST POP SWAP1 POP PUSH2 0xAD SWAP2 SWAP1 PUSH2 0xB1 JUMP JUMPDEST POP SWAP1 JUMP JUMPDEST JUMPDEST DUP1 DUP3 GT ISZERO PUSH2 0xCA JUMPI PUSH1 0x0 DUP2 PUSH1 0x0 SWAP1 SSTORE POP PUSH1 0x1 ADD PUSH2 0xB2 JUMP JUMPDEST POP SWAP1 JUMP JUMPDEST PUSH2 0x50C DUP1 PUSH2 0xDD PUSH1 0x0 CODECOPY PUSH1 0x0 RETURN INVALID PUSH1 0x80 PUSH1 0x40 MSTORE CALLVALUE DUP1 ISZERO PUSH2 0x10 JUMPI PUSH1 0x0 DUP1 REVERT JUMPDEST POP PUSH1 0x4 CALLDATASIZE LT PUSH2 0x36 JUMPI PUSH1 0x0 CALLDATALOAD PUSH1 0xE0 SHR DUP1 PUSH4 0x15283E30 EQ PUSH2 0x3B JUMPI DUP1 PUSH4 0xD96073CF EQ PUSH2 0x59 JUMPI JUMPDEST PUSH1 0x0 DUP1 REVERT JUMPDEST PUSH2 0x43 PUSH2 0x8A JUMP JUMPDEST PUSH1 0x40 MLOAD PUSH2 0x50 SWAP2 SWAP1 PUSH2 0x2E4 JUMP JUMPDEST PUSH1 0x40 MLOAD DUP1 SWAP2 SUB SWAP1 RETURN JUMPDEST PUSH2 0x73 PUSH1 0x4 DUP1 CALLDATASIZE SUB DUP2 ADD SWAP1 PUSH2 0x6E SWAP2 SWAP1 PUSH2 0x217 JUMP JUMPDEST PUSH2 0x1C4 JUMP JUMPDEST PUSH1 0x40 MLOAD PUSH2 0x81 SWAP3 SWAP2 SWAP1 PUSH2 0x2FF JUMP JUMPDEST PUSH1 0x40 MLOAD DUP1 SWAP2 SUB SWAP1 RETURN JUMPDEST PUSH2 0x92 PUSH2 0x1E0 JUMP JUMPDEST PUSH1 0x0 PUSH1 0x1 SWAP1 POP JUMPDEST PUSH1 0x6 DUP2 LT ISZERO PUSH2 0x180 JUMPI PUSH1 0x0 DUP1 DUP3 PUSH1 0x6 DUP2 LT PUSH2 0xB7 JUMPI PUSH2 0xB6 PUSH2 0x48B JUMP JUMPDEST JUMPDEST ADD SLOAD SWAP1 POP PUSH1 0x0 PUSH1 0x1 DUP4 PUSH2 0xCA SWAP2 SWAP1 PUSH2 0x3AB JUMP JUMPDEST SWAP1 POP JUMPDEST PUSH1 0x0 DUP2 LT ISZERO DUP1 ISZERO PUSH2 0xF2 JUMPI POP PUSH1 0x0 DUP2 PUSH1 0x6 DUP2 LT PUSH2 0xED JUMPI PUSH2 0xEC PUSH2 0x48B JUMP JUMPDEST JUMPDEST ADD SLOAD DUP3 LT JUMPDEST ISZERO PUSH2 0x16B JUMPI PUSH1 0x0 DUP2 PUSH1 0x6 DUP2 LT PUSH2 0x10B JUMPI PUSH2 0x10A PUSH2 0x48B JUMP JUMPDEST JUMPDEST ADD SLOAD PUSH1 0x0 PUSH1 0x1 DUP4 PUSH2 0x11C SWAP2 SWAP1 PUSH2 0x355 JUMP JUMPDEST PUSH1 0x6 DUP2 LT PUSH2 0x12D JUMPI PUSH2 0x12C PUSH2 0x48B JUMP JUMPDEST JUMPDEST ADD DUP2 SWAP1 SSTORE POP DUP2 PUSH1 0x0 PUSH1 0x1 DUP4 PUSH2 0x142 SWAP2 SWAP1 PUSH2 0x355 JUMP JUMPDEST PUSH1 0x6 DUP2 LT PUSH2 0x153 JUMPI PUSH2 0x152 PUSH2 0x48B JUMP JUMPDEST JUMPDEST ADD DUP2 SWAP1 SSTORE POP DUP1 DUP1 PUSH2 0x163 SWAP1 PUSH2 0x3E9 JUMP JUMPDEST SWAP2 POP POP PUSH2 0xCD JUMP JUMPDEST POP POP DUP1 DUP1 PUSH2 0x178 SWAP1 PUSH2 0x413 JUMP JUMPDEST SWAP2 POP POP PUSH2 0x99 JUMP JUMPDEST POP PUSH1 0x0 PUSH1 0x6 DUP1 PUSH1 0x20 MUL PUSH1 0x40 MLOAD SWAP1 DUP2 ADD PUSH1 0x40 MSTORE DUP1 SWAP3 SWAP2 SWAP1 DUP3 PUSH1 0x6 DUP1 ISZERO PUSH2 0x1BA JUMPI PUSH1 0x20 MUL DUP3 ADD SWAP2 JUMPDEST DUP2 SLOAD DUP2 MSTORE PUSH1 0x20 ADD SWAP1 PUSH1 0x1 ADD SWAP1 DUP1 DUP4 GT PUSH2 0x1A6 JUMPI JUMPDEST POP POP POP POP POP SWAP1 POP SWAP1 JUMP JUMPDEST PUSH1 0x0 DUP1 PUSH1 0x0 DUP5 SWAP1 POP DUP4 SWAP5 POP DUP1 SWAP4 POP DUP5 DUP5 SWAP3 POP SWAP3 POP POP SWAP3 POP SWAP3 SWAP1 POP JUMP JUMPDEST PUSH1 0x40 MLOAD DUP1 PUSH1 0xC0 ADD PUSH1 0x40 MSTORE DUP1 PUSH1 0x6 SWAP1 PUSH1 0x20 DUP3 MUL DUP1 CALLDATASIZE DUP4 CALLDATACOPY DUP1 DUP3 ADD SWAP2 POP POP SWAP1 POP POP SWAP1 JUMP JUMPDEST PUSH1 0x0 DUP2 CALLDATALOAD SWAP1 POP PUSH2 0x211 DUP2 PUSH2 0x4BF JUMP JUMPDEST SWAP3 SWAP2 POP POP JUMP JUMPDEST PUSH1 0x0 DUP1 PUSH1 0x40 DUP4 DUP6 SUB SLT ISZERO PUSH2 0x22E JUMPI PUSH2 0x22D PUSH2 0x4BA JUMP JUMPDEST JUMPDEST PUSH1 0x0 PUSH2 0x23C DUP6 DUP3 DUP7 ADD PUSH2 0x202 JUMP JUMPDEST SWAP3 POP POP PUSH1 0x20 PUSH2 0x24D DUP6 DUP3 DUP7 ADD PUSH2 0x202 JUMP JUMPDEST SWAP2 POP POP SWAP3 POP SWAP3 SWAP1 POP JUMP JUMPDEST PUSH1 0x0 PUSH2 0x263 DUP4 DUP4 PUSH2 0x2C6 JUMP JUMPDEST PUSH1 0x20 DUP4 ADD SWAP1 POP SWAP3 SWAP2 POP POP JUMP JUMPDEST PUSH2 0x278 DUP2 PUSH2 0x332 JUMP JUMPDEST PUSH2 0x282 DUP2 DUP5 PUSH2 0x34A JUMP JUMPDEST SWAP3 POP PUSH2 0x28D DUP3 PUSH2 0x328 JUMP JUMPDEST DUP1 PUSH1 0x0 JUMPDEST DUP4 DUP2 LT ISZERO PUSH2 0x2BE JUMPI DUP2 MLOAD PUSH2 0x2A5 DUP8 DUP3 PUSH2 0x257 JUMP JUMPDEST SWAP7 POP PUSH2 0x2B0 DUP4 PUSH2 0x33D JUMP JUMPDEST SWAP3 POP POP PUSH1 0x1 DUP2 ADD SWAP1 POP PUSH2 0x291 JUMP JUMPDEST POP POP POP POP POP POP JUMP JUMPDEST PUSH2 0x2CF DUP2 PUSH2 0x3DF JUMP JUMPDEST DUP3 MSTORE POP POP JUMP JUMPDEST PUSH2 0x2DE DUP2 PUSH2 0x3DF JUMP JUMPDEST DUP3 MSTORE POP POP JUMP JUMPDEST PUSH1 0x0 PUSH1 0xC0 DUP3 ADD SWAP1 POP PUSH2 0x2F9 PUSH1 0x0 DUP4 ADD DUP5 PUSH2 0x26F JUMP JUMPDEST SWAP3 SWAP2 POP POP JUMP JUMPDEST PUSH1 0x0 PUSH1 0x40 DUP3 ADD SWAP1 POP PUSH2 0x314 PUSH1 0x0 DUP4 ADD DUP6 PUSH2 0x2D5 JUMP JUMPDEST PUSH2 0x321 PUSH1 0x20 DUP4 ADD DUP5 PUSH2 0x2D5 JUMP JUMPDEST SWAP4 SWAP3 POP POP POP JUMP JUMPDEST PUSH1 0x0 DUP2 SWAP1 POP SWAP2 SWAP1 POP JUMP JUMPDEST PUSH1 0x0 PUSH1 0x6 SWAP1 POP SWAP2 SWAP1 POP JUMP JUMPDEST PUSH1 0x0 PUSH1 0x20 DUP3 ADD SWAP1 POP SWAP2 SWAP1 POP JUMP JUMPDEST PUSH1 0x0 DUP2 SWAP1 POP SWAP3 SWAP2 POP POP JUMP JUMPDEST PUSH1 0x0 PUSH2 0x360 DUP3 PUSH2 0x3DF JUMP JUMPDEST SWAP2 POP PUSH2 0x36B DUP4 PUSH2 0x3DF JUMP JUMPDEST SWAP3 POP DUP3 PUSH32 0xFFFFFFFFFFFFFFFFFFFFFFFFFFFFFFFFFFFFFFFFFFFFFFFFFFFFFFFFFFFFFFFF SUB DUP3 GT ISZERO PUSH2 0x3A0 JUMPI PUSH2 0x39F PUSH2 0x45C JUMP JUMPDEST JUMPDEST DUP3 DUP3 ADD SWAP1 POP SWAP3 SWAP2 POP POP JUMP JUMPDEST PUSH1 0x0 PUSH2 0x3B6 DUP3 PUSH2 0x3DF JUMP JUMPDEST SWAP2 POP PUSH2 0x3C1 DUP4 PUSH2 0x3DF JUMP JUMPDEST SWAP3 POP DUP3 DUP3 LT ISZERO PUSH2 0x3D4 JUMPI PUSH2 0x3D3 PUSH2 0x45C JUMP JUMPDEST JUMPDEST DUP3 DUP3 SUB SWAP1 POP SWAP3 SWAP2 POP POP JUMP JUMPDEST PUSH1 0x0 DUP2 SWAP1 POP SWAP2 SWAP1 POP JUMP JUMPDEST PUSH1 0x0 PUSH2 0x3F4 DUP3 PUSH2 0x3DF JUMP JUMPDEST SWAP2 POP PUSH1 0x0 DUP3 EQ ISZERO PUSH2 0x408 JUMPI PUSH2 0x407 PUSH2 0x45C JUMP JUMPDEST JUMPDEST PUSH1 0x1 DUP3 SUB SWAP1 POP SWAP2 SWAP1 POP JUMP JUMPDEST PUSH1 0x0 PUSH2 0x41E DUP3 PUSH2 0x3DF JUMP JUMPDEST SWAP2 POP PUSH32 0xFFFFFFFFFFFFFFFFFFFFFFFFFFFFFFFFFFFFFFFFFFFFFFFFFFFFFFFFFFFFFFFF DUP3 EQ ISZERO PUSH2 0x451 JUMPI PUSH2 0x450 PUSH2 0x45C JUMP JUMPDEST JUMPDEST PUSH1 0x1 DUP3 ADD SWAP1 POP SWAP2 SWAP1 POP JUMP JUMPDEST PUSH32 0x4E487B7100000000000000000000000000000000000000000000000000000000 PUSH1 0x0 MSTORE PUSH1 0x11 PUSH1 0x4 MSTORE PUSH1 0x24 PUSH1 0x0 REVERT JUMPDEST PUSH32 0x4E487B7100000000000000000000000000000000000000000000000000000000 PUSH1 0x0 MSTORE PUSH1 0x32 PUSH1 0x4 MSTORE PUSH1 0x24 PUSH1 0x0 REVERT JUMPDEST PUSH1 0x0 DUP1 REVERT JUMPDEST PUSH2 0x4C8 DUP2 PUSH2 0x3DF JUMP JUMPDEST DUP2 EQ PUSH2 0x4D3 JUMPI PUSH1 0x0 DUP1 REVERT JUMPDEST POP JUMP INVALID LOG2 PUSH5 0x6970667358 0x22 SLT KECCAK256 DUP5 0xB9 DUP8 0x29 0x49 0x4E 0xE0 BLOCKHASH NOT 0xDE 0xD4 DUP10 TIMESTAMP LOG4 PUSH3 0x7D55F1 DUP16 PUSH6 0x1ED29672B26E PUSH29 0xF2DF0A2CB264736F6C6343000807003300000000000000000000000000 "
		},
		"gasEstimates": {
			"creation": {
				"codeDepositCost": "258400",
				"executionCost": "infinite",
				"totalCost": "infinite"
			},
			"external": {
				"insertionSort()": "infinite",
				"swap(uint256,uint256)": "infinite"
			}
		},
		"methodIdentifiers": {
			"insertionSort()": "15283e30",
			"swap(uint256,uint256)": "d96073cf"
		}
	},
	"abi": [
		{
			"inputs": [],
			"name": "insertionSort",
			"outputs": [
				{
					"internalType": "uint256[6]",
					"name": "",
					"type": "uint256[6]"
				}
			],
			"stateMutability": "nonpayable",
			"type": "function"
		},
		{
			"inputs": [
				{
					"internalType": "uint256",
					"name": "first",
					"type": "uint256"
				},
				{
					"internalType": "uint256",
					"name": "second",
					"type": "uint256"
				}
			],
			"name": "swap",
			"outputs": [
				{
					"internalType": "uint256",
					"name": "",
					"type": "uint256"
				},
				{
					"internalType": "uint256",
					"name": "",
					"type": "uint256"
				}
			],
			"stateMutability": "pure",
			"type": "function"
		}
	]
}